{
    "_format": "hh-sol-artifact-1",
    "contractName": "NFTSTORE",
    "sourceName": "contracts/NFTSTORE.sol",
    "address": "0x81B3b50EE23ACE13fDB3afefFD3246aECD91d8e6",
    "abi": [
        {
            "inputs": [],
            "stateMutability": "nonpayable",
            "type": "constructor"
        },
        {
            "inputs": [
                {
                    "internalType": "address",
                    "name": "sender",
                    "type": "address"
                },
                {
                    "internalType": "uint256",
                    "name": "tokenId",
                    "type": "uint256"
                },
                {
                    "internalType": "address",
                    "name": "owner",
                    "type": "address"
                }
            ],
            "name": "ERC721IncorrectOwner",
            "type": "error"
        },
        {
            "inputs": [
                {
                    "internalType": "address",
                    "name": "operator",
                    "type": "address"
                },
                {
                    "internalType": "uint256",
                    "name": "tokenId",
                    "type": "uint256"
                }
            ],
            "name": "ERC721InsufficientApproval",
            "type": "error"
        },
        {
            "inputs": [
                {
                    "internalType": "address",
                    "name": "approver",
                    "type": "address"
                }
            ],
            "name": "ERC721InvalidApprover",
            "type": "error"
        },
        {
            "inputs": [
                {
                    "internalType": "address",
                    "name": "operator",
                    "type": "address"
                }
            ],
            "name": "ERC721InvalidOperator",
            "type": "error"
        },
        {
            "inputs": [
                {
                    "internalType": "address",
                    "name": "owner",
                    "type": "address"
                }
            ],
            "name": "ERC721InvalidOwner",
            "type": "error"
        },
        {
            "inputs": [
                {
                    "internalType": "address",
                    "name": "receiver",
                    "type": "address"
                }
            ],
            "name": "ERC721InvalidReceiver",
            "type": "error"
        },
        {
            "inputs": [
                {
                    "internalType": "address",
                    "name": "sender",
                    "type": "address"
                }
            ],
            "name": "ERC721InvalidSender",
            "type": "error"
        },
        {
            "inputs": [
                {
                    "internalType": "uint256",
                    "name": "tokenId",
                    "type": "uint256"
                }
            ],
            "name": "ERC721NonexistentToken",
            "type": "error"
        },
        {
            "anonymous": false,
            "inputs": [
                {
                    "indexed": true,
                    "internalType": "address",
                    "name": "owner",
                    "type": "address"
                },
                {
                    "indexed": true,
                    "internalType": "address",
                    "name": "approved",
                    "type": "address"
                },
                {
                    "indexed": true,
                    "internalType": "uint256",
                    "name": "tokenId",
                    "type": "uint256"
                }
            ],
            "name": "Approval",
            "type": "event"
        },
        {
            "anonymous": false,
            "inputs": [
                {
                    "indexed": true,
                    "internalType": "address",
                    "name": "owner",
                    "type": "address"
                },
                {
                    "indexed": true,
                    "internalType": "address",
                    "name": "operator",
                    "type": "address"
                },
                {
                    "indexed": false,
                    "internalType": "bool",
                    "name": "approved",
                    "type": "bool"
                }
            ],
            "name": "ApprovalForAll",
            "type": "event"
        },
        {
            "anonymous": false,
            "inputs": [
                {
                    "indexed": false,
                    "internalType": "uint256",
                    "name": "_fromTokenId",
                    "type": "uint256"
                },
                {
                    "indexed": false,
                    "internalType": "uint256",
                    "name": "_toTokenId",
                    "type": "uint256"
                }
            ],
            "name": "BatchMetadataUpdate",
            "type": "event"
        },
        {
            "anonymous": false,
            "inputs": [
                {
                    "indexed": false,
                    "internalType": "uint256",
                    "name": "_tokenId",
                    "type": "uint256"
                }
            ],
            "name": "MetadataUpdate",
            "type": "event"
        },
        {
            "anonymous": false,
            "inputs": [
                {
                    "indexed": true,
                    "internalType": "address",
                    "name": "from",
                    "type": "address"
                },
                {
                    "indexed": true,
                    "internalType": "address",
                    "name": "to",
                    "type": "address"
                },
                {
                    "indexed": true,
                    "internalType": "uint256",
                    "name": "tokenId",
                    "type": "uint256"
                }
            ],
            "name": "Transfer",
            "type": "event"
        },
        {
            "inputs": [
                {
                    "internalType": "uint256",
                    "name": "_tokenId",
                    "type": "uint256"
                },
                {
                    "internalType": "uint256",
                    "name": "_price",
                    "type": "uint256"
                }
            ],
            "name": "_createNFTListing",
            "outputs": [],
            "stateMutability": "nonpayable",
            "type": "function"
        },
        {
            "inputs": [
                {
                    "internalType": "address",
                    "name": "to",
                    "type": "address"
                },
                {
                    "internalType": "uint256",
                    "name": "tokenId",
                    "type": "uint256"
                }
            ],
            "name": "approve",
            "outputs": [],
            "stateMutability": "nonpayable",
            "type": "function"
        },
        {
            "inputs": [
                {
                    "internalType": "address",
                    "name": "owner",
                    "type": "address"
                }
            ],
            "name": "balanceOf",
            "outputs": [
                {
                    "internalType": "uint256",
                    "name": "",
                    "type": "uint256"
                }
            ],
            "stateMutability": "view",
            "type": "function"
        },
        {
            "inputs": [
                {
                    "internalType": "string",
                    "name": "_tokenURI",
                    "type": "string"
                },
                {
                    "internalType": "uint256",
                    "name": "_price",
                    "type": "uint256"
                }
            ],
            "name": "createToken",
            "outputs": [
                {
                    "internalType": "uint256",
                    "name": "",
                    "type": "uint256"
                }
            ],
            "stateMutability": "nonpayable",
            "type": "function"
        },
        {
            "inputs": [
                {
                    "internalType": "uint256",
                    "name": "tokenId",
                    "type": "uint256"
                }
            ],
            "name": "executeSale",
            "outputs": [],
            "stateMutability": "payable",
            "type": "function"
        },
        {
            "inputs": [],
            "name": "getAllListedNFTs",
            "outputs": [
                {
                    "components": [
                        {
                            "internalType": "uint256",
                            "name": "tokenId",
                            "type": "uint256"
                        },
                        {
                            "internalType": "address payable",
                            "name": "owner",
                            "type": "address"
                        },
                        {
                            "internalType": "address payable",
                            "name": "seller",
                            "type": "address"
                        },
                        {
                            "internalType": "uint256",
                            "name": "price",
                            "type": "uint256"
                        }
                    ],
                    "internalType": "struct NFTSTORE.NFTListing[]",
                    "name": "",
                    "type": "tuple[]"
                }
            ],
            "stateMutability": "view",
            "type": "function"
        },
        {
            "inputs": [
                {
                    "internalType": "uint256",
                    "name": "tokenId",
                    "type": "uint256"
                }
            ],
            "name": "getApproved",
            "outputs": [
                {
                    "internalType": "address",
                    "name": "",
                    "type": "address"
                }
            ],
            "stateMutability": "view",
            "type": "function"
        },
        {
            "inputs": [],
            "name": "getCurrentTokenId",
            "outputs": [
                {
                    "internalType": "uint256",
                    "name": "",
                    "type": "uint256"
                }
            ],
            "stateMutability": "view",
            "type": "function"
        },
        {
            "inputs": [],
            "name": "getListingFeePercentage",
            "outputs": [
                {
                    "internalType": "uint256",
                    "name": "",
                    "type": "uint256"
                }
            ],
            "stateMutability": "view",
            "type": "function"
        },
        {
            "inputs": [],
            "name": "getMyNFTs",
            "outputs": [
                {
                    "components": [
                        {
                            "internalType": "uint256",
                            "name": "tokenId",
                            "type": "uint256"
                        },
                        {
                            "internalType": "address payable",
                            "name": "owner",
                            "type": "address"
                        },
                        {
                            "internalType": "address payable",
                            "name": "seller",
                            "type": "address"
                        },
                        {
                            "internalType": "uint256",
                            "name": "price",
                            "type": "uint256"
                        }
                    ],
                    "internalType": "struct NFTSTORE.NFTListing[]",
                    "name": "",
                    "type": "tuple[]"
                }
            ],
            "stateMutability": "view",
            "type": "function"
        },
        {
            "inputs": [
                {
                    "internalType": "uint256",
                    "name": "_tokenId",
                    "type": "uint256"
                }
            ],
            "name": "getNFTListing",
            "outputs": [
                {
                    "components": [
                        {
                            "internalType": "uint256",
                            "name": "tokenId",
                            "type": "uint256"
                        },
                        {
                            "internalType": "address payable",
                            "name": "owner",
                            "type": "address"
                        },
                        {
                            "internalType": "address payable",
                            "name": "seller",
                            "type": "address"
                        },
                        {
                            "internalType": "uint256",
                            "name": "price",
                            "type": "uint256"
                        }
                    ],
                    "internalType": "struct NFTSTORE.NFTListing",
                    "name": "",
                    "type": "tuple"
                }
            ],
            "stateMutability": "view",
            "type": "function"
        },
        {
            "inputs": [
                {
                    "internalType": "address",
                    "name": "owner",
                    "type": "address"
                },
                {
                    "internalType": "address",
                    "name": "operator",
                    "type": "address"
                }
            ],
            "name": "isApprovedForAll",
            "outputs": [
                {
                    "internalType": "bool",
                    "name": "",
                    "type": "bool"
                }
            ],
            "stateMutability": "view",
            "type": "function"
        },
        {
            "inputs": [],
            "name": "listingFeePercentage",
            "outputs": [
                {
                    "internalType": "uint256",
                    "name": "",
                    "type": "uint256"
                }
            ],
            "stateMutability": "view",
            "type": "function"
        },
        {
            "inputs": [],
            "name": "marketplaceOwner",
            "outputs": [
                {
                    "internalType": "address payable",
                    "name": "",
                    "type": "address"
                }
            ],
            "stateMutability": "view",
            "type": "function"
        },
        {
            "inputs": [],
            "name": "name",
            "outputs": [
                {
                    "internalType": "string",
                    "name": "",
                    "type": "string"
                }
            ],
            "stateMutability": "view",
            "type": "function"
        },
        {
            "inputs": [
                {
                    "internalType": "uint256",
                    "name": "tokenId",
                    "type": "uint256"
                }
            ],
            "name": "ownerOf",
            "outputs": [
                {
                    "internalType": "address",
                    "name": "",
                    "type": "address"
                }
            ],
            "stateMutability": "view",
            "type": "function"
        },
        {
            "inputs": [
                {
                    "internalType": "address",
                    "name": "from",
                    "type": "address"
                },
                {
                    "internalType": "address",
                    "name": "to",
                    "type": "address"
                },
                {
                    "internalType": "uint256",
                    "name": "tokenId",
                    "type": "uint256"
                }
            ],
            "name": "safeTransferFrom",
            "outputs": [],
            "stateMutability": "nonpayable",
            "type": "function"
        },
        {
            "inputs": [
                {
                    "internalType": "address",
                    "name": "from",
                    "type": "address"
                },
                {
                    "internalType": "address",
                    "name": "to",
                    "type": "address"
                },
                {
                    "internalType": "uint256",
                    "name": "tokenId",
                    "type": "uint256"
                },
                {
                    "internalType": "bytes",
                    "name": "data",
                    "type": "bytes"
                }
            ],
            "name": "safeTransferFrom",
            "outputs": [],
            "stateMutability": "nonpayable",
            "type": "function"
        },
        {
            "inputs": [
                {
                    "internalType": "address",
                    "name": "operator",
                    "type": "address"
                },
                {
                    "internalType": "bool",
                    "name": "approved",
                    "type": "bool"
                }
            ],
            "name": "setApprovalForAll",
            "outputs": [],
            "stateMutability": "nonpayable",
            "type": "function"
        },
        {
            "inputs": [
                {
                    "internalType": "bytes4",
                    "name": "interfaceId",
                    "type": "bytes4"
                }
            ],
            "name": "supportsInterface",
            "outputs": [
                {
                    "internalType": "bool",
                    "name": "",
                    "type": "bool"
                }
            ],
            "stateMutability": "view",
            "type": "function"
        },
        {
            "inputs": [],
            "name": "symbol",
            "outputs": [
                {
                    "internalType": "string",
                    "name": "",
                    "type": "string"
                }
            ],
            "stateMutability": "view",
            "type": "function"
        },
        {
            "inputs": [
                {
                    "internalType": "uint256",
                    "name": "tokenId",
                    "type": "uint256"
                }
            ],
            "name": "tokenURI",
            "outputs": [
                {
                    "internalType": "string",
                    "name": "",
                    "type": "string"
                }
            ],
            "stateMutability": "view",
            "type": "function"
        },
        {
            "inputs": [
                {
                    "internalType": "address",
                    "name": "from",
                    "type": "address"
                },
                {
                    "internalType": "address",
                    "name": "to",
                    "type": "address"
                },
                {
                    "internalType": "uint256",
                    "name": "tokenId",
                    "type": "uint256"
                }
            ],
            "name": "transferFrom",
            "outputs": [],
            "stateMutability": "nonpayable",
            "type": "function"
        },
        {
            "inputs": [
                {
                    "internalType": "uint256",
                    "name": "_listingFeePercentage",
                    "type": "uint256"
                }
            ],
            "name": "updateListingFeePercentage",
            "outputs": [],
            "stateMutability": "nonpayable",
            "type": "function"
        }
    ],
    "bytecode": "0x6080604052601460085534801561001557600080fd5b506040518060400160405280600881526020017f4e465453544f52450000000000000000000000000000000000000000000000008152506040518060400160405280600481526020017f4e465453000000000000000000000000000000000000000000000000000000008152508160009081610091919061033a565b5080600190816100a1919061033a565b50505033600760006101000a81548173ffffffffffffffffffffffffffffffffffffffff021916908373ffffffffffffffffffffffffffffffffffffffff16021790555061040c565b600081519050919050565b7f4e487b7100000000000000000000000000000000000000000000000000000000600052604160045260246000fd5b7f4e487b7100000000000000000000000000000000000000000000000000000000600052602260045260246000fd5b6000600282049050600182168061016b57607f821691505b60208210810361017e5761017d610124565b5b50919050565b60008190508160005260206000209050919050565b60006020601f8301049050919050565b600082821b905092915050565b6000600883026101e67fffffffffffffffffffffffffffffffffffffffffffffffffffffffffffffffff826101a9565b6101f086836101a9565b95508019841693508086168417925050509392505050565b6000819050919050565b6000819050919050565b600061023761023261022d84610208565b610212565b610208565b9050919050565b6000819050919050565b6102518361021c565b61026561025d8261023e565b8484546101b6565b825550505050565b600090565b61027a61026d565b610285818484610248565b505050565b5b818110156102a95761029e600082610272565b60018101905061028b565b5050565b601f8211156102ee576102bf81610184565b6102c884610199565b810160208510156102d7578190505b6102eb6102e385610199565b83018261028a565b50505b505050565b600082821c905092915050565b6000610311600019846008026102f3565b1980831691505092915050565b600061032a8383610300565b9150826002028217905092915050565b610343826100ea565b67ffffffffffffffff81111561035c5761035b6100f5565b5b6103668254610153565b6103718282856102ad565b600060209050601f8311600181146103a45760008415610392578287015190505b61039c858261031e565b865550610404565b601f1984166103b286610184565b60005b828110156103da578489015182556001820191506020850194506020810190506103b5565b868310156103f757848901516103f3601f891682610300565b8355505b6001600288020188555050505b505050505050565b6137b18061041b6000396000f3fe60806040526004361061014b5760003560e01c8063629cb2e4116100b65780639b1225c41161006f5780639b1225c4146104b8578063a22cb465146104d4578063b30927b5146104fd578063b88d4fde14610528578063c87b56dd14610551578063e985e9c51461058e5761014b565b8063629cb2e4146103805780636352211e146103ab578063650025a0146103e857806370a082311461041357806372b3b6201461045057806395d89b411461048d5761014b565b80630ea59c4b116101085780630ea59c4b14610272578063236ddff1146102af57806323b872dd146102d857806342842e0e146103015780634b58ffaa1461032a57806356189236146103555761014b565b806301bb8cc51461015057806301ffc9a71461017957806306fdde03146101b6578063081812fc146101e15780630888de391461021e578063095ea7b314610249575b600080fd5b34801561015c57600080fd5b506101776004803603810190610172919061271d565b6105cb565b005b34801561018557600080fd5b506101a0600480360381019061019b91906127a2565b610665565b6040516101ad91906127ea565b60405180910390f35b3480156101c257600080fd5b506101cb6106c6565b6040516101d89190612895565b60405180910390f35b3480156101ed57600080fd5b506102086004803603810190610203919061271d565b610758565b60405161021591906128f8565b60405180910390f35b34801561022a57600080fd5b50610233610774565b6040516102409190612922565b60405180910390f35b34801561025557600080fd5b50610270600480360381019061026b9190612969565b61077a565b005b34801561027e57600080fd5b506102996004803603810190610294919061271d565b610790565b6040516102a69190612a2e565b60405180910390f35b3480156102bb57600080fd5b506102d660048036038101906102d19190612a49565b61087d565b005b3480156102e457600080fd5b506102ff60048036038101906102fa9190612a89565b610986565b005b34801561030d57600080fd5b5061032860048036038101906103239190612a89565b610a88565b005b34801561033657600080fd5b5061033f610aa8565b60405161034c9190612be0565b60405180910390f35b34801561036157600080fd5b5061036a610c4f565b6040516103779190612922565b60405180910390f35b34801561038c57600080fd5b50610395610c59565b6040516103a29190612be0565b60405180910390f35b3480156103b757600080fd5b506103d260048036038101906103cd919061271d565b611008565b6040516103df91906128f8565b60405180910390f35b3480156103f457600080fd5b506103fd61101a565b60405161040a9190612c11565b60405180910390f35b34801561041f57600080fd5b5061043a60048036038101906104359190612c2c565b611040565b6040516104479190612922565b60405180910390f35b34801561045c57600080fd5b5061047760048036038101906104729190612d8e565b6110fa565b6040516104849190612922565b60405180910390f35b34801561049957600080fd5b506104a2611185565b6040516104af9190612895565b60405180910390f35b6104d260048036038101906104cd919061271d565b611217565b005b3480156104e057600080fd5b506104fb60048036038101906104f69190612e16565b61140c565b005b34801561050957600080fd5b50610512611422565b60405161051f9190612922565b60405180910390f35b34801561053457600080fd5b5061054f600480360381019061054a9190612ef7565b61142c565b005b34801561055d57600080fd5b506105786004803603810190610573919061271d565b611449565b6040516105859190612895565b60405180910390f35b34801561059a57600080fd5b506105b560048036038101906105b09190612f7a565b61155c565b6040516105c291906127ea565b60405180910390f35b600760009054906101000a900473ffffffffffffffffffffffffffffffffffffffff1673ffffffffffffffffffffffffffffffffffffffff163373ffffffffffffffffffffffffffffffffffffffff161461065b576040517f08c379a00000000000000000000000000000000000000000000000000000000081526004016106529061302c565b60405180910390fd5b8060088190555050565b6000634906490660e01b7bffffffffffffffffffffffffffffffffffffffffffffffffffffffff1916827bffffffffffffffffffffffffffffffffffffffffffffffffffffffff191614806106bf57506106be826115f0565b5b9050919050565b6060600080546106d59061307b565b80601f01602080910402602001604051908101604052809291908181526020018280546107019061307b565b801561074e5780601f106107235761010080835404028352916020019161074e565b820191906000526020600020905b81548152906001019060200180831161073157829003601f168201915b5050505050905090565b6000610763826116d2565b5061076d8261175a565b9050919050565b60085481565b61078c8282610787611797565b61179f565b5050565b61079861267f565b600b6000838152602001908152602001600020604051806080016040529081600082015481526020016001820160009054906101000a900473ffffffffffffffffffffffffffffffffffffffff1673ffffffffffffffffffffffffffffffffffffffff1673ffffffffffffffffffffffffffffffffffffffff1681526020016002820160009054906101000a900473ffffffffffffffffffffffffffffffffffffffff1673ffffffffffffffffffffffffffffffffffffffff1673ffffffffffffffffffffffffffffffffffffffff1681526020016003820154815250509050919050565b60405180608001604052808381526020013373ffffffffffffffffffffffffffffffffffffffff1681526020013373ffffffffffffffffffffffffffffffffffffffff16815260200182815250600b60008481526020019081526020016000206000820151816000015560208201518160010160006101000a81548173ffffffffffffffffffffffffffffffffffffffff021916908373ffffffffffffffffffffffffffffffffffffffff16021790555060408201518160020160006101000a81548173ffffffffffffffffffffffffffffffffffffffff021916908373ffffffffffffffffffffffffffffffffffffffff160217905550606082015181600301559050505050565b600073ffffffffffffffffffffffffffffffffffffffff168273ffffffffffffffffffffffffffffffffffffffff16036109f85760006040517f64a0ae920000000000000000000000000000000000000000000000000000000081526004016109ef91906128f8565b60405180910390fd5b6000610a0c8383610a07611797565b6117b1565b90508373ffffffffffffffffffffffffffffffffffffffff168173ffffffffffffffffffffffffffffffffffffffff1614610a82578382826040517f64283d7b000000000000000000000000000000000000000000000000000000008152600401610a79939291906130ac565b60405180910390fd5b50505050565b610aa38383836040518060200160405280600081525061142c565b505050565b60606000600954905060008167ffffffffffffffff811115610acd57610acc612c63565b5b604051908082528060200260200182016040528015610b0657816020015b610af361267f565b815260200190600190039081610aeb5790505b5090506000805b83811015610c45576000600182610b249190613112565b90506000600b6000838152602001908152602001600020905080604051806080016040529081600082015481526020016001820160009054906101000a900473ffffffffffffffffffffffffffffffffffffffff1673ffffffffffffffffffffffffffffffffffffffff1673ffffffffffffffffffffffffffffffffffffffff1681526020016002820160009054906101000a900473ffffffffffffffffffffffffffffffffffffffff1673ffffffffffffffffffffffffffffffffffffffff1673ffffffffffffffffffffffffffffffffffffffff168152602001600382015481525050858581518110610c1c57610c1b613146565b5b6020026020010181905250600184610c349190613112565b935050508080600101915050610b0d565b5081935050505090565b6000600954905090565b60606000600954905060008060005b83811015610d7a573373ffffffffffffffffffffffffffffffffffffffff16600b6000600184610c989190613112565b815260200190815260200160002060010160009054906101000a900473ffffffffffffffffffffffffffffffffffffffff1673ffffffffffffffffffffffffffffffffffffffff161480610d5957503373ffffffffffffffffffffffffffffffffffffffff16600b6000600184610d0f9190613112565b815260200190815260200160002060020160009054906101000a900473ffffffffffffffffffffffffffffffffffffffff1673ffffffffffffffffffffffffffffffffffffffff16145b15610d6d578280610d6990613175565b9350505b8080600101915050610c68565b5060008267ffffffffffffffff811115610d9757610d96612c63565b5b604051908082528060200260200182016040528015610dd057816020015b610dbd61267f565b815260200190600190039081610db55790505b50905060005b84811015610ffd573373ffffffffffffffffffffffffffffffffffffffff16600b6000600184610e069190613112565b815260200190815260200160002060010160009054906101000a900473ffffffffffffffffffffffffffffffffffffffff1673ffffffffffffffffffffffffffffffffffffffff161480610ec757503373ffffffffffffffffffffffffffffffffffffffff16600b6000600184610e7d9190613112565b815260200190815260200160002060020160009054906101000a900473ffffffffffffffffffffffffffffffffffffffff1673ffffffffffffffffffffffffffffffffffffffff16145b15610ff0576000600182610edb9190613112565b90506000600b6000838152602001908152602001600020905080604051806080016040529081600082015481526020016001820160009054906101000a900473ffffffffffffffffffffffffffffffffffffffff1673ffffffffffffffffffffffffffffffffffffffff1673ffffffffffffffffffffffffffffffffffffffff1681526020016002820160009054906101000a900473ffffffffffffffffffffffffffffffffffffffff1673ffffffffffffffffffffffffffffffffffffffff1673ffffffffffffffffffffffffffffffffffffffff168152602001600382015481525050848681518110610fd357610fd2613146565b5b6020026020010181905250600185610feb9190613112565b945050505b8080600101915050610dd6565b508094505050505090565b6000611013826116d2565b9050919050565b600760009054906101000a900473ffffffffffffffffffffffffffffffffffffffff1681565b60008073ffffffffffffffffffffffffffffffffffffffff168273ffffffffffffffffffffffffffffffffffffffff16036110b35760006040517f89c62b640000000000000000000000000000000000000000000000000000000081526004016110aa91906128f8565b60405180910390fd5b600360008373ffffffffffffffffffffffffffffffffffffffff1673ffffffffffffffffffffffffffffffffffffffff168152602001908152602001600020549050919050565b600080821161113e576040517f08c379a000000000000000000000000000000000000000000000000000000000815260040161113590613209565b60405180910390fd5b6009600081548092919061115190613175565b91905055506000600954905061116733826119cb565b61117181856119e9565b61117b818461087d565b8091505092915050565b6060600180546111949061307b565b80601f01602080910402602001604051908101604052809291908181526020018280546111c09061307b565b801561120d5780601f106111e25761010080835404028352916020019161120d565b820191906000526020600020905b8154815290600101906020018083116111f057829003601f168201915b5050505050905090565b6000600b6000838152602001908152602001600020905060008160030154905060008260020160009054906101000a900473ffffffffffffffffffffffffffffffffffffffff1690508134146112a2576040517f08c379a00000000000000000000000000000000000000000000000000000000081526004016112999061329b565b60405180910390fd5b338360020160006101000a81548173ffffffffffffffffffffffffffffffffffffffff021916908373ffffffffffffffffffffffffffffffffffffffff160217905550600a60008154809291906112f890613175565b919050555061132c8360010160009054906101000a900473ffffffffffffffffffffffffffffffffffffffff163386611a45565b600060646008548461133e91906132bb565b611348919061332c565b9050600760009054906101000a900473ffffffffffffffffffffffffffffffffffffffff1673ffffffffffffffffffffffffffffffffffffffff166108fc829081150290604051600060405180830381858888f193505050501580156113b2573d6000803e3d6000fd5b508173ffffffffffffffffffffffffffffffffffffffff166108fc82346113d9919061335d565b9081150290604051600060405180830381858888f19350505050158015611404573d6000803e3d6000fd5b505050505050565b61141e611417611797565b8383611bb2565b5050565b6000600854905090565b611437848484610986565b61144384848484611d21565b50505050565b6060611454826116d2565b5060006006600084815260200190815260200160002080546114759061307b565b80601f01602080910402602001604051908101604052809291908181526020018280546114a19061307b565b80156114ee5780601f106114c3576101008083540402835291602001916114ee565b820191906000526020600020905b8154815290600101906020018083116114d157829003601f168201915b5050505050905060006114ff611ed8565b90506000815103611514578192505050611557565b6000825111156115495780826040516020016115319291906133cd565b60405160208183030381529060405292505050611557565b61155284611eef565b925050505b919050565b6000600560008473ffffffffffffffffffffffffffffffffffffffff1673ffffffffffffffffffffffffffffffffffffffff16815260200190815260200160002060008373ffffffffffffffffffffffffffffffffffffffff1673ffffffffffffffffffffffffffffffffffffffff16815260200190815260200160002060009054906101000a900460ff16905092915050565b60007f80ac58cd000000000000000000000000000000000000000000000000000000007bffffffffffffffffffffffffffffffffffffffffffffffffffffffff1916827bffffffffffffffffffffffffffffffffffffffffffffffffffffffff191614806116bb57507f5b5e139f000000000000000000000000000000000000000000000000000000007bffffffffffffffffffffffffffffffffffffffffffffffffffffffff1916827bffffffffffffffffffffffffffffffffffffffffffffffffffffffff1916145b806116cb57506116ca82611f58565b5b9050919050565b6000806116de83611fc2565b9050600073ffffffffffffffffffffffffffffffffffffffff168173ffffffffffffffffffffffffffffffffffffffff160361175157826040517f7e2732890000000000000000000000000000000000000000000000000000000081526004016117489190612922565b60405180910390fd5b80915050919050565b60006004600083815260200190815260200160002060009054906101000a900473ffffffffffffffffffffffffffffffffffffffff169050919050565b600033905090565b6117ac8383836001611fff565b505050565b6000806117bd84611fc2565b9050600073ffffffffffffffffffffffffffffffffffffffff168373ffffffffffffffffffffffffffffffffffffffff16146117ff576117fe8184866121c4565b5b600073ffffffffffffffffffffffffffffffffffffffff168173ffffffffffffffffffffffffffffffffffffffff161461189057611841600085600080611fff565b6001600360008373ffffffffffffffffffffffffffffffffffffffff1673ffffffffffffffffffffffffffffffffffffffff168152602001908152602001600020600082825403925050819055505b600073ffffffffffffffffffffffffffffffffffffffff168573ffffffffffffffffffffffffffffffffffffffff1614611913576001600360008773ffffffffffffffffffffffffffffffffffffffff1673ffffffffffffffffffffffffffffffffffffffff168152602001908152602001600020600082825401925050819055505b846002600086815260200190815260200160002060006101000a81548173ffffffffffffffffffffffffffffffffffffffff021916908373ffffffffffffffffffffffffffffffffffffffff160217905550838573ffffffffffffffffffffffffffffffffffffffff168273ffffffffffffffffffffffffffffffffffffffff167fddf252ad1be2c89b69c2b068fc378daa952ba7f163c4a11628f55a4df523b3ef60405160405180910390a4809150509392505050565b6119e5828260405180602001604052806000815250612288565b5050565b80600660008481526020019081526020016000209081611a09919061359d565b507ff8e1a15aba9398e019f0b49df1a4fde98ee17ae345cb5f6b5e2c27f5033e8ce782604051611a399190612922565b60405180910390a15050565b600073ffffffffffffffffffffffffffffffffffffffff168273ffffffffffffffffffffffffffffffffffffffff1603611ab75760006040517f64a0ae92000000000000000000000000000000000000000000000000000000008152600401611aae91906128f8565b60405180910390fd5b6000611ac5838360006117b1565b9050600073ffffffffffffffffffffffffffffffffffffffff168173ffffffffffffffffffffffffffffffffffffffff1603611b3857816040517f7e273289000000000000000000000000000000000000000000000000000000008152600401611b2f9190612922565b60405180910390fd5b8373ffffffffffffffffffffffffffffffffffffffff168173ffffffffffffffffffffffffffffffffffffffff1614611bac578382826040517f64283d7b000000000000000000000000000000000000000000000000000000008152600401611ba3939291906130ac565b60405180910390fd5b50505050565b600073ffffffffffffffffffffffffffffffffffffffff168273ffffffffffffffffffffffffffffffffffffffff1603611c2357816040517f5b08ba18000000000000000000000000000000000000000000000000000000008152600401611c1a91906128f8565b60405180910390fd5b80600560008573ffffffffffffffffffffffffffffffffffffffff1673ffffffffffffffffffffffffffffffffffffffff16815260200190815260200160002060008473ffffffffffffffffffffffffffffffffffffffff1673ffffffffffffffffffffffffffffffffffffffff16815260200190815260200160002060006101000a81548160ff0219169083151502179055508173ffffffffffffffffffffffffffffffffffffffff168373ffffffffffffffffffffffffffffffffffffffff167f17307eab39ab6107e8899845ad3d59bd9653f200f220920489ca2b5937696c3183604051611d1491906127ea565b60405180910390a3505050565b60008373ffffffffffffffffffffffffffffffffffffffff163b1115611ed2578273ffffffffffffffffffffffffffffffffffffffff1663150b7a02611d65611797565b8685856040518563ffffffff1660e01b8152600401611d8794939291906136c4565b6020604051808303816000875af1925050508015611dc357506040513d601f19601f82011682018060405250810190611dc09190613725565b60015b611e47573d8060008114611df3576040519150601f19603f3d011682016040523d82523d6000602084013e611df8565b606091505b506000815103611e3f57836040517f64a0ae92000000000000000000000000000000000000000000000000000000008152600401611e3691906128f8565b60405180910390fd5b805181602001fd5b63150b7a0260e01b7bffffffffffffffffffffffffffffffffffffffffffffffffffffffff1916817bffffffffffffffffffffffffffffffffffffffffffffffffffffffff191614611ed057836040517f64a0ae92000000000000000000000000000000000000000000000000000000008152600401611ec791906128f8565b60405180910390fd5b505b50505050565b606060405180602001604052806000815250905090565b6060611efa826116d2565b506000611f05611ed8565b90506000815111611f255760405180602001604052806000815250611f50565b80611f2f846122a4565b604051602001611f409291906133cd565b6040516020818303038152906040525b915050919050565b60007f01ffc9a7000000000000000000000000000000000000000000000000000000007bffffffffffffffffffffffffffffffffffffffffffffffffffffffff1916827bffffffffffffffffffffffffffffffffffffffffffffffffffffffff1916149050919050565b60006002600083815260200190815260200160002060009054906101000a900473ffffffffffffffffffffffffffffffffffffffff169050919050565b80806120385750600073ffffffffffffffffffffffffffffffffffffffff168273ffffffffffffffffffffffffffffffffffffffff1614155b1561216c576000612048846116d2565b9050600073ffffffffffffffffffffffffffffffffffffffff168373ffffffffffffffffffffffffffffffffffffffff16141580156120b357508273ffffffffffffffffffffffffffffffffffffffff168173ffffffffffffffffffffffffffffffffffffffff1614155b80156120c657506120c4818461155c565b155b1561210857826040517fa9fbf51f0000000000000000000000000000000000000000000000000000000081526004016120ff91906128f8565b60405180910390fd5b811561216a57838573ffffffffffffffffffffffffffffffffffffffff168273ffffffffffffffffffffffffffffffffffffffff167f8c5be1e5ebec7d5bd14f71427d1e84f3dd0314c0f7b2291e5b200ac8c7c3b92560405160405180910390a45b505b836004600085815260200190815260200160002060006101000a81548173ffffffffffffffffffffffffffffffffffffffff021916908373ffffffffffffffffffffffffffffffffffffffff16021790555050505050565b6121cf838383612372565b61228357600073ffffffffffffffffffffffffffffffffffffffff168373ffffffffffffffffffffffffffffffffffffffff160361224457806040517f7e27328900000000000000000000000000000000000000000000000000000000815260040161223b9190612922565b60405180910390fd5b81816040517f177e802f00000000000000000000000000000000000000000000000000000000815260040161227a929190613752565b60405180910390fd5b505050565b6122928383612433565b61229f6000848484611d21565b505050565b6060600060016122b38461252c565b01905060008167ffffffffffffffff8111156122d2576122d1612c63565b5b6040519080825280601f01601f1916602001820160405280156123045781602001600182028036833780820191505090505b509050600082602001820190505b600115612367578080600190039150507f3031323334353637383961626364656600000000000000000000000000000000600a86061a8153600a858161235b5761235a6132fd565b5b04945060008503612312575b819350505050919050565b60008073ffffffffffffffffffffffffffffffffffffffff168373ffffffffffffffffffffffffffffffffffffffff161415801561242a57508273ffffffffffffffffffffffffffffffffffffffff168473ffffffffffffffffffffffffffffffffffffffff1614806123eb57506123ea848461155c565b5b8061242957508273ffffffffffffffffffffffffffffffffffffffff166124118361175a565b73ffffffffffffffffffffffffffffffffffffffff16145b5b90509392505050565b600073ffffffffffffffffffffffffffffffffffffffff168273ffffffffffffffffffffffffffffffffffffffff16036124a55760006040517f64a0ae9200000000000000000000000000000000000000000000000000000000815260040161249c91906128f8565b60405180910390fd5b60006124b3838360006117b1565b9050600073ffffffffffffffffffffffffffffffffffffffff168173ffffffffffffffffffffffffffffffffffffffff16146125275760006040517f73c6ac6e00000000000000000000000000000000000000000000000000000000815260040161251e91906128f8565b60405180910390fd5b505050565b600080600090507a184f03e93ff9f4daa797ed6e38ed64bf6a1f010000000000000000831061258a577a184f03e93ff9f4daa797ed6e38ed64bf6a1f01000000000000000083816125805761257f6132fd565b5b0492506040810190505b6d04ee2d6d415b85acef810000000083106125c7576d04ee2d6d415b85acef810000000083816125bd576125bc6132fd565b5b0492506020810190505b662386f26fc1000083106125f657662386f26fc1000083816125ec576125eb6132fd565b5b0492506010810190505b6305f5e100831061261f576305f5e1008381612615576126146132fd565b5b0492506008810190505b612710831061264457612710838161263a576126396132fd565b5b0492506004810190505b60648310612667576064838161265d5761265c6132fd565b5b0492506002810190505b600a8310612676576001810190505b80915050919050565b604051806080016040528060008152602001600073ffffffffffffffffffffffffffffffffffffffff168152602001600073ffffffffffffffffffffffffffffffffffffffff168152602001600081525090565b6000604051905090565b600080fd5b600080fd5b6000819050919050565b6126fa816126e7565b811461270557600080fd5b50565b600081359050612717816126f1565b92915050565b600060208284031215612733576127326126dd565b5b600061274184828501612708565b91505092915050565b60007fffffffff0000000000000000000000000000000000000000000000000000000082169050919050565b61277f8161274a565b811461278a57600080fd5b50565b60008135905061279c81612776565b92915050565b6000602082840312156127b8576127b76126dd565b5b60006127c68482850161278d565b91505092915050565b60008115159050919050565b6127e4816127cf565b82525050565b60006020820190506127ff60008301846127db565b92915050565b600081519050919050565b600082825260208201905092915050565b60005b8381101561283f578082015181840152602081019050612824565b60008484015250505050565b6000601f19601f8301169050919050565b600061286782612805565b6128718185612810565b9350612881818560208601612821565b61288a8161284b565b840191505092915050565b600060208201905081810360008301526128af818461285c565b905092915050565b600073ffffffffffffffffffffffffffffffffffffffff82169050919050565b60006128e2826128b7565b9050919050565b6128f2816128d7565b82525050565b600060208201905061290d60008301846128e9565b92915050565b61291c816126e7565b82525050565b60006020820190506129376000830184612913565b92915050565b612946816128d7565b811461295157600080fd5b50565b6000813590506129638161293d565b92915050565b600080604083850312156129805761297f6126dd565b5b600061298e85828601612954565b925050602061299f85828601612708565b9150509250929050565b6129b2816126e7565b82525050565b60006129c3826128b7565b9050919050565b6129d3816129b8565b82525050565b6080820160008201516129ef60008501826129a9565b506020820151612a0260208501826129ca565b506040820151612a1560408501826129ca565b506060820151612a2860608501826129a9565b50505050565b6000608082019050612a4360008301846129d9565b92915050565b60008060408385031215612a6057612a5f6126dd565b5b6000612a6e85828601612708565b9250506020612a7f85828601612708565b9150509250929050565b600080600060608486031215612aa257612aa16126dd565b5b6000612ab086828701612954565b9350506020612ac186828701612954565b9250506040612ad286828701612708565b9150509250925092565b600081519050919050565b600082825260208201905092915050565b6000819050602082019050919050565b608082016000820151612b1e60008501826129a9565b506020820151612b3160208501826129ca565b506040820151612b4460408501826129ca565b506060820151612b5760608501826129a9565b50505050565b6000612b698383612b08565b60808301905092915050565b6000602082019050919050565b6000612b8d82612adc565b612b978185612ae7565b9350612ba283612af8565b8060005b83811015612bd3578151612bba8882612b5d565b9750612bc583612b75565b925050600181019050612ba6565b5085935050505092915050565b60006020820190508181036000830152612bfa8184612b82565b905092915050565b612c0b816129b8565b82525050565b6000602082019050612c266000830184612c02565b92915050565b600060208284031215612c4257612c416126dd565b5b6000612c5084828501612954565b91505092915050565b600080fd5b600080fd5b7f4e487b7100000000000000000000000000000000000000000000000000000000600052604160045260246000fd5b612c9b8261284b565b810181811067ffffffffffffffff82111715612cba57612cb9612c63565b5b80604052505050565b6000612ccd6126d3565b9050612cd98282612c92565b919050565b600067ffffffffffffffff821115612cf957612cf8612c63565b5b612d028261284b565b9050602081019050919050565b82818337600083830152505050565b6000612d31612d2c84612cde565b612cc3565b905082815260208101848484011115612d4d57612d4c612c5e565b5b612d58848285612d0f565b509392505050565b600082601f830112612d7557612d74612c59565b5b8135612d85848260208601612d1e565b91505092915050565b60008060408385031215612da557612da46126dd565b5b600083013567ffffffffffffffff811115612dc357612dc26126e2565b5b612dcf85828601612d60565b9250506020612de085828601612708565b9150509250929050565b612df3816127cf565b8114612dfe57600080fd5b50565b600081359050612e1081612dea565b92915050565b60008060408385031215612e2d57612e2c6126dd565b5b6000612e3b85828601612954565b9250506020612e4c85828601612e01565b9150509250929050565b600067ffffffffffffffff821115612e7157612e70612c63565b5b612e7a8261284b565b9050602081019050919050565b6000612e9a612e9584612e56565b612cc3565b905082815260208101848484011115612eb657612eb5612c5e565b5b612ec1848285612d0f565b509392505050565b600082601f830112612ede57612edd612c59565b5b8135612eee848260208601612e87565b91505092915050565b60008060008060808587031215612f1157612f106126dd565b5b6000612f1f87828801612954565b9450506020612f3087828801612954565b9350506040612f4187828801612708565b925050606085013567ffffffffffffffff811115612f6257612f616126e2565b5b612f6e87828801612ec9565b91505092959194509250565b60008060408385031215612f9157612f906126dd565b5b6000612f9f85828601612954565b9250506020612fb085828601612954565b9150509250929050565b7f4f6e6c79206f776e65722063616e2063616c6c20746869732066756e6374696f60008201527f6e00000000000000000000000000000000000000000000000000000000000000602082015250565b6000613016602183612810565b915061302182612fba565b604082019050919050565b6000602082019050818103600083015261304581613009565b9050919050565b7f4e487b7100000000000000000000000000000000000000000000000000000000600052602260045260246000fd5b6000600282049050600182168061309357607f821691505b6020821081036130a6576130a561304c565b5b50919050565b60006060820190506130c160008301866128e9565b6130ce6020830185612913565b6130db60408301846128e9565b949350505050565b7f4e487b7100000000000000000000000000000000000000000000000000000000600052601160045260246000fd5b600061311d826126e7565b9150613128836126e7565b92508282019050808211156131405761313f6130e3565b5b92915050565b7f4e487b7100000000000000000000000000000000000000000000000000000000600052603260045260246000fd5b6000613180826126e7565b91507fffffffffffffffffffffffffffffffffffffffffffffffffffffffffffffffff82036131b2576131b16130e3565b5b600182019050919050565b7f5072696365206d7573742062652067726561746572207468616e203000000000600082015250565b60006131f3601c83612810565b91506131fe826131bd565b602082019050919050565b60006020820190508181036000830152613222816131e6565b9050919050565b7f5072696365206d75737420626520657175616c20746f20746865206c6973746960008201527f6e67207072696365000000000000000000000000000000000000000000000000602082015250565b6000613285602883612810565b915061329082613229565b604082019050919050565b600060208201905081810360008301526132b481613278565b9050919050565b60006132c6826126e7565b91506132d1836126e7565b92508282026132df816126e7565b915082820484148315176132f6576132f56130e3565b5b5092915050565b7f4e487b7100000000000000000000000000000000000000000000000000000000600052601260045260246000fd5b6000613337826126e7565b9150613342836126e7565b925082613352576133516132fd565b5b828204905092915050565b6000613368826126e7565b9150613373836126e7565b925082820390508181111561338b5761338a6130e3565b5b92915050565b600081905092915050565b60006133a782612805565b6133b18185613391565b93506133c1818560208601612821565b80840191505092915050565b60006133d9828561339c565b91506133e5828461339c565b91508190509392505050565b60008190508160005260206000209050919050565b60006020601f8301049050919050565b600082821b905092915050565b6000600883026134537fffffffffffffffffffffffffffffffffffffffffffffffffffffffffffffffff82613416565b61345d8683613416565b95508019841693508086168417925050509392505050565b6000819050919050565b600061349a613495613490846126e7565b613475565b6126e7565b9050919050565b6000819050919050565b6134b48361347f565b6134c86134c0826134a1565b848454613423565b825550505050565b600090565b6134dd6134d0565b6134e88184846134ab565b505050565b5b8181101561350c576135016000826134d5565b6001810190506134ee565b5050565b601f82111561355157613522816133f1565b61352b84613406565b8101602085101561353a578190505b61354e61354685613406565b8301826134ed565b50505b505050565b600082821c905092915050565b600061357460001984600802613556565b1980831691505092915050565b600061358d8383613563565b9150826002028217905092915050565b6135a682612805565b67ffffffffffffffff8111156135bf576135be612c63565b5b6135c9825461307b565b6135d4828285613510565b600060209050601f83116001811461360757600084156135f5578287015190505b6135ff8582613581565b865550613667565b601f198416613615866133f1565b60005b8281101561363d57848901518255600182019150602085019450602081019050613618565b8683101561365a5784890151613656601f891682613563565b8355505b6001600288020188555050505b505050505050565b600081519050919050565b600082825260208201905092915050565b60006136968261366f565b6136a0818561367a565b93506136b0818560208601612821565b6136b98161284b565b840191505092915050565b60006080820190506136d960008301876128e9565b6136e660208301866128e9565b6136f36040830185612913565b8181036060830152613705818461368b565b905095945050505050565b60008151905061371f81612776565b92915050565b60006020828403121561373b5761373a6126dd565b5b600061374984828501613710565b91505092915050565b600060408201905061376760008301856128e9565b6137746020830184612913565b939250505056fea26469706673582212208b7ff2694799aafd48a3fa99b24285ab5fabbf4cbf5bd6681045b9b83905935664736f6c634300081b0033",
    "linkReferences": {},
    "deployedLinkReferences": {}
}