{
  "contracts/NFTSTORE.sol": {
    "NFTSTORE": {
      "abi": [
        {
          "inputs": [],
          "stateMutability": "nonpayable",
          "type": "constructor"
        },
        {
          "inputs": [
            {
              "internalType": "address",
              "name": "sender",
              "type": "address"
            },
            {
              "internalType": "uint256",
              "name": "tokenId",
              "type": "uint256"
            },
            {
              "internalType": "address",
              "name": "owner",
              "type": "address"
            }
          ],
          "name": "ERC721IncorrectOwner",
          "type": "error"
        },
        {
          "inputs": [
            {
              "internalType": "address",
              "name": "operator",
              "type": "address"
            },
            {
              "internalType": "uint256",
              "name": "tokenId",
              "type": "uint256"
            }
          ],
          "name": "ERC721InsufficientApproval",
          "type": "error"
        },
        {
          "inputs": [
            {
              "internalType": "address",
              "name": "approver",
              "type": "address"
            }
          ],
          "name": "ERC721InvalidApprover",
          "type": "error"
        },
        {
          "inputs": [
            {
              "internalType": "address",
              "name": "operator",
              "type": "address"
            }
          ],
          "name": "ERC721InvalidOperator",
          "type": "error"
        },
        {
          "inputs": [
            {
              "internalType": "address",
              "name": "owner",
              "type": "address"
            }
          ],
          "name": "ERC721InvalidOwner",
          "type": "error"
        },
        {
          "inputs": [
            {
              "internalType": "address",
              "name": "receiver",
              "type": "address"
            }
          ],
          "name": "ERC721InvalidReceiver",
          "type": "error"
        },
        {
          "inputs": [
            {
              "internalType": "address",
              "name": "sender",
              "type": "address"
            }
          ],
          "name": "ERC721InvalidSender",
          "type": "error"
        },
        {
          "inputs": [
            {
              "internalType": "uint256",
              "name": "tokenId",
              "type": "uint256"
            }
          ],
          "name": "ERC721NonexistentToken",
          "type": "error"
        },
        {
          "anonymous": false,
          "inputs": [
            {
              "indexed": true,
              "internalType": "address",
              "name": "owner",
              "type": "address"
            },
            {
              "indexed": true,
              "internalType": "address",
              "name": "approved",
              "type": "address"
            },
            {
              "indexed": true,
              "internalType": "uint256",
              "name": "tokenId",
              "type": "uint256"
            }
          ],
          "name": "Approval",
          "type": "event"
        },
        {
          "anonymous": false,
          "inputs": [
            {
              "indexed": true,
              "internalType": "address",
              "name": "owner",
              "type": "address"
            },
            {
              "indexed": true,
              "internalType": "address",
              "name": "operator",
              "type": "address"
            },
            {
              "indexed": false,
              "internalType": "bool",
              "name": "approved",
              "type": "bool"
            }
          ],
          "name": "ApprovalForAll",
          "type": "event"
        },
        {
          "anonymous": false,
          "inputs": [
            {
              "indexed": false,
              "internalType": "uint256",
              "name": "_fromTokenId",
              "type": "uint256"
            },
            {
              "indexed": false,
              "internalType": "uint256",
              "name": "_toTokenId",
              "type": "uint256"
            }
          ],
          "name": "BatchMetadataUpdate",
          "type": "event"
        },
        {
          "anonymous": false,
          "inputs": [
            {
              "indexed": false,
              "internalType": "uint256",
              "name": "_tokenId",
              "type": "uint256"
            }
          ],
          "name": "MetadataUpdate",
          "type": "event"
        },
        {
          "anonymous": false,
          "inputs": [
            {
              "indexed": true,
              "internalType": "address",
              "name": "from",
              "type": "address"
            },
            {
              "indexed": true,
              "internalType": "address",
              "name": "to",
              "type": "address"
            },
            {
              "indexed": true,
              "internalType": "uint256",
              "name": "tokenId",
              "type": "uint256"
            }
          ],
          "name": "Transfer",
          "type": "event"
        },
        {
          "inputs": [
            {
              "internalType": "uint256",
              "name": "_tokenId",
              "type": "uint256"
            },
            {
              "internalType": "uint256",
              "name": "_price",
              "type": "uint256"
            }
          ],
          "name": "_createNFTListing",
          "outputs": [],
          "stateMutability": "nonpayable",
          "type": "function"
        },
        {
          "inputs": [
            {
              "internalType": "address",
              "name": "to",
              "type": "address"
            },
            {
              "internalType": "uint256",
              "name": "tokenId",
              "type": "uint256"
            }
          ],
          "name": "approve",
          "outputs": [],
          "stateMutability": "nonpayable",
          "type": "function"
        },
        {
          "inputs": [
            {
              "internalType": "address",
              "name": "owner",
              "type": "address"
            }
          ],
          "name": "balanceOf",
          "outputs": [
            {
              "internalType": "uint256",
              "name": "",
              "type": "uint256"
            }
          ],
          "stateMutability": "view",
          "type": "function"
        },
        {
          "inputs": [
            {
              "internalType": "string",
              "name": "_tokenURI",
              "type": "string"
            },
            {
              "internalType": "uint256",
              "name": "_price",
              "type": "uint256"
            }
          ],
          "name": "createToken",
          "outputs": [
            {
              "internalType": "uint256",
              "name": "",
              "type": "uint256"
            }
          ],
          "stateMutability": "nonpayable",
          "type": "function"
        },
        {
          "inputs": [
            {
              "internalType": "uint256",
              "name": "tokenId",
              "type": "uint256"
            }
          ],
          "name": "executeSale",
          "outputs": [],
          "stateMutability": "payable",
          "type": "function"
        },
        {
          "inputs": [],
          "name": "getAllListedNFTs",
          "outputs": [
            {
              "components": [
                {
                  "internalType": "uint256",
                  "name": "tokenId",
                  "type": "uint256"
                },
                {
                  "internalType": "address payable",
                  "name": "owner",
                  "type": "address"
                },
                {
                  "internalType": "address payable",
                  "name": "seller",
                  "type": "address"
                },
                {
                  "internalType": "uint256",
                  "name": "price",
                  "type": "uint256"
                }
              ],
              "internalType": "struct NFTSTORE.NFTListing[]",
              "name": "",
              "type": "tuple[]"
            }
          ],
          "stateMutability": "view",
          "type": "function"
        },
        {
          "inputs": [
            {
              "internalType": "uint256",
              "name": "tokenId",
              "type": "uint256"
            }
          ],
          "name": "getApproved",
          "outputs": [
            {
              "internalType": "address",
              "name": "",
              "type": "address"
            }
          ],
          "stateMutability": "view",
          "type": "function"
        },
        {
          "inputs": [],
          "name": "getCurrentTokenId",
          "outputs": [
            {
              "internalType": "uint256",
              "name": "",
              "type": "uint256"
            }
          ],
          "stateMutability": "view",
          "type": "function"
        },
        {
          "inputs": [],
          "name": "getListingFeePercentage",
          "outputs": [
            {
              "internalType": "uint256",
              "name": "",
              "type": "uint256"
            }
          ],
          "stateMutability": "view",
          "type": "function"
        },
        {
          "inputs": [],
          "name": "getMyNFTs",
          "outputs": [
            {
              "components": [
                {
                  "internalType": "uint256",
                  "name": "tokenId",
                  "type": "uint256"
                },
                {
                  "internalType": "address payable",
                  "name": "owner",
                  "type": "address"
                },
                {
                  "internalType": "address payable",
                  "name": "seller",
                  "type": "address"
                },
                {
                  "internalType": "uint256",
                  "name": "price",
                  "type": "uint256"
                }
              ],
              "internalType": "struct NFTSTORE.NFTListing[]",
              "name": "",
              "type": "tuple[]"
            }
          ],
          "stateMutability": "view",
          "type": "function"
        },
        {
          "inputs": [
            {
              "internalType": "uint256",
              "name": "_tokenId",
              "type": "uint256"
            }
          ],
          "name": "getNFTListing",
          "outputs": [
            {
              "components": [
                {
                  "internalType": "uint256",
                  "name": "tokenId",
                  "type": "uint256"
                },
                {
                  "internalType": "address payable",
                  "name": "owner",
                  "type": "address"
                },
                {
                  "internalType": "address payable",
                  "name": "seller",
                  "type": "address"
                },
                {
                  "internalType": "uint256",
                  "name": "price",
                  "type": "uint256"
                }
              ],
              "internalType": "struct NFTSTORE.NFTListing",
              "name": "",
              "type": "tuple"
            }
          ],
          "stateMutability": "view",
          "type": "function"
        },
        {
          "inputs": [
            {
              "internalType": "address",
              "name": "owner",
              "type": "address"
            },
            {
              "internalType": "address",
              "name": "operator",
              "type": "address"
            }
          ],
          "name": "isApprovedForAll",
          "outputs": [
            {
              "internalType": "bool",
              "name": "",
              "type": "bool"
            }
          ],
          "stateMutability": "view",
          "type": "function"
        },
        {
          "inputs": [],
          "name": "listingFeePercentage",
          "outputs": [
            {
              "internalType": "uint256",
              "name": "",
              "type": "uint256"
            }
          ],
          "stateMutability": "view",
          "type": "function"
        },
        {
          "inputs": [],
          "name": "marketplaceOwner",
          "outputs": [
            {
              "internalType": "address payable",
              "name": "",
              "type": "address"
            }
          ],
          "stateMutability": "view",
          "type": "function"
        },
        {
          "inputs": [],
          "name": "name",
          "outputs": [
            {
              "internalType": "string",
              "name": "",
              "type": "string"
            }
          ],
          "stateMutability": "view",
          "type": "function"
        },
        {
          "inputs": [
            {
              "internalType": "uint256",
              "name": "tokenId",
              "type": "uint256"
            }
          ],
          "name": "ownerOf",
          "outputs": [
            {
              "internalType": "address",
              "name": "",
              "type": "address"
            }
          ],
          "stateMutability": "view",
          "type": "function"
        },
        {
          "inputs": [
            {
              "internalType": "address",
              "name": "from",
              "type": "address"
            },
            {
              "internalType": "address",
              "name": "to",
              "type": "address"
            },
            {
              "internalType": "uint256",
              "name": "tokenId",
              "type": "uint256"
            }
          ],
          "name": "safeTransferFrom",
          "outputs": [],
          "stateMutability": "nonpayable",
          "type": "function"
        },
        {
          "inputs": [
            {
              "internalType": "address",
              "name": "from",
              "type": "address"
            },
            {
              "internalType": "address",
              "name": "to",
              "type": "address"
            },
            {
              "internalType": "uint256",
              "name": "tokenId",
              "type": "uint256"
            },
            {
              "internalType": "bytes",
              "name": "data",
              "type": "bytes"
            }
          ],
          "name": "safeTransferFrom",
          "outputs": [],
          "stateMutability": "nonpayable",
          "type": "function"
        },
        {
          "inputs": [
            {
              "internalType": "address",
              "name": "operator",
              "type": "address"
            },
            {
              "internalType": "bool",
              "name": "approved",
              "type": "bool"
            }
          ],
          "name": "setApprovalForAll",
          "outputs": [],
          "stateMutability": "nonpayable",
          "type": "function"
        },
        {
          "inputs": [
            {
              "internalType": "bytes4",
              "name": "interfaceId",
              "type": "bytes4"
            }
          ],
          "name": "supportsInterface",
          "outputs": [
            {
              "internalType": "bool",
              "name": "",
              "type": "bool"
            }
          ],
          "stateMutability": "view",
          "type": "function"
        },
        {
          "inputs": [],
          "name": "symbol",
          "outputs": [
            {
              "internalType": "string",
              "name": "",
              "type": "string"
            }
          ],
          "stateMutability": "view",
          "type": "function"
        },
        {
          "inputs": [
            {
              "internalType": "uint256",
              "name": "tokenId",
              "type": "uint256"
            }
          ],
          "name": "tokenURI",
          "outputs": [
            {
              "internalType": "string",
              "name": "",
              "type": "string"
            }
          ],
          "stateMutability": "view",
          "type": "function"
        },
        {
          "inputs": [
            {
              "internalType": "address",
              "name": "from",
              "type": "address"
            },
            {
              "internalType": "address",
              "name": "to",
              "type": "address"
            },
            {
              "internalType": "uint256",
              "name": "tokenId",
              "type": "uint256"
            }
          ],
          "name": "transferFrom",
          "outputs": [],
          "stateMutability": "nonpayable",
          "type": "function"
        },
        {
          "inputs": [
            {
              "internalType": "uint256",
              "name": "_listingFeePercentage",
              "type": "uint256"
            }
          ],
          "name": "updateListingFeePercentage",
          "outputs": [],
          "stateMutability": "nonpayable",
          "type": "function"
        }
      ],
      "evm": {
        "bytecode": {
          "linkReferences": {},
          "object": "6080604052601460085534801561001557600080fd5b506040518060400160405280600881526020017f4e465453544f52450000000000000000000000000000000000000000000000008152506040518060400160405280600481526020017f4e465453000000000000000000000000000000000000000000000000000000008152508160009081610091919061033a565b5080600190816100a1919061033a565b50505033600760006101000a81548173ffffffffffffffffffffffffffffffffffffffff021916908373ffffffffffffffffffffffffffffffffffffffff16021790555061040c565b600081519050919050565b7f4e487b7100000000000000000000000000000000000000000000000000000000600052604160045260246000fd5b7f4e487b7100000000000000000000000000000000000000000000000000000000600052602260045260246000fd5b6000600282049050600182168061016b57607f821691505b60208210810361017e5761017d610124565b5b50919050565b60008190508160005260206000209050919050565b60006020601f8301049050919050565b600082821b905092915050565b6000600883026101e67fffffffffffffffffffffffffffffffffffffffffffffffffffffffffffffffff826101a9565b6101f086836101a9565b95508019841693508086168417925050509392505050565b6000819050919050565b6000819050919050565b600061023761023261022d84610208565b610212565b610208565b9050919050565b6000819050919050565b6102518361021c565b61026561025d8261023e565b8484546101b6565b825550505050565b600090565b61027a61026d565b610285818484610248565b505050565b5b818110156102a95761029e600082610272565b60018101905061028b565b5050565b601f8211156102ee576102bf81610184565b6102c884610199565b810160208510156102d7578190505b6102eb6102e385610199565b83018261028a565b50505b505050565b600082821c905092915050565b6000610311600019846008026102f3565b1980831691505092915050565b600061032a8383610300565b9150826002028217905092915050565b610343826100ea565b67ffffffffffffffff81111561035c5761035b6100f5565b5b6103668254610153565b6103718282856102ad565b600060209050601f8311600181146103a45760008415610392578287015190505b61039c858261031e565b865550610404565b601f1984166103b286610184565b60005b828110156103da578489015182556001820191506020850194506020810190506103b5565b868310156103f757848901516103f3601f891682610300565b8355505b6001600288020188555050505b505050505050565b6137b18061041b6000396000f3fe60806040526004361061014b5760003560e01c8063629cb2e4116100b65780639b1225c41161006f5780639b1225c4146104b8578063a22cb465146104d4578063b30927b5146104fd578063b88d4fde14610528578063c87b56dd14610551578063e985e9c51461058e5761014b565b8063629cb2e4146103805780636352211e146103ab578063650025a0146103e857806370a082311461041357806372b3b6201461045057806395d89b411461048d5761014b565b80630ea59c4b116101085780630ea59c4b14610272578063236ddff1146102af57806323b872dd146102d857806342842e0e146103015780634b58ffaa1461032a57806356189236146103555761014b565b806301bb8cc51461015057806301ffc9a71461017957806306fdde03146101b6578063081812fc146101e15780630888de391461021e578063095ea7b314610249575b600080fd5b34801561015c57600080fd5b506101776004803603810190610172919061271d565b6105cb565b005b34801561018557600080fd5b506101a0600480360381019061019b91906127a2565b610665565b6040516101ad91906127ea565b60405180910390f35b3480156101c257600080fd5b506101cb6106c6565b6040516101d89190612895565b60405180910390f35b3480156101ed57600080fd5b506102086004803603810190610203919061271d565b610758565b60405161021591906128f8565b60405180910390f35b34801561022a57600080fd5b50610233610774565b6040516102409190612922565b60405180910390f35b34801561025557600080fd5b50610270600480360381019061026b9190612969565b61077a565b005b34801561027e57600080fd5b506102996004803603810190610294919061271d565b610790565b6040516102a69190612a2e565b60405180910390f35b3480156102bb57600080fd5b506102d660048036038101906102d19190612a49565b61087d565b005b3480156102e457600080fd5b506102ff60048036038101906102fa9190612a89565b610986565b005b34801561030d57600080fd5b5061032860048036038101906103239190612a89565b610a88565b005b34801561033657600080fd5b5061033f610aa8565b60405161034c9190612be0565b60405180910390f35b34801561036157600080fd5b5061036a610c4f565b6040516103779190612922565b60405180910390f35b34801561038c57600080fd5b50610395610c59565b6040516103a29190612be0565b60405180910390f35b3480156103b757600080fd5b506103d260048036038101906103cd919061271d565b611008565b6040516103df91906128f8565b60405180910390f35b3480156103f457600080fd5b506103fd61101a565b60405161040a9190612c11565b60405180910390f35b34801561041f57600080fd5b5061043a60048036038101906104359190612c2c565b611040565b6040516104479190612922565b60405180910390f35b34801561045c57600080fd5b5061047760048036038101906104729190612d8e565b6110fa565b6040516104849190612922565b60405180910390f35b34801561049957600080fd5b506104a2611185565b6040516104af9190612895565b60405180910390f35b6104d260048036038101906104cd919061271d565b611217565b005b3480156104e057600080fd5b506104fb60048036038101906104f69190612e16565b61140c565b005b34801561050957600080fd5b50610512611422565b60405161051f9190612922565b60405180910390f35b34801561053457600080fd5b5061054f600480360381019061054a9190612ef7565b61142c565b005b34801561055d57600080fd5b506105786004803603810190610573919061271d565b611449565b6040516105859190612895565b60405180910390f35b34801561059a57600080fd5b506105b560048036038101906105b09190612f7a565b61155c565b6040516105c291906127ea565b60405180910390f35b600760009054906101000a900473ffffffffffffffffffffffffffffffffffffffff1673ffffffffffffffffffffffffffffffffffffffff163373ffffffffffffffffffffffffffffffffffffffff161461065b576040517f08c379a00000000000000000000000000000000000000000000000000000000081526004016106529061302c565b60405180910390fd5b8060088190555050565b6000634906490660e01b7bffffffffffffffffffffffffffffffffffffffffffffffffffffffff1916827bffffffffffffffffffffffffffffffffffffffffffffffffffffffff191614806106bf57506106be826115f0565b5b9050919050565b6060600080546106d59061307b565b80601f01602080910402602001604051908101604052809291908181526020018280546107019061307b565b801561074e5780601f106107235761010080835404028352916020019161074e565b820191906000526020600020905b81548152906001019060200180831161073157829003601f168201915b5050505050905090565b6000610763826116d2565b5061076d8261175a565b9050919050565b60085481565b61078c8282610787611797565b61179f565b5050565b61079861267f565b600b6000838152602001908152602001600020604051806080016040529081600082015481526020016001820160009054906101000a900473ffffffffffffffffffffffffffffffffffffffff1673ffffffffffffffffffffffffffffffffffffffff1673ffffffffffffffffffffffffffffffffffffffff1681526020016002820160009054906101000a900473ffffffffffffffffffffffffffffffffffffffff1673ffffffffffffffffffffffffffffffffffffffff1673ffffffffffffffffffffffffffffffffffffffff1681526020016003820154815250509050919050565b60405180608001604052808381526020013373ffffffffffffffffffffffffffffffffffffffff1681526020013373ffffffffffffffffffffffffffffffffffffffff16815260200182815250600b60008481526020019081526020016000206000820151816000015560208201518160010160006101000a81548173ffffffffffffffffffffffffffffffffffffffff021916908373ffffffffffffffffffffffffffffffffffffffff16021790555060408201518160020160006101000a81548173ffffffffffffffffffffffffffffffffffffffff021916908373ffffffffffffffffffffffffffffffffffffffff160217905550606082015181600301559050505050565b600073ffffffffffffffffffffffffffffffffffffffff168273ffffffffffffffffffffffffffffffffffffffff16036109f85760006040517f64a0ae920000000000000000000000000000000000000000000000000000000081526004016109ef91906128f8565b60405180910390fd5b6000610a0c8383610a07611797565b6117b1565b90508373ffffffffffffffffffffffffffffffffffffffff168173ffffffffffffffffffffffffffffffffffffffff1614610a82578382826040517f64283d7b000000000000000000000000000000000000000000000000000000008152600401610a79939291906130ac565b60405180910390fd5b50505050565b610aa38383836040518060200160405280600081525061142c565b505050565b60606000600954905060008167ffffffffffffffff811115610acd57610acc612c63565b5b604051908082528060200260200182016040528015610b0657816020015b610af361267f565b815260200190600190039081610aeb5790505b5090506000805b83811015610c45576000600182610b249190613112565b90506000600b6000838152602001908152602001600020905080604051806080016040529081600082015481526020016001820160009054906101000a900473ffffffffffffffffffffffffffffffffffffffff1673ffffffffffffffffffffffffffffffffffffffff1673ffffffffffffffffffffffffffffffffffffffff1681526020016002820160009054906101000a900473ffffffffffffffffffffffffffffffffffffffff1673ffffffffffffffffffffffffffffffffffffffff1673ffffffffffffffffffffffffffffffffffffffff168152602001600382015481525050858581518110610c1c57610c1b613146565b5b6020026020010181905250600184610c349190613112565b935050508080600101915050610b0d565b5081935050505090565b6000600954905090565b60606000600954905060008060005b83811015610d7a573373ffffffffffffffffffffffffffffffffffffffff16600b6000600184610c989190613112565b815260200190815260200160002060010160009054906101000a900473ffffffffffffffffffffffffffffffffffffffff1673ffffffffffffffffffffffffffffffffffffffff161480610d5957503373ffffffffffffffffffffffffffffffffffffffff16600b6000600184610d0f9190613112565b815260200190815260200160002060020160009054906101000a900473ffffffffffffffffffffffffffffffffffffffff1673ffffffffffffffffffffffffffffffffffffffff16145b15610d6d578280610d6990613175565b9350505b8080600101915050610c68565b5060008267ffffffffffffffff811115610d9757610d96612c63565b5b604051908082528060200260200182016040528015610dd057816020015b610dbd61267f565b815260200190600190039081610db55790505b50905060005b84811015610ffd573373ffffffffffffffffffffffffffffffffffffffff16600b6000600184610e069190613112565b815260200190815260200160002060010160009054906101000a900473ffffffffffffffffffffffffffffffffffffffff1673ffffffffffffffffffffffffffffffffffffffff161480610ec757503373ffffffffffffffffffffffffffffffffffffffff16600b6000600184610e7d9190613112565b815260200190815260200160002060020160009054906101000a900473ffffffffffffffffffffffffffffffffffffffff1673ffffffffffffffffffffffffffffffffffffffff16145b15610ff0576000600182610edb9190613112565b90506000600b6000838152602001908152602001600020905080604051806080016040529081600082015481526020016001820160009054906101000a900473ffffffffffffffffffffffffffffffffffffffff1673ffffffffffffffffffffffffffffffffffffffff1673ffffffffffffffffffffffffffffffffffffffff1681526020016002820160009054906101000a900473ffffffffffffffffffffffffffffffffffffffff1673ffffffffffffffffffffffffffffffffffffffff1673ffffffffffffffffffffffffffffffffffffffff168152602001600382015481525050848681518110610fd357610fd2613146565b5b6020026020010181905250600185610feb9190613112565b945050505b8080600101915050610dd6565b508094505050505090565b6000611013826116d2565b9050919050565b600760009054906101000a900473ffffffffffffffffffffffffffffffffffffffff1681565b60008073ffffffffffffffffffffffffffffffffffffffff168273ffffffffffffffffffffffffffffffffffffffff16036110b35760006040517f89c62b640000000000000000000000000000000000000000000000000000000081526004016110aa91906128f8565b60405180910390fd5b600360008373ffffffffffffffffffffffffffffffffffffffff1673ffffffffffffffffffffffffffffffffffffffff168152602001908152602001600020549050919050565b600080821161113e576040517f08c379a000000000000000000000000000000000000000000000000000000000815260040161113590613209565b60405180910390fd5b6009600081548092919061115190613175565b91905055506000600954905061116733826119cb565b61117181856119e9565b61117b818461087d565b8091505092915050565b6060600180546111949061307b565b80601f01602080910402602001604051908101604052809291908181526020018280546111c09061307b565b801561120d5780601f106111e25761010080835404028352916020019161120d565b820191906000526020600020905b8154815290600101906020018083116111f057829003601f168201915b5050505050905090565b6000600b6000838152602001908152602001600020905060008160030154905060008260020160009054906101000a900473ffffffffffffffffffffffffffffffffffffffff1690508134146112a2576040517f08c379a00000000000000000000000000000000000000000000000000000000081526004016112999061329b565b60405180910390fd5b338360020160006101000a81548173ffffffffffffffffffffffffffffffffffffffff021916908373ffffffffffffffffffffffffffffffffffffffff160217905550600a60008154809291906112f890613175565b919050555061132c8360010160009054906101000a900473ffffffffffffffffffffffffffffffffffffffff163386611a45565b600060646008548461133e91906132bb565b611348919061332c565b9050600760009054906101000a900473ffffffffffffffffffffffffffffffffffffffff1673ffffffffffffffffffffffffffffffffffffffff166108fc829081150290604051600060405180830381858888f193505050501580156113b2573d6000803e3d6000fd5b508173ffffffffffffffffffffffffffffffffffffffff166108fc82346113d9919061335d565b9081150290604051600060405180830381858888f19350505050158015611404573d6000803e3d6000fd5b505050505050565b61141e611417611797565b8383611bb2565b5050565b6000600854905090565b611437848484610986565b61144384848484611d21565b50505050565b6060611454826116d2565b5060006006600084815260200190815260200160002080546114759061307b565b80601f01602080910402602001604051908101604052809291908181526020018280546114a19061307b565b80156114ee5780601f106114c3576101008083540402835291602001916114ee565b820191906000526020600020905b8154815290600101906020018083116114d157829003601f168201915b5050505050905060006114ff611ed8565b90506000815103611514578192505050611557565b6000825111156115495780826040516020016115319291906133cd565b60405160208183030381529060405292505050611557565b61155284611eef565b925050505b919050565b6000600560008473ffffffffffffffffffffffffffffffffffffffff1673ffffffffffffffffffffffffffffffffffffffff16815260200190815260200160002060008373ffffffffffffffffffffffffffffffffffffffff1673ffffffffffffffffffffffffffffffffffffffff16815260200190815260200160002060009054906101000a900460ff16905092915050565b60007f80ac58cd000000000000000000000000000000000000000000000000000000007bffffffffffffffffffffffffffffffffffffffffffffffffffffffff1916827bffffffffffffffffffffffffffffffffffffffffffffffffffffffff191614806116bb57507f5b5e139f000000000000000000000000000000000000000000000000000000007bffffffffffffffffffffffffffffffffffffffffffffffffffffffff1916827bffffffffffffffffffffffffffffffffffffffffffffffffffffffff1916145b806116cb57506116ca82611f58565b5b9050919050565b6000806116de83611fc2565b9050600073ffffffffffffffffffffffffffffffffffffffff168173ffffffffffffffffffffffffffffffffffffffff160361175157826040517f7e2732890000000000000000000000000000000000000000000000000000000081526004016117489190612922565b60405180910390fd5b80915050919050565b60006004600083815260200190815260200160002060009054906101000a900473ffffffffffffffffffffffffffffffffffffffff169050919050565b600033905090565b6117ac8383836001611fff565b505050565b6000806117bd84611fc2565b9050600073ffffffffffffffffffffffffffffffffffffffff168373ffffffffffffffffffffffffffffffffffffffff16146117ff576117fe8184866121c4565b5b600073ffffffffffffffffffffffffffffffffffffffff168173ffffffffffffffffffffffffffffffffffffffff161461189057611841600085600080611fff565b6001600360008373ffffffffffffffffffffffffffffffffffffffff1673ffffffffffffffffffffffffffffffffffffffff168152602001908152602001600020600082825403925050819055505b600073ffffffffffffffffffffffffffffffffffffffff168573ffffffffffffffffffffffffffffffffffffffff1614611913576001600360008773ffffffffffffffffffffffffffffffffffffffff1673ffffffffffffffffffffffffffffffffffffffff168152602001908152602001600020600082825401925050819055505b846002600086815260200190815260200160002060006101000a81548173ffffffffffffffffffffffffffffffffffffffff021916908373ffffffffffffffffffffffffffffffffffffffff160217905550838573ffffffffffffffffffffffffffffffffffffffff168273ffffffffffffffffffffffffffffffffffffffff167fddf252ad1be2c89b69c2b068fc378daa952ba7f163c4a11628f55a4df523b3ef60405160405180910390a4809150509392505050565b6119e5828260405180602001604052806000815250612288565b5050565b80600660008481526020019081526020016000209081611a09919061359d565b507ff8e1a15aba9398e019f0b49df1a4fde98ee17ae345cb5f6b5e2c27f5033e8ce782604051611a399190612922565b60405180910390a15050565b600073ffffffffffffffffffffffffffffffffffffffff168273ffffffffffffffffffffffffffffffffffffffff1603611ab75760006040517f64a0ae92000000000000000000000000000000000000000000000000000000008152600401611aae91906128f8565b60405180910390fd5b6000611ac5838360006117b1565b9050600073ffffffffffffffffffffffffffffffffffffffff168173ffffffffffffffffffffffffffffffffffffffff1603611b3857816040517f7e273289000000000000000000000000000000000000000000000000000000008152600401611b2f9190612922565b60405180910390fd5b8373ffffffffffffffffffffffffffffffffffffffff168173ffffffffffffffffffffffffffffffffffffffff1614611bac578382826040517f64283d7b000000000000000000000000000000000000000000000000000000008152600401611ba3939291906130ac565b60405180910390fd5b50505050565b600073ffffffffffffffffffffffffffffffffffffffff168273ffffffffffffffffffffffffffffffffffffffff1603611c2357816040517f5b08ba18000000000000000000000000000000000000000000000000000000008152600401611c1a91906128f8565b60405180910390fd5b80600560008573ffffffffffffffffffffffffffffffffffffffff1673ffffffffffffffffffffffffffffffffffffffff16815260200190815260200160002060008473ffffffffffffffffffffffffffffffffffffffff1673ffffffffffffffffffffffffffffffffffffffff16815260200190815260200160002060006101000a81548160ff0219169083151502179055508173ffffffffffffffffffffffffffffffffffffffff168373ffffffffffffffffffffffffffffffffffffffff167f17307eab39ab6107e8899845ad3d59bd9653f200f220920489ca2b5937696c3183604051611d1491906127ea565b60405180910390a3505050565b60008373ffffffffffffffffffffffffffffffffffffffff163b1115611ed2578273ffffffffffffffffffffffffffffffffffffffff1663150b7a02611d65611797565b8685856040518563ffffffff1660e01b8152600401611d8794939291906136c4565b6020604051808303816000875af1925050508015611dc357506040513d601f19601f82011682018060405250810190611dc09190613725565b60015b611e47573d8060008114611df3576040519150601f19603f3d011682016040523d82523d6000602084013e611df8565b606091505b506000815103611e3f57836040517f64a0ae92000000000000000000000000000000000000000000000000000000008152600401611e3691906128f8565b60405180910390fd5b805181602001fd5b63150b7a0260e01b7bffffffffffffffffffffffffffffffffffffffffffffffffffffffff1916817bffffffffffffffffffffffffffffffffffffffffffffffffffffffff191614611ed057836040517f64a0ae92000000000000000000000000000000000000000000000000000000008152600401611ec791906128f8565b60405180910390fd5b505b50505050565b606060405180602001604052806000815250905090565b6060611efa826116d2565b506000611f05611ed8565b90506000815111611f255760405180602001604052806000815250611f50565b80611f2f846122a4565b604051602001611f409291906133cd565b6040516020818303038152906040525b915050919050565b60007f01ffc9a7000000000000000000000000000000000000000000000000000000007bffffffffffffffffffffffffffffffffffffffffffffffffffffffff1916827bffffffffffffffffffffffffffffffffffffffffffffffffffffffff1916149050919050565b60006002600083815260200190815260200160002060009054906101000a900473ffffffffffffffffffffffffffffffffffffffff169050919050565b80806120385750600073ffffffffffffffffffffffffffffffffffffffff168273ffffffffffffffffffffffffffffffffffffffff1614155b1561216c576000612048846116d2565b9050600073ffffffffffffffffffffffffffffffffffffffff168373ffffffffffffffffffffffffffffffffffffffff16141580156120b357508273ffffffffffffffffffffffffffffffffffffffff168173ffffffffffffffffffffffffffffffffffffffff1614155b80156120c657506120c4818461155c565b155b1561210857826040517fa9fbf51f0000000000000000000000000000000000000000000000000000000081526004016120ff91906128f8565b60405180910390fd5b811561216a57838573ffffffffffffffffffffffffffffffffffffffff168273ffffffffffffffffffffffffffffffffffffffff167f8c5be1e5ebec7d5bd14f71427d1e84f3dd0314c0f7b2291e5b200ac8c7c3b92560405160405180910390a45b505b836004600085815260200190815260200160002060006101000a81548173ffffffffffffffffffffffffffffffffffffffff021916908373ffffffffffffffffffffffffffffffffffffffff16021790555050505050565b6121cf838383612372565b61228357600073ffffffffffffffffffffffffffffffffffffffff168373ffffffffffffffffffffffffffffffffffffffff160361224457806040517f7e27328900000000000000000000000000000000000000000000000000000000815260040161223b9190612922565b60405180910390fd5b81816040517f177e802f00000000000000000000000000000000000000000000000000000000815260040161227a929190613752565b60405180910390fd5b505050565b6122928383612433565b61229f6000848484611d21565b505050565b6060600060016122b38461252c565b01905060008167ffffffffffffffff8111156122d2576122d1612c63565b5b6040519080825280601f01601f1916602001820160405280156123045781602001600182028036833780820191505090505b509050600082602001820190505b600115612367578080600190039150507f3031323334353637383961626364656600000000000000000000000000000000600a86061a8153600a858161235b5761235a6132fd565b5b04945060008503612312575b819350505050919050565b60008073ffffffffffffffffffffffffffffffffffffffff168373ffffffffffffffffffffffffffffffffffffffff161415801561242a57508273ffffffffffffffffffffffffffffffffffffffff168473ffffffffffffffffffffffffffffffffffffffff1614806123eb57506123ea848461155c565b5b8061242957508273ffffffffffffffffffffffffffffffffffffffff166124118361175a565b73ffffffffffffffffffffffffffffffffffffffff16145b5b90509392505050565b600073ffffffffffffffffffffffffffffffffffffffff168273ffffffffffffffffffffffffffffffffffffffff16036124a55760006040517f64a0ae9200000000000000000000000000000000000000000000000000000000815260040161249c91906128f8565b60405180910390fd5b60006124b3838360006117b1565b9050600073ffffffffffffffffffffffffffffffffffffffff168173ffffffffffffffffffffffffffffffffffffffff16146125275760006040517f73c6ac6e00000000000000000000000000000000000000000000000000000000815260040161251e91906128f8565b60405180910390fd5b505050565b600080600090507a184f03e93ff9f4daa797ed6e38ed64bf6a1f010000000000000000831061258a577a184f03e93ff9f4daa797ed6e38ed64bf6a1f01000000000000000083816125805761257f6132fd565b5b0492506040810190505b6d04ee2d6d415b85acef810000000083106125c7576d04ee2d6d415b85acef810000000083816125bd576125bc6132fd565b5b0492506020810190505b662386f26fc1000083106125f657662386f26fc1000083816125ec576125eb6132fd565b5b0492506010810190505b6305f5e100831061261f576305f5e1008381612615576126146132fd565b5b0492506008810190505b612710831061264457612710838161263a576126396132fd565b5b0492506004810190505b60648310612667576064838161265d5761265c6132fd565b5b0492506002810190505b600a8310612676576001810190505b80915050919050565b604051806080016040528060008152602001600073ffffffffffffffffffffffffffffffffffffffff168152602001600073ffffffffffffffffffffffffffffffffffffffff168152602001600081525090565b6000604051905090565b600080fd5b600080fd5b6000819050919050565b6126fa816126e7565b811461270557600080fd5b50565b600081359050612717816126f1565b92915050565b600060208284031215612733576127326126dd565b5b600061274184828501612708565b91505092915050565b60007fffffffff0000000000000000000000000000000000000000000000000000000082169050919050565b61277f8161274a565b811461278a57600080fd5b50565b60008135905061279c81612776565b92915050565b6000602082840312156127b8576127b76126dd565b5b60006127c68482850161278d565b91505092915050565b60008115159050919050565b6127e4816127cf565b82525050565b60006020820190506127ff60008301846127db565b92915050565b600081519050919050565b600082825260208201905092915050565b60005b8381101561283f578082015181840152602081019050612824565b60008484015250505050565b6000601f19601f8301169050919050565b600061286782612805565b6128718185612810565b9350612881818560208601612821565b61288a8161284b565b840191505092915050565b600060208201905081810360008301526128af818461285c565b905092915050565b600073ffffffffffffffffffffffffffffffffffffffff82169050919050565b60006128e2826128b7565b9050919050565b6128f2816128d7565b82525050565b600060208201905061290d60008301846128e9565b92915050565b61291c816126e7565b82525050565b60006020820190506129376000830184612913565b92915050565b612946816128d7565b811461295157600080fd5b50565b6000813590506129638161293d565b92915050565b600080604083850312156129805761297f6126dd565b5b600061298e85828601612954565b925050602061299f85828601612708565b9150509250929050565b6129b2816126e7565b82525050565b60006129c3826128b7565b9050919050565b6129d3816129b8565b82525050565b6080820160008201516129ef60008501826129a9565b506020820151612a0260208501826129ca565b506040820151612a1560408501826129ca565b506060820151612a2860608501826129a9565b50505050565b6000608082019050612a4360008301846129d9565b92915050565b60008060408385031215612a6057612a5f6126dd565b5b6000612a6e85828601612708565b9250506020612a7f85828601612708565b9150509250929050565b600080600060608486031215612aa257612aa16126dd565b5b6000612ab086828701612954565b9350506020612ac186828701612954565b9250506040612ad286828701612708565b9150509250925092565b600081519050919050565b600082825260208201905092915050565b6000819050602082019050919050565b608082016000820151612b1e60008501826129a9565b506020820151612b3160208501826129ca565b506040820151612b4460408501826129ca565b506060820151612b5760608501826129a9565b50505050565b6000612b698383612b08565b60808301905092915050565b6000602082019050919050565b6000612b8d82612adc565b612b978185612ae7565b9350612ba283612af8565b8060005b83811015612bd3578151612bba8882612b5d565b9750612bc583612b75565b925050600181019050612ba6565b5085935050505092915050565b60006020820190508181036000830152612bfa8184612b82565b905092915050565b612c0b816129b8565b82525050565b6000602082019050612c266000830184612c02565b92915050565b600060208284031215612c4257612c416126dd565b5b6000612c5084828501612954565b91505092915050565b600080fd5b600080fd5b7f4e487b7100000000000000000000000000000000000000000000000000000000600052604160045260246000fd5b612c9b8261284b565b810181811067ffffffffffffffff82111715612cba57612cb9612c63565b5b80604052505050565b6000612ccd6126d3565b9050612cd98282612c92565b919050565b600067ffffffffffffffff821115612cf957612cf8612c63565b5b612d028261284b565b9050602081019050919050565b82818337600083830152505050565b6000612d31612d2c84612cde565b612cc3565b905082815260208101848484011115612d4d57612d4c612c5e565b5b612d58848285612d0f565b509392505050565b600082601f830112612d7557612d74612c59565b5b8135612d85848260208601612d1e565b91505092915050565b60008060408385031215612da557612da46126dd565b5b600083013567ffffffffffffffff811115612dc357612dc26126e2565b5b612dcf85828601612d60565b9250506020612de085828601612708565b9150509250929050565b612df3816127cf565b8114612dfe57600080fd5b50565b600081359050612e1081612dea565b92915050565b60008060408385031215612e2d57612e2c6126dd565b5b6000612e3b85828601612954565b9250506020612e4c85828601612e01565b9150509250929050565b600067ffffffffffffffff821115612e7157612e70612c63565b5b612e7a8261284b565b9050602081019050919050565b6000612e9a612e9584612e56565b612cc3565b905082815260208101848484011115612eb657612eb5612c5e565b5b612ec1848285612d0f565b509392505050565b600082601f830112612ede57612edd612c59565b5b8135612eee848260208601612e87565b91505092915050565b60008060008060808587031215612f1157612f106126dd565b5b6000612f1f87828801612954565b9450506020612f3087828801612954565b9350506040612f4187828801612708565b925050606085013567ffffffffffffffff811115612f6257612f616126e2565b5b612f6e87828801612ec9565b91505092959194509250565b60008060408385031215612f9157612f906126dd565b5b6000612f9f85828601612954565b9250506020612fb085828601612954565b9150509250929050565b7f4f6e6c79206f776e65722063616e2063616c6c20746869732066756e6374696f60008201527f6e00000000000000000000000000000000000000000000000000000000000000602082015250565b6000613016602183612810565b915061302182612fba565b604082019050919050565b6000602082019050818103600083015261304581613009565b9050919050565b7f4e487b7100000000000000000000000000000000000000000000000000000000600052602260045260246000fd5b6000600282049050600182168061309357607f821691505b6020821081036130a6576130a561304c565b5b50919050565b60006060820190506130c160008301866128e9565b6130ce6020830185612913565b6130db60408301846128e9565b949350505050565b7f4e487b7100000000000000000000000000000000000000000000000000000000600052601160045260246000fd5b600061311d826126e7565b9150613128836126e7565b92508282019050808211156131405761313f6130e3565b5b92915050565b7f4e487b7100000000000000000000000000000000000000000000000000000000600052603260045260246000fd5b6000613180826126e7565b91507fffffffffffffffffffffffffffffffffffffffffffffffffffffffffffffffff82036131b2576131b16130e3565b5b600182019050919050565b7f5072696365206d7573742062652067726561746572207468616e203000000000600082015250565b60006131f3601c83612810565b91506131fe826131bd565b602082019050919050565b60006020820190508181036000830152613222816131e6565b9050919050565b7f5072696365206d75737420626520657175616c20746f20746865206c6973746960008201527f6e67207072696365000000000000000000000000000000000000000000000000602082015250565b6000613285602883612810565b915061329082613229565b604082019050919050565b600060208201905081810360008301526132b481613278565b9050919050565b60006132c6826126e7565b91506132d1836126e7565b92508282026132df816126e7565b915082820484148315176132f6576132f56130e3565b5b5092915050565b7f4e487b7100000000000000000000000000000000000000000000000000000000600052601260045260246000fd5b6000613337826126e7565b9150613342836126e7565b925082613352576133516132fd565b5b828204905092915050565b6000613368826126e7565b9150613373836126e7565b925082820390508181111561338b5761338a6130e3565b5b92915050565b600081905092915050565b60006133a782612805565b6133b18185613391565b93506133c1818560208601612821565b80840191505092915050565b60006133d9828561339c565b91506133e5828461339c565b91508190509392505050565b60008190508160005260206000209050919050565b60006020601f8301049050919050565b600082821b905092915050565b6000600883026134537fffffffffffffffffffffffffffffffffffffffffffffffffffffffffffffffff82613416565b61345d8683613416565b95508019841693508086168417925050509392505050565b6000819050919050565b600061349a613495613490846126e7565b613475565b6126e7565b9050919050565b6000819050919050565b6134b48361347f565b6134c86134c0826134a1565b848454613423565b825550505050565b600090565b6134dd6134d0565b6134e88184846134ab565b505050565b5b8181101561350c576135016000826134d5565b6001810190506134ee565b5050565b601f82111561355157613522816133f1565b61352b84613406565b8101602085101561353a578190505b61354e61354685613406565b8301826134ed565b50505b505050565b600082821c905092915050565b600061357460001984600802613556565b1980831691505092915050565b600061358d8383613563565b9150826002028217905092915050565b6135a682612805565b67ffffffffffffffff8111156135bf576135be612c63565b5b6135c9825461307b565b6135d4828285613510565b600060209050601f83116001811461360757600084156135f5578287015190505b6135ff8582613581565b865550613667565b601f198416613615866133f1565b60005b8281101561363d57848901518255600182019150602085019450602081019050613618565b8683101561365a5784890151613656601f891682613563565b8355505b6001600288020188555050505b505050505050565b600081519050919050565b600082825260208201905092915050565b60006136968261366f565b6136a0818561367a565b93506136b0818560208601612821565b6136b98161284b565b840191505092915050565b60006080820190506136d960008301876128e9565b6136e660208301866128e9565b6136f36040830185612913565b8181036060830152613705818461368b565b905095945050505050565b60008151905061371f81612776565b92915050565b60006020828403121561373b5761373a6126dd565b5b600061374984828501613710565b91505092915050565b600060408201905061376760008301856128e9565b6137746020830184612913565b939250505056fea26469706673582212208b7ff2694799aafd48a3fa99b24285ab5fabbf4cbf5bd6681045b9b83905935664736f6c634300081b0033",
          "opcodes": "PUSH1 0x80 PUSH1 0x40 MSTORE PUSH1 0x14 PUSH1 0x8 SSTORE CALLVALUE DUP1 ISZERO PUSH2 0x15 JUMPI PUSH1 0x0 DUP1 REVERT JUMPDEST POP PUSH1 0x40 MLOAD DUP1 PUSH1 0x40 ADD PUSH1 0x40 MSTORE DUP1 PUSH1 0x8 DUP2 MSTORE PUSH1 0x20 ADD PUSH32 0x4E465453544F5245000000000000000000000000000000000000000000000000 DUP2 MSTORE POP PUSH1 0x40 MLOAD DUP1 PUSH1 0x40 ADD PUSH1 0x40 MSTORE DUP1 PUSH1 0x4 DUP2 MSTORE PUSH1 0x20 ADD PUSH32 0x4E46545300000000000000000000000000000000000000000000000000000000 DUP2 MSTORE POP DUP2 PUSH1 0x0 SWAP1 DUP2 PUSH2 0x91 SWAP2 SWAP1 PUSH2 0x33A JUMP JUMPDEST POP DUP1 PUSH1 0x1 SWAP1 DUP2 PUSH2 0xA1 SWAP2 SWAP1 PUSH2 0x33A JUMP JUMPDEST POP POP POP CALLER PUSH1 0x7 PUSH1 0x0 PUSH2 0x100 EXP DUP2 SLOAD DUP2 PUSH20 0xFFFFFFFFFFFFFFFFFFFFFFFFFFFFFFFFFFFFFFFF MUL NOT AND SWAP1 DUP4 PUSH20 0xFFFFFFFFFFFFFFFFFFFFFFFFFFFFFFFFFFFFFFFF AND MUL OR SWAP1 SSTORE POP PUSH2 0x40C JUMP JUMPDEST PUSH1 0x0 DUP2 MLOAD SWAP1 POP SWAP2 SWAP1 POP JUMP JUMPDEST PUSH32 0x4E487B7100000000000000000000000000000000000000000000000000000000 PUSH1 0x0 MSTORE PUSH1 0x41 PUSH1 0x4 MSTORE PUSH1 0x24 PUSH1 0x0 REVERT JUMPDEST PUSH32 0x4E487B7100000000000000000000000000000000000000000000000000000000 PUSH1 0x0 MSTORE PUSH1 0x22 PUSH1 0x4 MSTORE PUSH1 0x24 PUSH1 0x0 REVERT JUMPDEST PUSH1 0x0 PUSH1 0x2 DUP3 DIV SWAP1 POP PUSH1 0x1 DUP3 AND DUP1 PUSH2 0x16B JUMPI PUSH1 0x7F DUP3 AND SWAP2 POP JUMPDEST PUSH1 0x20 DUP3 LT DUP2 SUB PUSH2 0x17E JUMPI PUSH2 0x17D PUSH2 0x124 JUMP JUMPDEST JUMPDEST POP SWAP2 SWAP1 POP JUMP JUMPDEST PUSH1 0x0 DUP2 SWAP1 POP DUP2 PUSH1 0x0 MSTORE PUSH1 0x20 PUSH1 0x0 KECCAK256 SWAP1 POP SWAP2 SWAP1 POP JUMP JUMPDEST PUSH1 0x0 PUSH1 0x20 PUSH1 0x1F DUP4 ADD DIV SWAP1 POP SWAP2 SWAP1 POP JUMP JUMPDEST PUSH1 0x0 DUP3 DUP3 SHL SWAP1 POP SWAP3 SWAP2 POP POP JUMP JUMPDEST PUSH1 0x0 PUSH1 0x8 DUP4 MUL PUSH2 0x1E6 PUSH32 0xFFFFFFFFFFFFFFFFFFFFFFFFFFFFFFFFFFFFFFFFFFFFFFFFFFFFFFFFFFFFFFFF DUP3 PUSH2 0x1A9 JUMP JUMPDEST PUSH2 0x1F0 DUP7 DUP4 PUSH2 0x1A9 JUMP JUMPDEST SWAP6 POP DUP1 NOT DUP5 AND SWAP4 POP DUP1 DUP7 AND DUP5 OR SWAP3 POP POP POP SWAP4 SWAP3 POP POP POP JUMP JUMPDEST PUSH1 0x0 DUP2 SWAP1 POP SWAP2 SWAP1 POP JUMP JUMPDEST PUSH1 0x0 DUP2 SWAP1 POP SWAP2 SWAP1 POP JUMP JUMPDEST PUSH1 0x0 PUSH2 0x237 PUSH2 0x232 PUSH2 0x22D DUP5 PUSH2 0x208 JUMP JUMPDEST PUSH2 0x212 JUMP JUMPDEST PUSH2 0x208 JUMP JUMPDEST SWAP1 POP SWAP2 SWAP1 POP JUMP JUMPDEST PUSH1 0x0 DUP2 SWAP1 POP SWAP2 SWAP1 POP JUMP JUMPDEST PUSH2 0x251 DUP4 PUSH2 0x21C JUMP JUMPDEST PUSH2 0x265 PUSH2 0x25D DUP3 PUSH2 0x23E JUMP JUMPDEST DUP5 DUP5 SLOAD PUSH2 0x1B6 JUMP JUMPDEST DUP3 SSTORE POP POP POP POP JUMP JUMPDEST PUSH1 0x0 SWAP1 JUMP JUMPDEST PUSH2 0x27A PUSH2 0x26D JUMP JUMPDEST PUSH2 0x285 DUP2 DUP5 DUP5 PUSH2 0x248 JUMP JUMPDEST POP POP POP JUMP JUMPDEST JUMPDEST DUP2 DUP2 LT ISZERO PUSH2 0x2A9 JUMPI PUSH2 0x29E PUSH1 0x0 DUP3 PUSH2 0x272 JUMP JUMPDEST PUSH1 0x1 DUP2 ADD SWAP1 POP PUSH2 0x28B JUMP JUMPDEST POP POP JUMP JUMPDEST PUSH1 0x1F DUP3 GT ISZERO PUSH2 0x2EE JUMPI PUSH2 0x2BF DUP2 PUSH2 0x184 JUMP JUMPDEST PUSH2 0x2C8 DUP5 PUSH2 0x199 JUMP JUMPDEST DUP2 ADD PUSH1 0x20 DUP6 LT ISZERO PUSH2 0x2D7 JUMPI DUP2 SWAP1 POP JUMPDEST PUSH2 0x2EB PUSH2 0x2E3 DUP6 PUSH2 0x199 JUMP JUMPDEST DUP4 ADD DUP3 PUSH2 0x28A JUMP JUMPDEST POP POP JUMPDEST POP POP POP JUMP JUMPDEST PUSH1 0x0 DUP3 DUP3 SHR SWAP1 POP SWAP3 SWAP2 POP POP JUMP JUMPDEST PUSH1 0x0 PUSH2 0x311 PUSH1 0x0 NOT DUP5 PUSH1 0x8 MUL PUSH2 0x2F3 JUMP JUMPDEST NOT DUP1 DUP4 AND SWAP2 POP POP SWAP3 SWAP2 POP POP JUMP JUMPDEST PUSH1 0x0 PUSH2 0x32A DUP4 DUP4 PUSH2 0x300 JUMP JUMPDEST SWAP2 POP DUP3 PUSH1 0x2 MUL DUP3 OR SWAP1 POP SWAP3 SWAP2 POP POP JUMP JUMPDEST PUSH2 0x343 DUP3 PUSH2 0xEA JUMP JUMPDEST PUSH8 0xFFFFFFFFFFFFFFFF DUP2 GT ISZERO PUSH2 0x35C JUMPI PUSH2 0x35B PUSH2 0xF5 JUMP JUMPDEST JUMPDEST PUSH2 0x366 DUP3 SLOAD PUSH2 0x153 JUMP JUMPDEST PUSH2 0x371 DUP3 DUP3 DUP6 PUSH2 0x2AD JUMP JUMPDEST PUSH1 0x0 PUSH1 0x20 SWAP1 POP PUSH1 0x1F DUP4 GT PUSH1 0x1 DUP2 EQ PUSH2 0x3A4 JUMPI PUSH1 0x0 DUP5 ISZERO PUSH2 0x392 JUMPI DUP3 DUP8 ADD MLOAD SWAP1 POP JUMPDEST PUSH2 0x39C DUP6 DUP3 PUSH2 0x31E JUMP JUMPDEST DUP7 SSTORE POP PUSH2 0x404 JUMP JUMPDEST PUSH1 0x1F NOT DUP5 AND PUSH2 0x3B2 DUP7 PUSH2 0x184 JUMP JUMPDEST PUSH1 0x0 JUMPDEST DUP3 DUP2 LT ISZERO PUSH2 0x3DA JUMPI DUP5 DUP10 ADD MLOAD DUP3 SSTORE PUSH1 0x1 DUP3 ADD SWAP2 POP PUSH1 0x20 DUP6 ADD SWAP5 POP PUSH1 0x20 DUP2 ADD SWAP1 POP PUSH2 0x3B5 JUMP JUMPDEST DUP7 DUP4 LT ISZERO PUSH2 0x3F7 JUMPI DUP5 DUP10 ADD MLOAD PUSH2 0x3F3 PUSH1 0x1F DUP10 AND DUP3 PUSH2 0x300 JUMP JUMPDEST DUP4 SSTORE POP JUMPDEST PUSH1 0x1 PUSH1 0x2 DUP9 MUL ADD DUP9 SSTORE POP POP POP JUMPDEST POP POP POP POP POP POP JUMP JUMPDEST PUSH2 0x37B1 DUP1 PUSH2 0x41B PUSH1 0x0 CODECOPY PUSH1 0x0 RETURN INVALID PUSH1 0x80 PUSH1 0x40 MSTORE PUSH1 0x4 CALLDATASIZE LT PUSH2 0x14B JUMPI PUSH1 0x0 CALLDATALOAD PUSH1 0xE0 SHR DUP1 PUSH4 0x629CB2E4 GT PUSH2 0xB6 JUMPI DUP1 PUSH4 0x9B1225C4 GT PUSH2 0x6F JUMPI DUP1 PUSH4 0x9B1225C4 EQ PUSH2 0x4B8 JUMPI DUP1 PUSH4 0xA22CB465 EQ PUSH2 0x4D4 JUMPI DUP1 PUSH4 0xB30927B5 EQ PUSH2 0x4FD JUMPI DUP1 PUSH4 0xB88D4FDE EQ PUSH2 0x528 JUMPI DUP1 PUSH4 0xC87B56DD EQ PUSH2 0x551 JUMPI DUP1 PUSH4 0xE985E9C5 EQ PUSH2 0x58E JUMPI PUSH2 0x14B JUMP JUMPDEST DUP1 PUSH4 0x629CB2E4 EQ PUSH2 0x380 JUMPI DUP1 PUSH4 0x6352211E EQ PUSH2 0x3AB JUMPI DUP1 PUSH4 0x650025A0 EQ PUSH2 0x3E8 JUMPI DUP1 PUSH4 0x70A08231 EQ PUSH2 0x413 JUMPI DUP1 PUSH4 0x72B3B620 EQ PUSH2 0x450 JUMPI DUP1 PUSH4 0x95D89B41 EQ PUSH2 0x48D JUMPI PUSH2 0x14B JUMP JUMPDEST DUP1 PUSH4 0xEA59C4B GT PUSH2 0x108 JUMPI DUP1 PUSH4 0xEA59C4B EQ PUSH2 0x272 JUMPI DUP1 PUSH4 0x236DDFF1 EQ PUSH2 0x2AF JUMPI DUP1 PUSH4 0x23B872DD EQ PUSH2 0x2D8 JUMPI DUP1 PUSH4 0x42842E0E EQ PUSH2 0x301 JUMPI DUP1 PUSH4 0x4B58FFAA EQ PUSH2 0x32A JUMPI DUP1 PUSH4 0x56189236 EQ PUSH2 0x355 JUMPI PUSH2 0x14B JUMP JUMPDEST DUP1 PUSH4 0x1BB8CC5 EQ PUSH2 0x150 JUMPI DUP1 PUSH4 0x1FFC9A7 EQ PUSH2 0x179 JUMPI DUP1 PUSH4 0x6FDDE03 EQ PUSH2 0x1B6 JUMPI DUP1 PUSH4 0x81812FC EQ PUSH2 0x1E1 JUMPI DUP1 PUSH4 0x888DE39 EQ PUSH2 0x21E JUMPI DUP1 PUSH4 0x95EA7B3 EQ PUSH2 0x249 JUMPI JUMPDEST PUSH1 0x0 DUP1 REVERT JUMPDEST CALLVALUE DUP1 ISZERO PUSH2 0x15C JUMPI PUSH1 0x0 DUP1 REVERT JUMPDEST POP PUSH2 0x177 PUSH1 0x4 DUP1 CALLDATASIZE SUB DUP2 ADD SWAP1 PUSH2 0x172 SWAP2 SWAP1 PUSH2 0x271D JUMP JUMPDEST PUSH2 0x5CB JUMP JUMPDEST STOP JUMPDEST CALLVALUE DUP1 ISZERO PUSH2 0x185 JUMPI PUSH1 0x0 DUP1 REVERT JUMPDEST POP PUSH2 0x1A0 PUSH1 0x4 DUP1 CALLDATASIZE SUB DUP2 ADD SWAP1 PUSH2 0x19B SWAP2 SWAP1 PUSH2 0x27A2 JUMP JUMPDEST PUSH2 0x665 JUMP JUMPDEST PUSH1 0x40 MLOAD PUSH2 0x1AD SWAP2 SWAP1 PUSH2 0x27EA JUMP JUMPDEST PUSH1 0x40 MLOAD DUP1 SWAP2 SUB SWAP1 RETURN JUMPDEST CALLVALUE DUP1 ISZERO PUSH2 0x1C2 JUMPI PUSH1 0x0 DUP1 REVERT JUMPDEST POP PUSH2 0x1CB PUSH2 0x6C6 JUMP JUMPDEST PUSH1 0x40 MLOAD PUSH2 0x1D8 SWAP2 SWAP1 PUSH2 0x2895 JUMP JUMPDEST PUSH1 0x40 MLOAD DUP1 SWAP2 SUB SWAP1 RETURN JUMPDEST CALLVALUE DUP1 ISZERO PUSH2 0x1ED JUMPI PUSH1 0x0 DUP1 REVERT JUMPDEST POP PUSH2 0x208 PUSH1 0x4 DUP1 CALLDATASIZE SUB DUP2 ADD SWAP1 PUSH2 0x203 SWAP2 SWAP1 PUSH2 0x271D JUMP JUMPDEST PUSH2 0x758 JUMP JUMPDEST PUSH1 0x40 MLOAD PUSH2 0x215 SWAP2 SWAP1 PUSH2 0x28F8 JUMP JUMPDEST PUSH1 0x40 MLOAD DUP1 SWAP2 SUB SWAP1 RETURN JUMPDEST CALLVALUE DUP1 ISZERO PUSH2 0x22A JUMPI PUSH1 0x0 DUP1 REVERT JUMPDEST POP PUSH2 0x233 PUSH2 0x774 JUMP JUMPDEST PUSH1 0x40 MLOAD PUSH2 0x240 SWAP2 SWAP1 PUSH2 0x2922 JUMP JUMPDEST PUSH1 0x40 MLOAD DUP1 SWAP2 SUB SWAP1 RETURN JUMPDEST CALLVALUE DUP1 ISZERO PUSH2 0x255 JUMPI PUSH1 0x0 DUP1 REVERT JUMPDEST POP PUSH2 0x270 PUSH1 0x4 DUP1 CALLDATASIZE SUB DUP2 ADD SWAP1 PUSH2 0x26B SWAP2 SWAP1 PUSH2 0x2969 JUMP JUMPDEST PUSH2 0x77A JUMP JUMPDEST STOP JUMPDEST CALLVALUE DUP1 ISZERO PUSH2 0x27E JUMPI PUSH1 0x0 DUP1 REVERT JUMPDEST POP PUSH2 0x299 PUSH1 0x4 DUP1 CALLDATASIZE SUB DUP2 ADD SWAP1 PUSH2 0x294 SWAP2 SWAP1 PUSH2 0x271D JUMP JUMPDEST PUSH2 0x790 JUMP JUMPDEST PUSH1 0x40 MLOAD PUSH2 0x2A6 SWAP2 SWAP1 PUSH2 0x2A2E JUMP JUMPDEST PUSH1 0x40 MLOAD DUP1 SWAP2 SUB SWAP1 RETURN JUMPDEST CALLVALUE DUP1 ISZERO PUSH2 0x2BB JUMPI PUSH1 0x0 DUP1 REVERT JUMPDEST POP PUSH2 0x2D6 PUSH1 0x4 DUP1 CALLDATASIZE SUB DUP2 ADD SWAP1 PUSH2 0x2D1 SWAP2 SWAP1 PUSH2 0x2A49 JUMP JUMPDEST PUSH2 0x87D JUMP JUMPDEST STOP JUMPDEST CALLVALUE DUP1 ISZERO PUSH2 0x2E4 JUMPI PUSH1 0x0 DUP1 REVERT JUMPDEST POP PUSH2 0x2FF PUSH1 0x4 DUP1 CALLDATASIZE SUB DUP2 ADD SWAP1 PUSH2 0x2FA SWAP2 SWAP1 PUSH2 0x2A89 JUMP JUMPDEST PUSH2 0x986 JUMP JUMPDEST STOP JUMPDEST CALLVALUE DUP1 ISZERO PUSH2 0x30D JUMPI PUSH1 0x0 DUP1 REVERT JUMPDEST POP PUSH2 0x328 PUSH1 0x4 DUP1 CALLDATASIZE SUB DUP2 ADD SWAP1 PUSH2 0x323 SWAP2 SWAP1 PUSH2 0x2A89 JUMP JUMPDEST PUSH2 0xA88 JUMP JUMPDEST STOP JUMPDEST CALLVALUE DUP1 ISZERO PUSH2 0x336 JUMPI PUSH1 0x0 DUP1 REVERT JUMPDEST POP PUSH2 0x33F PUSH2 0xAA8 JUMP JUMPDEST PUSH1 0x40 MLOAD PUSH2 0x34C SWAP2 SWAP1 PUSH2 0x2BE0 JUMP JUMPDEST PUSH1 0x40 MLOAD DUP1 SWAP2 SUB SWAP1 RETURN JUMPDEST CALLVALUE DUP1 ISZERO PUSH2 0x361 JUMPI PUSH1 0x0 DUP1 REVERT JUMPDEST POP PUSH2 0x36A PUSH2 0xC4F JUMP JUMPDEST PUSH1 0x40 MLOAD PUSH2 0x377 SWAP2 SWAP1 PUSH2 0x2922 JUMP JUMPDEST PUSH1 0x40 MLOAD DUP1 SWAP2 SUB SWAP1 RETURN JUMPDEST CALLVALUE DUP1 ISZERO PUSH2 0x38C JUMPI PUSH1 0x0 DUP1 REVERT JUMPDEST POP PUSH2 0x395 PUSH2 0xC59 JUMP JUMPDEST PUSH1 0x40 MLOAD PUSH2 0x3A2 SWAP2 SWAP1 PUSH2 0x2BE0 JUMP JUMPDEST PUSH1 0x40 MLOAD DUP1 SWAP2 SUB SWAP1 RETURN JUMPDEST CALLVALUE DUP1 ISZERO PUSH2 0x3B7 JUMPI PUSH1 0x0 DUP1 REVERT JUMPDEST POP PUSH2 0x3D2 PUSH1 0x4 DUP1 CALLDATASIZE SUB DUP2 ADD SWAP1 PUSH2 0x3CD SWAP2 SWAP1 PUSH2 0x271D JUMP JUMPDEST PUSH2 0x1008 JUMP JUMPDEST PUSH1 0x40 MLOAD PUSH2 0x3DF SWAP2 SWAP1 PUSH2 0x28F8 JUMP JUMPDEST PUSH1 0x40 MLOAD DUP1 SWAP2 SUB SWAP1 RETURN JUMPDEST CALLVALUE DUP1 ISZERO PUSH2 0x3F4 JUMPI PUSH1 0x0 DUP1 REVERT JUMPDEST POP PUSH2 0x3FD PUSH2 0x101A JUMP JUMPDEST PUSH1 0x40 MLOAD PUSH2 0x40A SWAP2 SWAP1 PUSH2 0x2C11 JUMP JUMPDEST PUSH1 0x40 MLOAD DUP1 SWAP2 SUB SWAP1 RETURN JUMPDEST CALLVALUE DUP1 ISZERO PUSH2 0x41F JUMPI PUSH1 0x0 DUP1 REVERT JUMPDEST POP PUSH2 0x43A PUSH1 0x4 DUP1 CALLDATASIZE SUB DUP2 ADD SWAP1 PUSH2 0x435 SWAP2 SWAP1 PUSH2 0x2C2C JUMP JUMPDEST PUSH2 0x1040 JUMP JUMPDEST PUSH1 0x40 MLOAD PUSH2 0x447 SWAP2 SWAP1 PUSH2 0x2922 JUMP JUMPDEST PUSH1 0x40 MLOAD DUP1 SWAP2 SUB SWAP1 RETURN JUMPDEST CALLVALUE DUP1 ISZERO PUSH2 0x45C JUMPI PUSH1 0x0 DUP1 REVERT JUMPDEST POP PUSH2 0x477 PUSH1 0x4 DUP1 CALLDATASIZE SUB DUP2 ADD SWAP1 PUSH2 0x472 SWAP2 SWAP1 PUSH2 0x2D8E JUMP JUMPDEST PUSH2 0x10FA JUMP JUMPDEST PUSH1 0x40 MLOAD PUSH2 0x484 SWAP2 SWAP1 PUSH2 0x2922 JUMP JUMPDEST PUSH1 0x40 MLOAD DUP1 SWAP2 SUB SWAP1 RETURN JUMPDEST CALLVALUE DUP1 ISZERO PUSH2 0x499 JUMPI PUSH1 0x0 DUP1 REVERT JUMPDEST POP PUSH2 0x4A2 PUSH2 0x1185 JUMP JUMPDEST PUSH1 0x40 MLOAD PUSH2 0x4AF SWAP2 SWAP1 PUSH2 0x2895 JUMP JUMPDEST PUSH1 0x40 MLOAD DUP1 SWAP2 SUB SWAP1 RETURN JUMPDEST PUSH2 0x4D2 PUSH1 0x4 DUP1 CALLDATASIZE SUB DUP2 ADD SWAP1 PUSH2 0x4CD SWAP2 SWAP1 PUSH2 0x271D JUMP JUMPDEST PUSH2 0x1217 JUMP JUMPDEST STOP JUMPDEST CALLVALUE DUP1 ISZERO PUSH2 0x4E0 JUMPI PUSH1 0x0 DUP1 REVERT JUMPDEST POP PUSH2 0x4FB PUSH1 0x4 DUP1 CALLDATASIZE SUB DUP2 ADD SWAP1 PUSH2 0x4F6 SWAP2 SWAP1 PUSH2 0x2E16 JUMP JUMPDEST PUSH2 0x140C JUMP JUMPDEST STOP JUMPDEST CALLVALUE DUP1 ISZERO PUSH2 0x509 JUMPI PUSH1 0x0 DUP1 REVERT JUMPDEST POP PUSH2 0x512 PUSH2 0x1422 JUMP JUMPDEST PUSH1 0x40 MLOAD PUSH2 0x51F SWAP2 SWAP1 PUSH2 0x2922 JUMP JUMPDEST PUSH1 0x40 MLOAD DUP1 SWAP2 SUB SWAP1 RETURN JUMPDEST CALLVALUE DUP1 ISZERO PUSH2 0x534 JUMPI PUSH1 0x0 DUP1 REVERT JUMPDEST POP PUSH2 0x54F PUSH1 0x4 DUP1 CALLDATASIZE SUB DUP2 ADD SWAP1 PUSH2 0x54A SWAP2 SWAP1 PUSH2 0x2EF7 JUMP JUMPDEST PUSH2 0x142C JUMP JUMPDEST STOP JUMPDEST CALLVALUE DUP1 ISZERO PUSH2 0x55D JUMPI PUSH1 0x0 DUP1 REVERT JUMPDEST POP PUSH2 0x578 PUSH1 0x4 DUP1 CALLDATASIZE SUB DUP2 ADD SWAP1 PUSH2 0x573 SWAP2 SWAP1 PUSH2 0x271D JUMP JUMPDEST PUSH2 0x1449 JUMP JUMPDEST PUSH1 0x40 MLOAD PUSH2 0x585 SWAP2 SWAP1 PUSH2 0x2895 JUMP JUMPDEST PUSH1 0x40 MLOAD DUP1 SWAP2 SUB SWAP1 RETURN JUMPDEST CALLVALUE DUP1 ISZERO PUSH2 0x59A JUMPI PUSH1 0x0 DUP1 REVERT JUMPDEST POP PUSH2 0x5B5 PUSH1 0x4 DUP1 CALLDATASIZE SUB DUP2 ADD SWAP1 PUSH2 0x5B0 SWAP2 SWAP1 PUSH2 0x2F7A JUMP JUMPDEST PUSH2 0x155C JUMP JUMPDEST PUSH1 0x40 MLOAD PUSH2 0x5C2 SWAP2 SWAP1 PUSH2 0x27EA JUMP JUMPDEST PUSH1 0x40 MLOAD DUP1 SWAP2 SUB SWAP1 RETURN JUMPDEST PUSH1 0x7 PUSH1 0x0 SWAP1 SLOAD SWAP1 PUSH2 0x100 EXP SWAP1 DIV PUSH20 0xFFFFFFFFFFFFFFFFFFFFFFFFFFFFFFFFFFFFFFFF AND PUSH20 0xFFFFFFFFFFFFFFFFFFFFFFFFFFFFFFFFFFFFFFFF AND CALLER PUSH20 0xFFFFFFFFFFFFFFFFFFFFFFFFFFFFFFFFFFFFFFFF AND EQ PUSH2 0x65B JUMPI PUSH1 0x40 MLOAD PUSH32 0x8C379A000000000000000000000000000000000000000000000000000000000 DUP2 MSTORE PUSH1 0x4 ADD PUSH2 0x652 SWAP1 PUSH2 0x302C JUMP JUMPDEST PUSH1 0x40 MLOAD DUP1 SWAP2 SUB SWAP1 REVERT JUMPDEST DUP1 PUSH1 0x8 DUP2 SWAP1 SSTORE POP POP JUMP JUMPDEST PUSH1 0x0 PUSH4 0x49064906 PUSH1 0xE0 SHL PUSH28 0xFFFFFFFFFFFFFFFFFFFFFFFFFFFFFFFFFFFFFFFFFFFFFFFFFFFFFFFF NOT AND DUP3 PUSH28 0xFFFFFFFFFFFFFFFFFFFFFFFFFFFFFFFFFFFFFFFFFFFFFFFFFFFFFFFF NOT AND EQ DUP1 PUSH2 0x6BF JUMPI POP PUSH2 0x6BE DUP3 PUSH2 0x15F0 JUMP JUMPDEST JUMPDEST SWAP1 POP SWAP2 SWAP1 POP JUMP JUMPDEST PUSH1 0x60 PUSH1 0x0 DUP1 SLOAD PUSH2 0x6D5 SWAP1 PUSH2 0x307B JUMP JUMPDEST DUP1 PUSH1 0x1F ADD PUSH1 0x20 DUP1 SWAP2 DIV MUL PUSH1 0x20 ADD PUSH1 0x40 MLOAD SWAP1 DUP2 ADD PUSH1 0x40 MSTORE DUP1 SWAP3 SWAP2 SWAP1 DUP2 DUP2 MSTORE PUSH1 0x20 ADD DUP3 DUP1 SLOAD PUSH2 0x701 SWAP1 PUSH2 0x307B JUMP JUMPDEST DUP1 ISZERO PUSH2 0x74E JUMPI DUP1 PUSH1 0x1F LT PUSH2 0x723 JUMPI PUSH2 0x100 DUP1 DUP4 SLOAD DIV MUL DUP4 MSTORE SWAP2 PUSH1 0x20 ADD SWAP2 PUSH2 0x74E JUMP JUMPDEST DUP3 ADD SWAP2 SWAP1 PUSH1 0x0 MSTORE PUSH1 0x20 PUSH1 0x0 KECCAK256 SWAP1 JUMPDEST DUP2 SLOAD DUP2 MSTORE SWAP1 PUSH1 0x1 ADD SWAP1 PUSH1 0x20 ADD DUP1 DUP4 GT PUSH2 0x731 JUMPI DUP3 SWAP1 SUB PUSH1 0x1F AND DUP3 ADD SWAP2 JUMPDEST POP POP POP POP POP SWAP1 POP SWAP1 JUMP JUMPDEST PUSH1 0x0 PUSH2 0x763 DUP3 PUSH2 0x16D2 JUMP JUMPDEST POP PUSH2 0x76D DUP3 PUSH2 0x175A JUMP JUMPDEST SWAP1 POP SWAP2 SWAP1 POP JUMP JUMPDEST PUSH1 0x8 SLOAD DUP2 JUMP JUMPDEST PUSH2 0x78C DUP3 DUP3 PUSH2 0x787 PUSH2 0x1797 JUMP JUMPDEST PUSH2 0x179F JUMP JUMPDEST POP POP JUMP JUMPDEST PUSH2 0x798 PUSH2 0x267F JUMP JUMPDEST PUSH1 0xB PUSH1 0x0 DUP4 DUP2 MSTORE PUSH1 0x20 ADD SWAP1 DUP2 MSTORE PUSH1 0x20 ADD PUSH1 0x0 KECCAK256 PUSH1 0x40 MLOAD DUP1 PUSH1 0x80 ADD PUSH1 0x40 MSTORE SWAP1 DUP2 PUSH1 0x0 DUP3 ADD SLOAD DUP2 MSTORE PUSH1 0x20 ADD PUSH1 0x1 DUP3 ADD PUSH1 0x0 SWAP1 SLOAD SWAP1 PUSH2 0x100 EXP SWAP1 DIV PUSH20 0xFFFFFFFFFFFFFFFFFFFFFFFFFFFFFFFFFFFFFFFF AND PUSH20 0xFFFFFFFFFFFFFFFFFFFFFFFFFFFFFFFFFFFFFFFF AND PUSH20 0xFFFFFFFFFFFFFFFFFFFFFFFFFFFFFFFFFFFFFFFF AND DUP2 MSTORE PUSH1 0x20 ADD PUSH1 0x2 DUP3 ADD PUSH1 0x0 SWAP1 SLOAD SWAP1 PUSH2 0x100 EXP SWAP1 DIV PUSH20 0xFFFFFFFFFFFFFFFFFFFFFFFFFFFFFFFFFFFFFFFF AND PUSH20 0xFFFFFFFFFFFFFFFFFFFFFFFFFFFFFFFFFFFFFFFF AND PUSH20 0xFFFFFFFFFFFFFFFFFFFFFFFFFFFFFFFFFFFFFFFF AND DUP2 MSTORE PUSH1 0x20 ADD PUSH1 0x3 DUP3 ADD SLOAD DUP2 MSTORE POP POP SWAP1 POP SWAP2 SWAP1 POP JUMP JUMPDEST PUSH1 0x40 MLOAD DUP1 PUSH1 0x80 ADD PUSH1 0x40 MSTORE DUP1 DUP4 DUP2 MSTORE PUSH1 0x20 ADD CALLER PUSH20 0xFFFFFFFFFFFFFFFFFFFFFFFFFFFFFFFFFFFFFFFF AND DUP2 MSTORE PUSH1 0x20 ADD CALLER PUSH20 0xFFFFFFFFFFFFFFFFFFFFFFFFFFFFFFFFFFFFFFFF AND DUP2 MSTORE PUSH1 0x20 ADD DUP3 DUP2 MSTORE POP PUSH1 0xB PUSH1 0x0 DUP5 DUP2 MSTORE PUSH1 0x20 ADD SWAP1 DUP2 MSTORE PUSH1 0x20 ADD PUSH1 0x0 KECCAK256 PUSH1 0x0 DUP3 ADD MLOAD DUP2 PUSH1 0x0 ADD SSTORE PUSH1 0x20 DUP3 ADD MLOAD DUP2 PUSH1 0x1 ADD PUSH1 0x0 PUSH2 0x100 EXP DUP2 SLOAD DUP2 PUSH20 0xFFFFFFFFFFFFFFFFFFFFFFFFFFFFFFFFFFFFFFFF MUL NOT AND SWAP1 DUP4 PUSH20 0xFFFFFFFFFFFFFFFFFFFFFFFFFFFFFFFFFFFFFFFF AND MUL OR SWAP1 SSTORE POP PUSH1 0x40 DUP3 ADD MLOAD DUP2 PUSH1 0x2 ADD PUSH1 0x0 PUSH2 0x100 EXP DUP2 SLOAD DUP2 PUSH20 0xFFFFFFFFFFFFFFFFFFFFFFFFFFFFFFFFFFFFFFFF MUL NOT AND SWAP1 DUP4 PUSH20 0xFFFFFFFFFFFFFFFFFFFFFFFFFFFFFFFFFFFFFFFF AND MUL OR SWAP1 SSTORE POP PUSH1 0x60 DUP3 ADD MLOAD DUP2 PUSH1 0x3 ADD SSTORE SWAP1 POP POP POP POP JUMP JUMPDEST PUSH1 0x0 PUSH20 0xFFFFFFFFFFFFFFFFFFFFFFFFFFFFFFFFFFFFFFFF AND DUP3 PUSH20 0xFFFFFFFFFFFFFFFFFFFFFFFFFFFFFFFFFFFFFFFF AND SUB PUSH2 0x9F8 JUMPI PUSH1 0x0 PUSH1 0x40 MLOAD PUSH32 0x64A0AE9200000000000000000000000000000000000000000000000000000000 DUP2 MSTORE PUSH1 0x4 ADD PUSH2 0x9EF SWAP2 SWAP1 PUSH2 0x28F8 JUMP JUMPDEST PUSH1 0x40 MLOAD DUP1 SWAP2 SUB SWAP1 REVERT JUMPDEST PUSH1 0x0 PUSH2 0xA0C DUP4 DUP4 PUSH2 0xA07 PUSH2 0x1797 JUMP JUMPDEST PUSH2 0x17B1 JUMP JUMPDEST SWAP1 POP DUP4 PUSH20 0xFFFFFFFFFFFFFFFFFFFFFFFFFFFFFFFFFFFFFFFF AND DUP2 PUSH20 0xFFFFFFFFFFFFFFFFFFFFFFFFFFFFFFFFFFFFFFFF AND EQ PUSH2 0xA82 JUMPI DUP4 DUP3 DUP3 PUSH1 0x40 MLOAD PUSH32 0x64283D7B00000000000000000000000000000000000000000000000000000000 DUP2 MSTORE PUSH1 0x4 ADD PUSH2 0xA79 SWAP4 SWAP3 SWAP2 SWAP1 PUSH2 0x30AC JUMP JUMPDEST PUSH1 0x40 MLOAD DUP1 SWAP2 SUB SWAP1 REVERT JUMPDEST POP POP POP POP JUMP JUMPDEST PUSH2 0xAA3 DUP4 DUP4 DUP4 PUSH1 0x40 MLOAD DUP1 PUSH1 0x20 ADD PUSH1 0x40 MSTORE DUP1 PUSH1 0x0 DUP2 MSTORE POP PUSH2 0x142C JUMP JUMPDEST POP POP POP JUMP JUMPDEST PUSH1 0x60 PUSH1 0x0 PUSH1 0x9 SLOAD SWAP1 POP PUSH1 0x0 DUP2 PUSH8 0xFFFFFFFFFFFFFFFF DUP2 GT ISZERO PUSH2 0xACD JUMPI PUSH2 0xACC PUSH2 0x2C63 JUMP JUMPDEST JUMPDEST PUSH1 0x40 MLOAD SWAP1 DUP1 DUP3 MSTORE DUP1 PUSH1 0x20 MUL PUSH1 0x20 ADD DUP3 ADD PUSH1 0x40 MSTORE DUP1 ISZERO PUSH2 0xB06 JUMPI DUP2 PUSH1 0x20 ADD JUMPDEST PUSH2 0xAF3 PUSH2 0x267F JUMP JUMPDEST DUP2 MSTORE PUSH1 0x20 ADD SWAP1 PUSH1 0x1 SWAP1 SUB SWAP1 DUP2 PUSH2 0xAEB JUMPI SWAP1 POP JUMPDEST POP SWAP1 POP PUSH1 0x0 DUP1 JUMPDEST DUP4 DUP2 LT ISZERO PUSH2 0xC45 JUMPI PUSH1 0x0 PUSH1 0x1 DUP3 PUSH2 0xB24 SWAP2 SWAP1 PUSH2 0x3112 JUMP JUMPDEST SWAP1 POP PUSH1 0x0 PUSH1 0xB PUSH1 0x0 DUP4 DUP2 MSTORE PUSH1 0x20 ADD SWAP1 DUP2 MSTORE PUSH1 0x20 ADD PUSH1 0x0 KECCAK256 SWAP1 POP DUP1 PUSH1 0x40 MLOAD DUP1 PUSH1 0x80 ADD PUSH1 0x40 MSTORE SWAP1 DUP2 PUSH1 0x0 DUP3 ADD SLOAD DUP2 MSTORE PUSH1 0x20 ADD PUSH1 0x1 DUP3 ADD PUSH1 0x0 SWAP1 SLOAD SWAP1 PUSH2 0x100 EXP SWAP1 DIV PUSH20 0xFFFFFFFFFFFFFFFFFFFFFFFFFFFFFFFFFFFFFFFF AND PUSH20 0xFFFFFFFFFFFFFFFFFFFFFFFFFFFFFFFFFFFFFFFF AND PUSH20 0xFFFFFFFFFFFFFFFFFFFFFFFFFFFFFFFFFFFFFFFF AND DUP2 MSTORE PUSH1 0x20 ADD PUSH1 0x2 DUP3 ADD PUSH1 0x0 SWAP1 SLOAD SWAP1 PUSH2 0x100 EXP SWAP1 DIV PUSH20 0xFFFFFFFFFFFFFFFFFFFFFFFFFFFFFFFFFFFFFFFF AND PUSH20 0xFFFFFFFFFFFFFFFFFFFFFFFFFFFFFFFFFFFFFFFF AND PUSH20 0xFFFFFFFFFFFFFFFFFFFFFFFFFFFFFFFFFFFFFFFF AND DUP2 MSTORE PUSH1 0x20 ADD PUSH1 0x3 DUP3 ADD SLOAD DUP2 MSTORE POP POP DUP6 DUP6 DUP2 MLOAD DUP2 LT PUSH2 0xC1C JUMPI PUSH2 0xC1B PUSH2 0x3146 JUMP JUMPDEST JUMPDEST PUSH1 0x20 MUL PUSH1 0x20 ADD ADD DUP2 SWAP1 MSTORE POP PUSH1 0x1 DUP5 PUSH2 0xC34 SWAP2 SWAP1 PUSH2 0x3112 JUMP JUMPDEST SWAP4 POP POP POP DUP1 DUP1 PUSH1 0x1 ADD SWAP2 POP POP PUSH2 0xB0D JUMP JUMPDEST POP DUP2 SWAP4 POP POP POP POP SWAP1 JUMP JUMPDEST PUSH1 0x0 PUSH1 0x9 SLOAD SWAP1 POP SWAP1 JUMP JUMPDEST PUSH1 0x60 PUSH1 0x0 PUSH1 0x9 SLOAD SWAP1 POP PUSH1 0x0 DUP1 PUSH1 0x0 JUMPDEST DUP4 DUP2 LT ISZERO PUSH2 0xD7A JUMPI CALLER PUSH20 0xFFFFFFFFFFFFFFFFFFFFFFFFFFFFFFFFFFFFFFFF AND PUSH1 0xB PUSH1 0x0 PUSH1 0x1 DUP5 PUSH2 0xC98 SWAP2 SWAP1 PUSH2 0x3112 JUMP JUMPDEST DUP2 MSTORE PUSH1 0x20 ADD SWAP1 DUP2 MSTORE PUSH1 0x20 ADD PUSH1 0x0 KECCAK256 PUSH1 0x1 ADD PUSH1 0x0 SWAP1 SLOAD SWAP1 PUSH2 0x100 EXP SWAP1 DIV PUSH20 0xFFFFFFFFFFFFFFFFFFFFFFFFFFFFFFFFFFFFFFFF AND PUSH20 0xFFFFFFFFFFFFFFFFFFFFFFFFFFFFFFFFFFFFFFFF AND EQ DUP1 PUSH2 0xD59 JUMPI POP CALLER PUSH20 0xFFFFFFFFFFFFFFFFFFFFFFFFFFFFFFFFFFFFFFFF AND PUSH1 0xB PUSH1 0x0 PUSH1 0x1 DUP5 PUSH2 0xD0F SWAP2 SWAP1 PUSH2 0x3112 JUMP JUMPDEST DUP2 MSTORE PUSH1 0x20 ADD SWAP1 DUP2 MSTORE PUSH1 0x20 ADD PUSH1 0x0 KECCAK256 PUSH1 0x2 ADD PUSH1 0x0 SWAP1 SLOAD SWAP1 PUSH2 0x100 EXP SWAP1 DIV PUSH20 0xFFFFFFFFFFFFFFFFFFFFFFFFFFFFFFFFFFFFFFFF AND PUSH20 0xFFFFFFFFFFFFFFFFFFFFFFFFFFFFFFFFFFFFFFFF AND EQ JUMPDEST ISZERO PUSH2 0xD6D JUMPI DUP3 DUP1 PUSH2 0xD69 SWAP1 PUSH2 0x3175 JUMP JUMPDEST SWAP4 POP POP JUMPDEST DUP1 DUP1 PUSH1 0x1 ADD SWAP2 POP POP PUSH2 0xC68 JUMP JUMPDEST POP PUSH1 0x0 DUP3 PUSH8 0xFFFFFFFFFFFFFFFF DUP2 GT ISZERO PUSH2 0xD97 JUMPI PUSH2 0xD96 PUSH2 0x2C63 JUMP JUMPDEST JUMPDEST PUSH1 0x40 MLOAD SWAP1 DUP1 DUP3 MSTORE DUP1 PUSH1 0x20 MUL PUSH1 0x20 ADD DUP3 ADD PUSH1 0x40 MSTORE DUP1 ISZERO PUSH2 0xDD0 JUMPI DUP2 PUSH1 0x20 ADD JUMPDEST PUSH2 0xDBD PUSH2 0x267F JUMP JUMPDEST DUP2 MSTORE PUSH1 0x20 ADD SWAP1 PUSH1 0x1 SWAP1 SUB SWAP1 DUP2 PUSH2 0xDB5 JUMPI SWAP1 POP JUMPDEST POP SWAP1 POP PUSH1 0x0 JUMPDEST DUP5 DUP2 LT ISZERO PUSH2 0xFFD JUMPI CALLER PUSH20 0xFFFFFFFFFFFFFFFFFFFFFFFFFFFFFFFFFFFFFFFF AND PUSH1 0xB PUSH1 0x0 PUSH1 0x1 DUP5 PUSH2 0xE06 SWAP2 SWAP1 PUSH2 0x3112 JUMP JUMPDEST DUP2 MSTORE PUSH1 0x20 ADD SWAP1 DUP2 MSTORE PUSH1 0x20 ADD PUSH1 0x0 KECCAK256 PUSH1 0x1 ADD PUSH1 0x0 SWAP1 SLOAD SWAP1 PUSH2 0x100 EXP SWAP1 DIV PUSH20 0xFFFFFFFFFFFFFFFFFFFFFFFFFFFFFFFFFFFFFFFF AND PUSH20 0xFFFFFFFFFFFFFFFFFFFFFFFFFFFFFFFFFFFFFFFF AND EQ DUP1 PUSH2 0xEC7 JUMPI POP CALLER PUSH20 0xFFFFFFFFFFFFFFFFFFFFFFFFFFFFFFFFFFFFFFFF AND PUSH1 0xB PUSH1 0x0 PUSH1 0x1 DUP5 PUSH2 0xE7D SWAP2 SWAP1 PUSH2 0x3112 JUMP JUMPDEST DUP2 MSTORE PUSH1 0x20 ADD SWAP1 DUP2 MSTORE PUSH1 0x20 ADD PUSH1 0x0 KECCAK256 PUSH1 0x2 ADD PUSH1 0x0 SWAP1 SLOAD SWAP1 PUSH2 0x100 EXP SWAP1 DIV PUSH20 0xFFFFFFFFFFFFFFFFFFFFFFFFFFFFFFFFFFFFFFFF AND PUSH20 0xFFFFFFFFFFFFFFFFFFFFFFFFFFFFFFFFFFFFFFFF AND EQ JUMPDEST ISZERO PUSH2 0xFF0 JUMPI PUSH1 0x0 PUSH1 0x1 DUP3 PUSH2 0xEDB SWAP2 SWAP1 PUSH2 0x3112 JUMP JUMPDEST SWAP1 POP PUSH1 0x0 PUSH1 0xB PUSH1 0x0 DUP4 DUP2 MSTORE PUSH1 0x20 ADD SWAP1 DUP2 MSTORE PUSH1 0x20 ADD PUSH1 0x0 KECCAK256 SWAP1 POP DUP1 PUSH1 0x40 MLOAD DUP1 PUSH1 0x80 ADD PUSH1 0x40 MSTORE SWAP1 DUP2 PUSH1 0x0 DUP3 ADD SLOAD DUP2 MSTORE PUSH1 0x20 ADD PUSH1 0x1 DUP3 ADD PUSH1 0x0 SWAP1 SLOAD SWAP1 PUSH2 0x100 EXP SWAP1 DIV PUSH20 0xFFFFFFFFFFFFFFFFFFFFFFFFFFFFFFFFFFFFFFFF AND PUSH20 0xFFFFFFFFFFFFFFFFFFFFFFFFFFFFFFFFFFFFFFFF AND PUSH20 0xFFFFFFFFFFFFFFFFFFFFFFFFFFFFFFFFFFFFFFFF AND DUP2 MSTORE PUSH1 0x20 ADD PUSH1 0x2 DUP3 ADD PUSH1 0x0 SWAP1 SLOAD SWAP1 PUSH2 0x100 EXP SWAP1 DIV PUSH20 0xFFFFFFFFFFFFFFFFFFFFFFFFFFFFFFFFFFFFFFFF AND PUSH20 0xFFFFFFFFFFFFFFFFFFFFFFFFFFFFFFFFFFFFFFFF AND PUSH20 0xFFFFFFFFFFFFFFFFFFFFFFFFFFFFFFFFFFFFFFFF AND DUP2 MSTORE PUSH1 0x20 ADD PUSH1 0x3 DUP3 ADD SLOAD DUP2 MSTORE POP POP DUP5 DUP7 DUP2 MLOAD DUP2 LT PUSH2 0xFD3 JUMPI PUSH2 0xFD2 PUSH2 0x3146 JUMP JUMPDEST JUMPDEST PUSH1 0x20 MUL PUSH1 0x20 ADD ADD DUP2 SWAP1 MSTORE POP PUSH1 0x1 DUP6 PUSH2 0xFEB SWAP2 SWAP1 PUSH2 0x3112 JUMP JUMPDEST SWAP5 POP POP POP JUMPDEST DUP1 DUP1 PUSH1 0x1 ADD SWAP2 POP POP PUSH2 0xDD6 JUMP JUMPDEST POP DUP1 SWAP5 POP POP POP POP POP SWAP1 JUMP JUMPDEST PUSH1 0x0 PUSH2 0x1013 DUP3 PUSH2 0x16D2 JUMP JUMPDEST SWAP1 POP SWAP2 SWAP1 POP JUMP JUMPDEST PUSH1 0x7 PUSH1 0x0 SWAP1 SLOAD SWAP1 PUSH2 0x100 EXP SWAP1 DIV PUSH20 0xFFFFFFFFFFFFFFFFFFFFFFFFFFFFFFFFFFFFFFFF AND DUP2 JUMP JUMPDEST PUSH1 0x0 DUP1 PUSH20 0xFFFFFFFFFFFFFFFFFFFFFFFFFFFFFFFFFFFFFFFF AND DUP3 PUSH20 0xFFFFFFFFFFFFFFFFFFFFFFFFFFFFFFFFFFFFFFFF AND SUB PUSH2 0x10B3 JUMPI PUSH1 0x0 PUSH1 0x40 MLOAD PUSH32 0x89C62B6400000000000000000000000000000000000000000000000000000000 DUP2 MSTORE PUSH1 0x4 ADD PUSH2 0x10AA SWAP2 SWAP1 PUSH2 0x28F8 JUMP JUMPDEST PUSH1 0x40 MLOAD DUP1 SWAP2 SUB SWAP1 REVERT JUMPDEST PUSH1 0x3 PUSH1 0x0 DUP4 PUSH20 0xFFFFFFFFFFFFFFFFFFFFFFFFFFFFFFFFFFFFFFFF AND PUSH20 0xFFFFFFFFFFFFFFFFFFFFFFFFFFFFFFFFFFFFFFFF AND DUP2 MSTORE PUSH1 0x20 ADD SWAP1 DUP2 MSTORE PUSH1 0x20 ADD PUSH1 0x0 KECCAK256 SLOAD SWAP1 POP SWAP2 SWAP1 POP JUMP JUMPDEST PUSH1 0x0 DUP1 DUP3 GT PUSH2 0x113E JUMPI PUSH1 0x40 MLOAD PUSH32 0x8C379A000000000000000000000000000000000000000000000000000000000 DUP2 MSTORE PUSH1 0x4 ADD PUSH2 0x1135 SWAP1 PUSH2 0x3209 JUMP JUMPDEST PUSH1 0x40 MLOAD DUP1 SWAP2 SUB SWAP1 REVERT JUMPDEST PUSH1 0x9 PUSH1 0x0 DUP2 SLOAD DUP1 SWAP3 SWAP2 SWAP1 PUSH2 0x1151 SWAP1 PUSH2 0x3175 JUMP JUMPDEST SWAP2 SWAP1 POP SSTORE POP PUSH1 0x0 PUSH1 0x9 SLOAD SWAP1 POP PUSH2 0x1167 CALLER DUP3 PUSH2 0x19CB JUMP JUMPDEST PUSH2 0x1171 DUP2 DUP6 PUSH2 0x19E9 JUMP JUMPDEST PUSH2 0x117B DUP2 DUP5 PUSH2 0x87D JUMP JUMPDEST DUP1 SWAP2 POP POP SWAP3 SWAP2 POP POP JUMP JUMPDEST PUSH1 0x60 PUSH1 0x1 DUP1 SLOAD PUSH2 0x1194 SWAP1 PUSH2 0x307B JUMP JUMPDEST DUP1 PUSH1 0x1F ADD PUSH1 0x20 DUP1 SWAP2 DIV MUL PUSH1 0x20 ADD PUSH1 0x40 MLOAD SWAP1 DUP2 ADD PUSH1 0x40 MSTORE DUP1 SWAP3 SWAP2 SWAP1 DUP2 DUP2 MSTORE PUSH1 0x20 ADD DUP3 DUP1 SLOAD PUSH2 0x11C0 SWAP1 PUSH2 0x307B JUMP JUMPDEST DUP1 ISZERO PUSH2 0x120D JUMPI DUP1 PUSH1 0x1F LT PUSH2 0x11E2 JUMPI PUSH2 0x100 DUP1 DUP4 SLOAD DIV MUL DUP4 MSTORE SWAP2 PUSH1 0x20 ADD SWAP2 PUSH2 0x120D JUMP JUMPDEST DUP3 ADD SWAP2 SWAP1 PUSH1 0x0 MSTORE PUSH1 0x20 PUSH1 0x0 KECCAK256 SWAP1 JUMPDEST DUP2 SLOAD DUP2 MSTORE SWAP1 PUSH1 0x1 ADD SWAP1 PUSH1 0x20 ADD DUP1 DUP4 GT PUSH2 0x11F0 JUMPI DUP3 SWAP1 SUB PUSH1 0x1F AND DUP3 ADD SWAP2 JUMPDEST POP POP POP POP POP SWAP1 POP SWAP1 JUMP JUMPDEST PUSH1 0x0 PUSH1 0xB PUSH1 0x0 DUP4 DUP2 MSTORE PUSH1 0x20 ADD SWAP1 DUP2 MSTORE PUSH1 0x20 ADD PUSH1 0x0 KECCAK256 SWAP1 POP PUSH1 0x0 DUP2 PUSH1 0x3 ADD SLOAD SWAP1 POP PUSH1 0x0 DUP3 PUSH1 0x2 ADD PUSH1 0x0 SWAP1 SLOAD SWAP1 PUSH2 0x100 EXP SWAP1 DIV PUSH20 0xFFFFFFFFFFFFFFFFFFFFFFFFFFFFFFFFFFFFFFFF AND SWAP1 POP DUP2 CALLVALUE EQ PUSH2 0x12A2 JUMPI PUSH1 0x40 MLOAD PUSH32 0x8C379A000000000000000000000000000000000000000000000000000000000 DUP2 MSTORE PUSH1 0x4 ADD PUSH2 0x1299 SWAP1 PUSH2 0x329B JUMP JUMPDEST PUSH1 0x40 MLOAD DUP1 SWAP2 SUB SWAP1 REVERT JUMPDEST CALLER DUP4 PUSH1 0x2 ADD PUSH1 0x0 PUSH2 0x100 EXP DUP2 SLOAD DUP2 PUSH20 0xFFFFFFFFFFFFFFFFFFFFFFFFFFFFFFFFFFFFFFFF MUL NOT AND SWAP1 DUP4 PUSH20 0xFFFFFFFFFFFFFFFFFFFFFFFFFFFFFFFFFFFFFFFF AND MUL OR SWAP1 SSTORE POP PUSH1 0xA PUSH1 0x0 DUP2 SLOAD DUP1 SWAP3 SWAP2 SWAP1 PUSH2 0x12F8 SWAP1 PUSH2 0x3175 JUMP JUMPDEST SWAP2 SWAP1 POP SSTORE POP PUSH2 0x132C DUP4 PUSH1 0x1 ADD PUSH1 0x0 SWAP1 SLOAD SWAP1 PUSH2 0x100 EXP SWAP1 DIV PUSH20 0xFFFFFFFFFFFFFFFFFFFFFFFFFFFFFFFFFFFFFFFF AND CALLER DUP7 PUSH2 0x1A45 JUMP JUMPDEST PUSH1 0x0 PUSH1 0x64 PUSH1 0x8 SLOAD DUP5 PUSH2 0x133E SWAP2 SWAP1 PUSH2 0x32BB JUMP JUMPDEST PUSH2 0x1348 SWAP2 SWAP1 PUSH2 0x332C JUMP JUMPDEST SWAP1 POP PUSH1 0x7 PUSH1 0x0 SWAP1 SLOAD SWAP1 PUSH2 0x100 EXP SWAP1 DIV PUSH20 0xFFFFFFFFFFFFFFFFFFFFFFFFFFFFFFFFFFFFFFFF AND PUSH20 0xFFFFFFFFFFFFFFFFFFFFFFFFFFFFFFFFFFFFFFFF AND PUSH2 0x8FC DUP3 SWAP1 DUP2 ISZERO MUL SWAP1 PUSH1 0x40 MLOAD PUSH1 0x0 PUSH1 0x40 MLOAD DUP1 DUP4 SUB DUP2 DUP6 DUP9 DUP9 CALL SWAP4 POP POP POP POP ISZERO DUP1 ISZERO PUSH2 0x13B2 JUMPI RETURNDATASIZE PUSH1 0x0 DUP1 RETURNDATACOPY RETURNDATASIZE PUSH1 0x0 REVERT JUMPDEST POP DUP2 PUSH20 0xFFFFFFFFFFFFFFFFFFFFFFFFFFFFFFFFFFFFFFFF AND PUSH2 0x8FC DUP3 CALLVALUE PUSH2 0x13D9 SWAP2 SWAP1 PUSH2 0x335D JUMP JUMPDEST SWAP1 DUP2 ISZERO MUL SWAP1 PUSH1 0x40 MLOAD PUSH1 0x0 PUSH1 0x40 MLOAD DUP1 DUP4 SUB DUP2 DUP6 DUP9 DUP9 CALL SWAP4 POP POP POP POP ISZERO DUP1 ISZERO PUSH2 0x1404 JUMPI RETURNDATASIZE PUSH1 0x0 DUP1 RETURNDATACOPY RETURNDATASIZE PUSH1 0x0 REVERT JUMPDEST POP POP POP POP POP POP JUMP JUMPDEST PUSH2 0x141E PUSH2 0x1417 PUSH2 0x1797 JUMP JUMPDEST DUP4 DUP4 PUSH2 0x1BB2 JUMP JUMPDEST POP POP JUMP JUMPDEST PUSH1 0x0 PUSH1 0x8 SLOAD SWAP1 POP SWAP1 JUMP JUMPDEST PUSH2 0x1437 DUP5 DUP5 DUP5 PUSH2 0x986 JUMP JUMPDEST PUSH2 0x1443 DUP5 DUP5 DUP5 DUP5 PUSH2 0x1D21 JUMP JUMPDEST POP POP POP POP JUMP JUMPDEST PUSH1 0x60 PUSH2 0x1454 DUP3 PUSH2 0x16D2 JUMP JUMPDEST POP PUSH1 0x0 PUSH1 0x6 PUSH1 0x0 DUP5 DUP2 MSTORE PUSH1 0x20 ADD SWAP1 DUP2 MSTORE PUSH1 0x20 ADD PUSH1 0x0 KECCAK256 DUP1 SLOAD PUSH2 0x1475 SWAP1 PUSH2 0x307B JUMP JUMPDEST DUP1 PUSH1 0x1F ADD PUSH1 0x20 DUP1 SWAP2 DIV MUL PUSH1 0x20 ADD PUSH1 0x40 MLOAD SWAP1 DUP2 ADD PUSH1 0x40 MSTORE DUP1 SWAP3 SWAP2 SWAP1 DUP2 DUP2 MSTORE PUSH1 0x20 ADD DUP3 DUP1 SLOAD PUSH2 0x14A1 SWAP1 PUSH2 0x307B JUMP JUMPDEST DUP1 ISZERO PUSH2 0x14EE JUMPI DUP1 PUSH1 0x1F LT PUSH2 0x14C3 JUMPI PUSH2 0x100 DUP1 DUP4 SLOAD DIV MUL DUP4 MSTORE SWAP2 PUSH1 0x20 ADD SWAP2 PUSH2 0x14EE JUMP JUMPDEST DUP3 ADD SWAP2 SWAP1 PUSH1 0x0 MSTORE PUSH1 0x20 PUSH1 0x0 KECCAK256 SWAP1 JUMPDEST DUP2 SLOAD DUP2 MSTORE SWAP1 PUSH1 0x1 ADD SWAP1 PUSH1 0x20 ADD DUP1 DUP4 GT PUSH2 0x14D1 JUMPI DUP3 SWAP1 SUB PUSH1 0x1F AND DUP3 ADD SWAP2 JUMPDEST POP POP POP POP POP SWAP1 POP PUSH1 0x0 PUSH2 0x14FF PUSH2 0x1ED8 JUMP JUMPDEST SWAP1 POP PUSH1 0x0 DUP2 MLOAD SUB PUSH2 0x1514 JUMPI DUP2 SWAP3 POP POP POP PUSH2 0x1557 JUMP JUMPDEST PUSH1 0x0 DUP3 MLOAD GT ISZERO PUSH2 0x1549 JUMPI DUP1 DUP3 PUSH1 0x40 MLOAD PUSH1 0x20 ADD PUSH2 0x1531 SWAP3 SWAP2 SWAP1 PUSH2 0x33CD JUMP JUMPDEST PUSH1 0x40 MLOAD PUSH1 0x20 DUP2 DUP4 SUB SUB DUP2 MSTORE SWAP1 PUSH1 0x40 MSTORE SWAP3 POP POP POP PUSH2 0x1557 JUMP JUMPDEST PUSH2 0x1552 DUP5 PUSH2 0x1EEF JUMP JUMPDEST SWAP3 POP POP POP JUMPDEST SWAP2 SWAP1 POP JUMP JUMPDEST PUSH1 0x0 PUSH1 0x5 PUSH1 0x0 DUP5 PUSH20 0xFFFFFFFFFFFFFFFFFFFFFFFFFFFFFFFFFFFFFFFF AND PUSH20 0xFFFFFFFFFFFFFFFFFFFFFFFFFFFFFFFFFFFFFFFF AND DUP2 MSTORE PUSH1 0x20 ADD SWAP1 DUP2 MSTORE PUSH1 0x20 ADD PUSH1 0x0 KECCAK256 PUSH1 0x0 DUP4 PUSH20 0xFFFFFFFFFFFFFFFFFFFFFFFFFFFFFFFFFFFFFFFF AND PUSH20 0xFFFFFFFFFFFFFFFFFFFFFFFFFFFFFFFFFFFFFFFF AND DUP2 MSTORE PUSH1 0x20 ADD SWAP1 DUP2 MSTORE PUSH1 0x20 ADD PUSH1 0x0 KECCAK256 PUSH1 0x0 SWAP1 SLOAD SWAP1 PUSH2 0x100 EXP SWAP1 DIV PUSH1 0xFF AND SWAP1 POP SWAP3 SWAP2 POP POP JUMP JUMPDEST PUSH1 0x0 PUSH32 0x80AC58CD00000000000000000000000000000000000000000000000000000000 PUSH28 0xFFFFFFFFFFFFFFFFFFFFFFFFFFFFFFFFFFFFFFFFFFFFFFFFFFFFFFFF NOT AND DUP3 PUSH28 0xFFFFFFFFFFFFFFFFFFFFFFFFFFFFFFFFFFFFFFFFFFFFFFFFFFFFFFFF NOT AND EQ DUP1 PUSH2 0x16BB JUMPI POP PUSH32 0x5B5E139F00000000000000000000000000000000000000000000000000000000 PUSH28 0xFFFFFFFFFFFFFFFFFFFFFFFFFFFFFFFFFFFFFFFFFFFFFFFFFFFFFFFF NOT AND DUP3 PUSH28 0xFFFFFFFFFFFFFFFFFFFFFFFFFFFFFFFFFFFFFFFFFFFFFFFFFFFFFFFF NOT AND EQ JUMPDEST DUP1 PUSH2 0x16CB JUMPI POP PUSH2 0x16CA DUP3 PUSH2 0x1F58 JUMP JUMPDEST JUMPDEST SWAP1 POP SWAP2 SWAP1 POP JUMP JUMPDEST PUSH1 0x0 DUP1 PUSH2 0x16DE DUP4 PUSH2 0x1FC2 JUMP JUMPDEST SWAP1 POP PUSH1 0x0 PUSH20 0xFFFFFFFFFFFFFFFFFFFFFFFFFFFFFFFFFFFFFFFF AND DUP2 PUSH20 0xFFFFFFFFFFFFFFFFFFFFFFFFFFFFFFFFFFFFFFFF AND SUB PUSH2 0x1751 JUMPI DUP3 PUSH1 0x40 MLOAD PUSH32 0x7E27328900000000000000000000000000000000000000000000000000000000 DUP2 MSTORE PUSH1 0x4 ADD PUSH2 0x1748 SWAP2 SWAP1 PUSH2 0x2922 JUMP JUMPDEST PUSH1 0x40 MLOAD DUP1 SWAP2 SUB SWAP1 REVERT JUMPDEST DUP1 SWAP2 POP POP SWAP2 SWAP1 POP JUMP JUMPDEST PUSH1 0x0 PUSH1 0x4 PUSH1 0x0 DUP4 DUP2 MSTORE PUSH1 0x20 ADD SWAP1 DUP2 MSTORE PUSH1 0x20 ADD PUSH1 0x0 KECCAK256 PUSH1 0x0 SWAP1 SLOAD SWAP1 PUSH2 0x100 EXP SWAP1 DIV PUSH20 0xFFFFFFFFFFFFFFFFFFFFFFFFFFFFFFFFFFFFFFFF AND SWAP1 POP SWAP2 SWAP1 POP JUMP JUMPDEST PUSH1 0x0 CALLER SWAP1 POP SWAP1 JUMP JUMPDEST PUSH2 0x17AC DUP4 DUP4 DUP4 PUSH1 0x1 PUSH2 0x1FFF JUMP JUMPDEST POP POP POP JUMP JUMPDEST PUSH1 0x0 DUP1 PUSH2 0x17BD DUP5 PUSH2 0x1FC2 JUMP JUMPDEST SWAP1 POP PUSH1 0x0 PUSH20 0xFFFFFFFFFFFFFFFFFFFFFFFFFFFFFFFFFFFFFFFF AND DUP4 PUSH20 0xFFFFFFFFFFFFFFFFFFFFFFFFFFFFFFFFFFFFFFFF AND EQ PUSH2 0x17FF JUMPI PUSH2 0x17FE DUP2 DUP5 DUP7 PUSH2 0x21C4 JUMP JUMPDEST JUMPDEST PUSH1 0x0 PUSH20 0xFFFFFFFFFFFFFFFFFFFFFFFFFFFFFFFFFFFFFFFF AND DUP2 PUSH20 0xFFFFFFFFFFFFFFFFFFFFFFFFFFFFFFFFFFFFFFFF AND EQ PUSH2 0x1890 JUMPI PUSH2 0x1841 PUSH1 0x0 DUP6 PUSH1 0x0 DUP1 PUSH2 0x1FFF JUMP JUMPDEST PUSH1 0x1 PUSH1 0x3 PUSH1 0x0 DUP4 PUSH20 0xFFFFFFFFFFFFFFFFFFFFFFFFFFFFFFFFFFFFFFFF AND PUSH20 0xFFFFFFFFFFFFFFFFFFFFFFFFFFFFFFFFFFFFFFFF AND DUP2 MSTORE PUSH1 0x20 ADD SWAP1 DUP2 MSTORE PUSH1 0x20 ADD PUSH1 0x0 KECCAK256 PUSH1 0x0 DUP3 DUP3 SLOAD SUB SWAP3 POP POP DUP2 SWAP1 SSTORE POP JUMPDEST PUSH1 0x0 PUSH20 0xFFFFFFFFFFFFFFFFFFFFFFFFFFFFFFFFFFFFFFFF AND DUP6 PUSH20 0xFFFFFFFFFFFFFFFFFFFFFFFFFFFFFFFFFFFFFFFF AND EQ PUSH2 0x1913 JUMPI PUSH1 0x1 PUSH1 0x3 PUSH1 0x0 DUP8 PUSH20 0xFFFFFFFFFFFFFFFFFFFFFFFFFFFFFFFFFFFFFFFF AND PUSH20 0xFFFFFFFFFFFFFFFFFFFFFFFFFFFFFFFFFFFFFFFF AND DUP2 MSTORE PUSH1 0x20 ADD SWAP1 DUP2 MSTORE PUSH1 0x20 ADD PUSH1 0x0 KECCAK256 PUSH1 0x0 DUP3 DUP3 SLOAD ADD SWAP3 POP POP DUP2 SWAP1 SSTORE POP JUMPDEST DUP5 PUSH1 0x2 PUSH1 0x0 DUP7 DUP2 MSTORE PUSH1 0x20 ADD SWAP1 DUP2 MSTORE PUSH1 0x20 ADD PUSH1 0x0 KECCAK256 PUSH1 0x0 PUSH2 0x100 EXP DUP2 SLOAD DUP2 PUSH20 0xFFFFFFFFFFFFFFFFFFFFFFFFFFFFFFFFFFFFFFFF MUL NOT AND SWAP1 DUP4 PUSH20 0xFFFFFFFFFFFFFFFFFFFFFFFFFFFFFFFFFFFFFFFF AND MUL OR SWAP1 SSTORE POP DUP4 DUP6 PUSH20 0xFFFFFFFFFFFFFFFFFFFFFFFFFFFFFFFFFFFFFFFF AND DUP3 PUSH20 0xFFFFFFFFFFFFFFFFFFFFFFFFFFFFFFFFFFFFFFFF AND PUSH32 0xDDF252AD1BE2C89B69C2B068FC378DAA952BA7F163C4A11628F55A4DF523B3EF PUSH1 0x40 MLOAD PUSH1 0x40 MLOAD DUP1 SWAP2 SUB SWAP1 LOG4 DUP1 SWAP2 POP POP SWAP4 SWAP3 POP POP POP JUMP JUMPDEST PUSH2 0x19E5 DUP3 DUP3 PUSH1 0x40 MLOAD DUP1 PUSH1 0x20 ADD PUSH1 0x40 MSTORE DUP1 PUSH1 0x0 DUP2 MSTORE POP PUSH2 0x2288 JUMP JUMPDEST POP POP JUMP JUMPDEST DUP1 PUSH1 0x6 PUSH1 0x0 DUP5 DUP2 MSTORE PUSH1 0x20 ADD SWAP1 DUP2 MSTORE PUSH1 0x20 ADD PUSH1 0x0 KECCAK256 SWAP1 DUP2 PUSH2 0x1A09 SWAP2 SWAP1 PUSH2 0x359D JUMP JUMPDEST POP PUSH32 0xF8E1A15ABA9398E019F0B49DF1A4FDE98EE17AE345CB5F6B5E2C27F5033E8CE7 DUP3 PUSH1 0x40 MLOAD PUSH2 0x1A39 SWAP2 SWAP1 PUSH2 0x2922 JUMP JUMPDEST PUSH1 0x40 MLOAD DUP1 SWAP2 SUB SWAP1 LOG1 POP POP JUMP JUMPDEST PUSH1 0x0 PUSH20 0xFFFFFFFFFFFFFFFFFFFFFFFFFFFFFFFFFFFFFFFF AND DUP3 PUSH20 0xFFFFFFFFFFFFFFFFFFFFFFFFFFFFFFFFFFFFFFFF AND SUB PUSH2 0x1AB7 JUMPI PUSH1 0x0 PUSH1 0x40 MLOAD PUSH32 0x64A0AE9200000000000000000000000000000000000000000000000000000000 DUP2 MSTORE PUSH1 0x4 ADD PUSH2 0x1AAE SWAP2 SWAP1 PUSH2 0x28F8 JUMP JUMPDEST PUSH1 0x40 MLOAD DUP1 SWAP2 SUB SWAP1 REVERT JUMPDEST PUSH1 0x0 PUSH2 0x1AC5 DUP4 DUP4 PUSH1 0x0 PUSH2 0x17B1 JUMP JUMPDEST SWAP1 POP PUSH1 0x0 PUSH20 0xFFFFFFFFFFFFFFFFFFFFFFFFFFFFFFFFFFFFFFFF AND DUP2 PUSH20 0xFFFFFFFFFFFFFFFFFFFFFFFFFFFFFFFFFFFFFFFF AND SUB PUSH2 0x1B38 JUMPI DUP2 PUSH1 0x40 MLOAD PUSH32 0x7E27328900000000000000000000000000000000000000000000000000000000 DUP2 MSTORE PUSH1 0x4 ADD PUSH2 0x1B2F SWAP2 SWAP1 PUSH2 0x2922 JUMP JUMPDEST PUSH1 0x40 MLOAD DUP1 SWAP2 SUB SWAP1 REVERT JUMPDEST DUP4 PUSH20 0xFFFFFFFFFFFFFFFFFFFFFFFFFFFFFFFFFFFFFFFF AND DUP2 PUSH20 0xFFFFFFFFFFFFFFFFFFFFFFFFFFFFFFFFFFFFFFFF AND EQ PUSH2 0x1BAC JUMPI DUP4 DUP3 DUP3 PUSH1 0x40 MLOAD PUSH32 0x64283D7B00000000000000000000000000000000000000000000000000000000 DUP2 MSTORE PUSH1 0x4 ADD PUSH2 0x1BA3 SWAP4 SWAP3 SWAP2 SWAP1 PUSH2 0x30AC JUMP JUMPDEST PUSH1 0x40 MLOAD DUP1 SWAP2 SUB SWAP1 REVERT JUMPDEST POP POP POP POP JUMP JUMPDEST PUSH1 0x0 PUSH20 0xFFFFFFFFFFFFFFFFFFFFFFFFFFFFFFFFFFFFFFFF AND DUP3 PUSH20 0xFFFFFFFFFFFFFFFFFFFFFFFFFFFFFFFFFFFFFFFF AND SUB PUSH2 0x1C23 JUMPI DUP2 PUSH1 0x40 MLOAD PUSH32 0x5B08BA1800000000000000000000000000000000000000000000000000000000 DUP2 MSTORE PUSH1 0x4 ADD PUSH2 0x1C1A SWAP2 SWAP1 PUSH2 0x28F8 JUMP JUMPDEST PUSH1 0x40 MLOAD DUP1 SWAP2 SUB SWAP1 REVERT JUMPDEST DUP1 PUSH1 0x5 PUSH1 0x0 DUP6 PUSH20 0xFFFFFFFFFFFFFFFFFFFFFFFFFFFFFFFFFFFFFFFF AND PUSH20 0xFFFFFFFFFFFFFFFFFFFFFFFFFFFFFFFFFFFFFFFF AND DUP2 MSTORE PUSH1 0x20 ADD SWAP1 DUP2 MSTORE PUSH1 0x20 ADD PUSH1 0x0 KECCAK256 PUSH1 0x0 DUP5 PUSH20 0xFFFFFFFFFFFFFFFFFFFFFFFFFFFFFFFFFFFFFFFF AND PUSH20 0xFFFFFFFFFFFFFFFFFFFFFFFFFFFFFFFFFFFFFFFF AND DUP2 MSTORE PUSH1 0x20 ADD SWAP1 DUP2 MSTORE PUSH1 0x20 ADD PUSH1 0x0 KECCAK256 PUSH1 0x0 PUSH2 0x100 EXP DUP2 SLOAD DUP2 PUSH1 0xFF MUL NOT AND SWAP1 DUP4 ISZERO ISZERO MUL OR SWAP1 SSTORE POP DUP2 PUSH20 0xFFFFFFFFFFFFFFFFFFFFFFFFFFFFFFFFFFFFFFFF AND DUP4 PUSH20 0xFFFFFFFFFFFFFFFFFFFFFFFFFFFFFFFFFFFFFFFF AND PUSH32 0x17307EAB39AB6107E8899845AD3D59BD9653F200F220920489CA2B5937696C31 DUP4 PUSH1 0x40 MLOAD PUSH2 0x1D14 SWAP2 SWAP1 PUSH2 0x27EA JUMP JUMPDEST PUSH1 0x40 MLOAD DUP1 SWAP2 SUB SWAP1 LOG3 POP POP POP JUMP JUMPDEST PUSH1 0x0 DUP4 PUSH20 0xFFFFFFFFFFFFFFFFFFFFFFFFFFFFFFFFFFFFFFFF AND EXTCODESIZE GT ISZERO PUSH2 0x1ED2 JUMPI DUP3 PUSH20 0xFFFFFFFFFFFFFFFFFFFFFFFFFFFFFFFFFFFFFFFF AND PUSH4 0x150B7A02 PUSH2 0x1D65 PUSH2 0x1797 JUMP JUMPDEST DUP7 DUP6 DUP6 PUSH1 0x40 MLOAD DUP6 PUSH4 0xFFFFFFFF AND PUSH1 0xE0 SHL DUP2 MSTORE PUSH1 0x4 ADD PUSH2 0x1D87 SWAP5 SWAP4 SWAP3 SWAP2 SWAP1 PUSH2 0x36C4 JUMP JUMPDEST PUSH1 0x20 PUSH1 0x40 MLOAD DUP1 DUP4 SUB DUP2 PUSH1 0x0 DUP8 GAS CALL SWAP3 POP POP POP DUP1 ISZERO PUSH2 0x1DC3 JUMPI POP PUSH1 0x40 MLOAD RETURNDATASIZE PUSH1 0x1F NOT PUSH1 0x1F DUP3 ADD AND DUP3 ADD DUP1 PUSH1 0x40 MSTORE POP DUP2 ADD SWAP1 PUSH2 0x1DC0 SWAP2 SWAP1 PUSH2 0x3725 JUMP JUMPDEST PUSH1 0x1 JUMPDEST PUSH2 0x1E47 JUMPI RETURNDATASIZE DUP1 PUSH1 0x0 DUP2 EQ PUSH2 0x1DF3 JUMPI PUSH1 0x40 MLOAD SWAP2 POP PUSH1 0x1F NOT PUSH1 0x3F RETURNDATASIZE ADD AND DUP3 ADD PUSH1 0x40 MSTORE RETURNDATASIZE DUP3 MSTORE RETURNDATASIZE PUSH1 0x0 PUSH1 0x20 DUP5 ADD RETURNDATACOPY PUSH2 0x1DF8 JUMP JUMPDEST PUSH1 0x60 SWAP2 POP JUMPDEST POP PUSH1 0x0 DUP2 MLOAD SUB PUSH2 0x1E3F JUMPI DUP4 PUSH1 0x40 MLOAD PUSH32 0x64A0AE9200000000000000000000000000000000000000000000000000000000 DUP2 MSTORE PUSH1 0x4 ADD PUSH2 0x1E36 SWAP2 SWAP1 PUSH2 0x28F8 JUMP JUMPDEST PUSH1 0x40 MLOAD DUP1 SWAP2 SUB SWAP1 REVERT JUMPDEST DUP1 MLOAD DUP2 PUSH1 0x20 ADD REVERT JUMPDEST PUSH4 0x150B7A02 PUSH1 0xE0 SHL PUSH28 0xFFFFFFFFFFFFFFFFFFFFFFFFFFFFFFFFFFFFFFFFFFFFFFFFFFFFFFFF NOT AND DUP2 PUSH28 0xFFFFFFFFFFFFFFFFFFFFFFFFFFFFFFFFFFFFFFFFFFFFFFFFFFFFFFFF NOT AND EQ PUSH2 0x1ED0 JUMPI DUP4 PUSH1 0x40 MLOAD PUSH32 0x64A0AE9200000000000000000000000000000000000000000000000000000000 DUP2 MSTORE PUSH1 0x4 ADD PUSH2 0x1EC7 SWAP2 SWAP1 PUSH2 0x28F8 JUMP JUMPDEST PUSH1 0x40 MLOAD DUP1 SWAP2 SUB SWAP1 REVERT JUMPDEST POP JUMPDEST POP POP POP POP JUMP JUMPDEST PUSH1 0x60 PUSH1 0x40 MLOAD DUP1 PUSH1 0x20 ADD PUSH1 0x40 MSTORE DUP1 PUSH1 0x0 DUP2 MSTORE POP SWAP1 POP SWAP1 JUMP JUMPDEST PUSH1 0x60 PUSH2 0x1EFA DUP3 PUSH2 0x16D2 JUMP JUMPDEST POP PUSH1 0x0 PUSH2 0x1F05 PUSH2 0x1ED8 JUMP JUMPDEST SWAP1 POP PUSH1 0x0 DUP2 MLOAD GT PUSH2 0x1F25 JUMPI PUSH1 0x40 MLOAD DUP1 PUSH1 0x20 ADD PUSH1 0x40 MSTORE DUP1 PUSH1 0x0 DUP2 MSTORE POP PUSH2 0x1F50 JUMP JUMPDEST DUP1 PUSH2 0x1F2F DUP5 PUSH2 0x22A4 JUMP JUMPDEST PUSH1 0x40 MLOAD PUSH1 0x20 ADD PUSH2 0x1F40 SWAP3 SWAP2 SWAP1 PUSH2 0x33CD JUMP JUMPDEST PUSH1 0x40 MLOAD PUSH1 0x20 DUP2 DUP4 SUB SUB DUP2 MSTORE SWAP1 PUSH1 0x40 MSTORE JUMPDEST SWAP2 POP POP SWAP2 SWAP1 POP JUMP JUMPDEST PUSH1 0x0 PUSH32 0x1FFC9A700000000000000000000000000000000000000000000000000000000 PUSH28 0xFFFFFFFFFFFFFFFFFFFFFFFFFFFFFFFFFFFFFFFFFFFFFFFFFFFFFFFF NOT AND DUP3 PUSH28 0xFFFFFFFFFFFFFFFFFFFFFFFFFFFFFFFFFFFFFFFFFFFFFFFFFFFFFFFF NOT AND EQ SWAP1 POP SWAP2 SWAP1 POP JUMP JUMPDEST PUSH1 0x0 PUSH1 0x2 PUSH1 0x0 DUP4 DUP2 MSTORE PUSH1 0x20 ADD SWAP1 DUP2 MSTORE PUSH1 0x20 ADD PUSH1 0x0 KECCAK256 PUSH1 0x0 SWAP1 SLOAD SWAP1 PUSH2 0x100 EXP SWAP1 DIV PUSH20 0xFFFFFFFFFFFFFFFFFFFFFFFFFFFFFFFFFFFFFFFF AND SWAP1 POP SWAP2 SWAP1 POP JUMP JUMPDEST DUP1 DUP1 PUSH2 0x2038 JUMPI POP PUSH1 0x0 PUSH20 0xFFFFFFFFFFFFFFFFFFFFFFFFFFFFFFFFFFFFFFFF AND DUP3 PUSH20 0xFFFFFFFFFFFFFFFFFFFFFFFFFFFFFFFFFFFFFFFF AND EQ ISZERO JUMPDEST ISZERO PUSH2 0x216C JUMPI PUSH1 0x0 PUSH2 0x2048 DUP5 PUSH2 0x16D2 JUMP JUMPDEST SWAP1 POP PUSH1 0x0 PUSH20 0xFFFFFFFFFFFFFFFFFFFFFFFFFFFFFFFFFFFFFFFF AND DUP4 PUSH20 0xFFFFFFFFFFFFFFFFFFFFFFFFFFFFFFFFFFFFFFFF AND EQ ISZERO DUP1 ISZERO PUSH2 0x20B3 JUMPI POP DUP3 PUSH20 0xFFFFFFFFFFFFFFFFFFFFFFFFFFFFFFFFFFFFFFFF AND DUP2 PUSH20 0xFFFFFFFFFFFFFFFFFFFFFFFFFFFFFFFFFFFFFFFF AND EQ ISZERO JUMPDEST DUP1 ISZERO PUSH2 0x20C6 JUMPI POP PUSH2 0x20C4 DUP2 DUP5 PUSH2 0x155C JUMP JUMPDEST ISZERO JUMPDEST ISZERO PUSH2 0x2108 JUMPI DUP3 PUSH1 0x40 MLOAD PUSH32 0xA9FBF51F00000000000000000000000000000000000000000000000000000000 DUP2 MSTORE PUSH1 0x4 ADD PUSH2 0x20FF SWAP2 SWAP1 PUSH2 0x28F8 JUMP JUMPDEST PUSH1 0x40 MLOAD DUP1 SWAP2 SUB SWAP1 REVERT JUMPDEST DUP2 ISZERO PUSH2 0x216A JUMPI DUP4 DUP6 PUSH20 0xFFFFFFFFFFFFFFFFFFFFFFFFFFFFFFFFFFFFFFFF AND DUP3 PUSH20 0xFFFFFFFFFFFFFFFFFFFFFFFFFFFFFFFFFFFFFFFF AND PUSH32 0x8C5BE1E5EBEC7D5BD14F71427D1E84F3DD0314C0F7B2291E5B200AC8C7C3B925 PUSH1 0x40 MLOAD PUSH1 0x40 MLOAD DUP1 SWAP2 SUB SWAP1 LOG4 JUMPDEST POP JUMPDEST DUP4 PUSH1 0x4 PUSH1 0x0 DUP6 DUP2 MSTORE PUSH1 0x20 ADD SWAP1 DUP2 MSTORE PUSH1 0x20 ADD PUSH1 0x0 KECCAK256 PUSH1 0x0 PUSH2 0x100 EXP DUP2 SLOAD DUP2 PUSH20 0xFFFFFFFFFFFFFFFFFFFFFFFFFFFFFFFFFFFFFFFF MUL NOT AND SWAP1 DUP4 PUSH20 0xFFFFFFFFFFFFFFFFFFFFFFFFFFFFFFFFFFFFFFFF AND MUL OR SWAP1 SSTORE POP POP POP POP POP JUMP JUMPDEST PUSH2 0x21CF DUP4 DUP4 DUP4 PUSH2 0x2372 JUMP JUMPDEST PUSH2 0x2283 JUMPI PUSH1 0x0 PUSH20 0xFFFFFFFFFFFFFFFFFFFFFFFFFFFFFFFFFFFFFFFF AND DUP4 PUSH20 0xFFFFFFFFFFFFFFFFFFFFFFFFFFFFFFFFFFFFFFFF AND SUB PUSH2 0x2244 JUMPI DUP1 PUSH1 0x40 MLOAD PUSH32 0x7E27328900000000000000000000000000000000000000000000000000000000 DUP2 MSTORE PUSH1 0x4 ADD PUSH2 0x223B SWAP2 SWAP1 PUSH2 0x2922 JUMP JUMPDEST PUSH1 0x40 MLOAD DUP1 SWAP2 SUB SWAP1 REVERT JUMPDEST DUP2 DUP2 PUSH1 0x40 MLOAD PUSH32 0x177E802F00000000000000000000000000000000000000000000000000000000 DUP2 MSTORE PUSH1 0x4 ADD PUSH2 0x227A SWAP3 SWAP2 SWAP1 PUSH2 0x3752 JUMP JUMPDEST PUSH1 0x40 MLOAD DUP1 SWAP2 SUB SWAP1 REVERT JUMPDEST POP POP POP JUMP JUMPDEST PUSH2 0x2292 DUP4 DUP4 PUSH2 0x2433 JUMP JUMPDEST PUSH2 0x229F PUSH1 0x0 DUP5 DUP5 DUP5 PUSH2 0x1D21 JUMP JUMPDEST POP POP POP JUMP JUMPDEST PUSH1 0x60 PUSH1 0x0 PUSH1 0x1 PUSH2 0x22B3 DUP5 PUSH2 0x252C JUMP JUMPDEST ADD SWAP1 POP PUSH1 0x0 DUP2 PUSH8 0xFFFFFFFFFFFFFFFF DUP2 GT ISZERO PUSH2 0x22D2 JUMPI PUSH2 0x22D1 PUSH2 0x2C63 JUMP JUMPDEST JUMPDEST PUSH1 0x40 MLOAD SWAP1 DUP1 DUP3 MSTORE DUP1 PUSH1 0x1F ADD PUSH1 0x1F NOT AND PUSH1 0x20 ADD DUP3 ADD PUSH1 0x40 MSTORE DUP1 ISZERO PUSH2 0x2304 JUMPI DUP2 PUSH1 0x20 ADD PUSH1 0x1 DUP3 MUL DUP1 CALLDATASIZE DUP4 CALLDATACOPY DUP1 DUP3 ADD SWAP2 POP POP SWAP1 POP JUMPDEST POP SWAP1 POP PUSH1 0x0 DUP3 PUSH1 0x20 ADD DUP3 ADD SWAP1 POP JUMPDEST PUSH1 0x1 ISZERO PUSH2 0x2367 JUMPI DUP1 DUP1 PUSH1 0x1 SWAP1 SUB SWAP2 POP POP PUSH32 0x3031323334353637383961626364656600000000000000000000000000000000 PUSH1 0xA DUP7 MOD BYTE DUP2 MSTORE8 PUSH1 0xA DUP6 DUP2 PUSH2 0x235B JUMPI PUSH2 0x235A PUSH2 0x32FD JUMP JUMPDEST JUMPDEST DIV SWAP5 POP PUSH1 0x0 DUP6 SUB PUSH2 0x2312 JUMPI JUMPDEST DUP2 SWAP4 POP POP POP POP SWAP2 SWAP1 POP JUMP JUMPDEST PUSH1 0x0 DUP1 PUSH20 0xFFFFFFFFFFFFFFFFFFFFFFFFFFFFFFFFFFFFFFFF AND DUP4 PUSH20 0xFFFFFFFFFFFFFFFFFFFFFFFFFFFFFFFFFFFFFFFF AND EQ ISZERO DUP1 ISZERO PUSH2 0x242A JUMPI POP DUP3 PUSH20 0xFFFFFFFFFFFFFFFFFFFFFFFFFFFFFFFFFFFFFFFF AND DUP5 PUSH20 0xFFFFFFFFFFFFFFFFFFFFFFFFFFFFFFFFFFFFFFFF AND EQ DUP1 PUSH2 0x23EB JUMPI POP PUSH2 0x23EA DUP5 DUP5 PUSH2 0x155C JUMP JUMPDEST JUMPDEST DUP1 PUSH2 0x2429 JUMPI POP DUP3 PUSH20 0xFFFFFFFFFFFFFFFFFFFFFFFFFFFFFFFFFFFFFFFF AND PUSH2 0x2411 DUP4 PUSH2 0x175A JUMP JUMPDEST PUSH20 0xFFFFFFFFFFFFFFFFFFFFFFFFFFFFFFFFFFFFFFFF AND EQ JUMPDEST JUMPDEST SWAP1 POP SWAP4 SWAP3 POP POP POP JUMP JUMPDEST PUSH1 0x0 PUSH20 0xFFFFFFFFFFFFFFFFFFFFFFFFFFFFFFFFFFFFFFFF AND DUP3 PUSH20 0xFFFFFFFFFFFFFFFFFFFFFFFFFFFFFFFFFFFFFFFF AND SUB PUSH2 0x24A5 JUMPI PUSH1 0x0 PUSH1 0x40 MLOAD PUSH32 0x64A0AE9200000000000000000000000000000000000000000000000000000000 DUP2 MSTORE PUSH1 0x4 ADD PUSH2 0x249C SWAP2 SWAP1 PUSH2 0x28F8 JUMP JUMPDEST PUSH1 0x40 MLOAD DUP1 SWAP2 SUB SWAP1 REVERT JUMPDEST PUSH1 0x0 PUSH2 0x24B3 DUP4 DUP4 PUSH1 0x0 PUSH2 0x17B1 JUMP JUMPDEST SWAP1 POP PUSH1 0x0 PUSH20 0xFFFFFFFFFFFFFFFFFFFFFFFFFFFFFFFFFFFFFFFF AND DUP2 PUSH20 0xFFFFFFFFFFFFFFFFFFFFFFFFFFFFFFFFFFFFFFFF AND EQ PUSH2 0x2527 JUMPI PUSH1 0x0 PUSH1 0x40 MLOAD PUSH32 0x73C6AC6E00000000000000000000000000000000000000000000000000000000 DUP2 MSTORE PUSH1 0x4 ADD PUSH2 0x251E SWAP2 SWAP1 PUSH2 0x28F8 JUMP JUMPDEST PUSH1 0x40 MLOAD DUP1 SWAP2 SUB SWAP1 REVERT JUMPDEST POP POP POP JUMP JUMPDEST PUSH1 0x0 DUP1 PUSH1 0x0 SWAP1 POP PUSH27 0x184F03E93FF9F4DAA797ED6E38ED64BF6A1F010000000000000000 DUP4 LT PUSH2 0x258A JUMPI PUSH27 0x184F03E93FF9F4DAA797ED6E38ED64BF6A1F010000000000000000 DUP4 DUP2 PUSH2 0x2580 JUMPI PUSH2 0x257F PUSH2 0x32FD JUMP JUMPDEST JUMPDEST DIV SWAP3 POP PUSH1 0x40 DUP2 ADD SWAP1 POP JUMPDEST PUSH14 0x4EE2D6D415B85ACEF8100000000 DUP4 LT PUSH2 0x25C7 JUMPI PUSH14 0x4EE2D6D415B85ACEF8100000000 DUP4 DUP2 PUSH2 0x25BD JUMPI PUSH2 0x25BC PUSH2 0x32FD JUMP JUMPDEST JUMPDEST DIV SWAP3 POP PUSH1 0x20 DUP2 ADD SWAP1 POP JUMPDEST PUSH7 0x2386F26FC10000 DUP4 LT PUSH2 0x25F6 JUMPI PUSH7 0x2386F26FC10000 DUP4 DUP2 PUSH2 0x25EC JUMPI PUSH2 0x25EB PUSH2 0x32FD JUMP JUMPDEST JUMPDEST DIV SWAP3 POP PUSH1 0x10 DUP2 ADD SWAP1 POP JUMPDEST PUSH4 0x5F5E100 DUP4 LT PUSH2 0x261F JUMPI PUSH4 0x5F5E100 DUP4 DUP2 PUSH2 0x2615 JUMPI PUSH2 0x2614 PUSH2 0x32FD JUMP JUMPDEST JUMPDEST DIV SWAP3 POP PUSH1 0x8 DUP2 ADD SWAP1 POP JUMPDEST PUSH2 0x2710 DUP4 LT PUSH2 0x2644 JUMPI PUSH2 0x2710 DUP4 DUP2 PUSH2 0x263A JUMPI PUSH2 0x2639 PUSH2 0x32FD JUMP JUMPDEST JUMPDEST DIV SWAP3 POP PUSH1 0x4 DUP2 ADD SWAP1 POP JUMPDEST PUSH1 0x64 DUP4 LT PUSH2 0x2667 JUMPI PUSH1 0x64 DUP4 DUP2 PUSH2 0x265D JUMPI PUSH2 0x265C PUSH2 0x32FD JUMP JUMPDEST JUMPDEST DIV SWAP3 POP PUSH1 0x2 DUP2 ADD SWAP1 POP JUMPDEST PUSH1 0xA DUP4 LT PUSH2 0x2676 JUMPI PUSH1 0x1 DUP2 ADD SWAP1 POP JUMPDEST DUP1 SWAP2 POP POP SWAP2 SWAP1 POP JUMP JUMPDEST PUSH1 0x40 MLOAD DUP1 PUSH1 0x80 ADD PUSH1 0x40 MSTORE DUP1 PUSH1 0x0 DUP2 MSTORE PUSH1 0x20 ADD PUSH1 0x0 PUSH20 0xFFFFFFFFFFFFFFFFFFFFFFFFFFFFFFFFFFFFFFFF AND DUP2 MSTORE PUSH1 0x20 ADD PUSH1 0x0 PUSH20 0xFFFFFFFFFFFFFFFFFFFFFFFFFFFFFFFFFFFFFFFF AND DUP2 MSTORE PUSH1 0x20 ADD PUSH1 0x0 DUP2 MSTORE POP SWAP1 JUMP JUMPDEST PUSH1 0x0 PUSH1 0x40 MLOAD SWAP1 POP SWAP1 JUMP JUMPDEST PUSH1 0x0 DUP1 REVERT JUMPDEST PUSH1 0x0 DUP1 REVERT JUMPDEST PUSH1 0x0 DUP2 SWAP1 POP SWAP2 SWAP1 POP JUMP JUMPDEST PUSH2 0x26FA DUP2 PUSH2 0x26E7 JUMP JUMPDEST DUP2 EQ PUSH2 0x2705 JUMPI PUSH1 0x0 DUP1 REVERT JUMPDEST POP JUMP JUMPDEST PUSH1 0x0 DUP2 CALLDATALOAD SWAP1 POP PUSH2 0x2717 DUP2 PUSH2 0x26F1 JUMP JUMPDEST SWAP3 SWAP2 POP POP JUMP JUMPDEST PUSH1 0x0 PUSH1 0x20 DUP3 DUP5 SUB SLT ISZERO PUSH2 0x2733 JUMPI PUSH2 0x2732 PUSH2 0x26DD JUMP JUMPDEST JUMPDEST PUSH1 0x0 PUSH2 0x2741 DUP5 DUP3 DUP6 ADD PUSH2 0x2708 JUMP JUMPDEST SWAP2 POP POP SWAP3 SWAP2 POP POP JUMP JUMPDEST PUSH1 0x0 PUSH32 0xFFFFFFFF00000000000000000000000000000000000000000000000000000000 DUP3 AND SWAP1 POP SWAP2 SWAP1 POP JUMP JUMPDEST PUSH2 0x277F DUP2 PUSH2 0x274A JUMP JUMPDEST DUP2 EQ PUSH2 0x278A JUMPI PUSH1 0x0 DUP1 REVERT JUMPDEST POP JUMP JUMPDEST PUSH1 0x0 DUP2 CALLDATALOAD SWAP1 POP PUSH2 0x279C DUP2 PUSH2 0x2776 JUMP JUMPDEST SWAP3 SWAP2 POP POP JUMP JUMPDEST PUSH1 0x0 PUSH1 0x20 DUP3 DUP5 SUB SLT ISZERO PUSH2 0x27B8 JUMPI PUSH2 0x27B7 PUSH2 0x26DD JUMP JUMPDEST JUMPDEST PUSH1 0x0 PUSH2 0x27C6 DUP5 DUP3 DUP6 ADD PUSH2 0x278D JUMP JUMPDEST SWAP2 POP POP SWAP3 SWAP2 POP POP JUMP JUMPDEST PUSH1 0x0 DUP2 ISZERO ISZERO SWAP1 POP SWAP2 SWAP1 POP JUMP JUMPDEST PUSH2 0x27E4 DUP2 PUSH2 0x27CF JUMP JUMPDEST DUP3 MSTORE POP POP JUMP JUMPDEST PUSH1 0x0 PUSH1 0x20 DUP3 ADD SWAP1 POP PUSH2 0x27FF PUSH1 0x0 DUP4 ADD DUP5 PUSH2 0x27DB JUMP JUMPDEST SWAP3 SWAP2 POP POP JUMP JUMPDEST PUSH1 0x0 DUP2 MLOAD SWAP1 POP SWAP2 SWAP1 POP JUMP JUMPDEST PUSH1 0x0 DUP3 DUP3 MSTORE PUSH1 0x20 DUP3 ADD SWAP1 POP SWAP3 SWAP2 POP POP JUMP JUMPDEST PUSH1 0x0 JUMPDEST DUP4 DUP2 LT ISZERO PUSH2 0x283F JUMPI DUP1 DUP3 ADD MLOAD DUP2 DUP5 ADD MSTORE PUSH1 0x20 DUP2 ADD SWAP1 POP PUSH2 0x2824 JUMP JUMPDEST PUSH1 0x0 DUP5 DUP5 ADD MSTORE POP POP POP POP JUMP JUMPDEST PUSH1 0x0 PUSH1 0x1F NOT PUSH1 0x1F DUP4 ADD AND SWAP1 POP SWAP2 SWAP1 POP JUMP JUMPDEST PUSH1 0x0 PUSH2 0x2867 DUP3 PUSH2 0x2805 JUMP JUMPDEST PUSH2 0x2871 DUP2 DUP6 PUSH2 0x2810 JUMP JUMPDEST SWAP4 POP PUSH2 0x2881 DUP2 DUP6 PUSH1 0x20 DUP7 ADD PUSH2 0x2821 JUMP JUMPDEST PUSH2 0x288A DUP2 PUSH2 0x284B JUMP JUMPDEST DUP5 ADD SWAP2 POP POP SWAP3 SWAP2 POP POP JUMP JUMPDEST PUSH1 0x0 PUSH1 0x20 DUP3 ADD SWAP1 POP DUP2 DUP2 SUB PUSH1 0x0 DUP4 ADD MSTORE PUSH2 0x28AF DUP2 DUP5 PUSH2 0x285C JUMP JUMPDEST SWAP1 POP SWAP3 SWAP2 POP POP JUMP JUMPDEST PUSH1 0x0 PUSH20 0xFFFFFFFFFFFFFFFFFFFFFFFFFFFFFFFFFFFFFFFF DUP3 AND SWAP1 POP SWAP2 SWAP1 POP JUMP JUMPDEST PUSH1 0x0 PUSH2 0x28E2 DUP3 PUSH2 0x28B7 JUMP JUMPDEST SWAP1 POP SWAP2 SWAP1 POP JUMP JUMPDEST PUSH2 0x28F2 DUP2 PUSH2 0x28D7 JUMP JUMPDEST DUP3 MSTORE POP POP JUMP JUMPDEST PUSH1 0x0 PUSH1 0x20 DUP3 ADD SWAP1 POP PUSH2 0x290D PUSH1 0x0 DUP4 ADD DUP5 PUSH2 0x28E9 JUMP JUMPDEST SWAP3 SWAP2 POP POP JUMP JUMPDEST PUSH2 0x291C DUP2 PUSH2 0x26E7 JUMP JUMPDEST DUP3 MSTORE POP POP JUMP JUMPDEST PUSH1 0x0 PUSH1 0x20 DUP3 ADD SWAP1 POP PUSH2 0x2937 PUSH1 0x0 DUP4 ADD DUP5 PUSH2 0x2913 JUMP JUMPDEST SWAP3 SWAP2 POP POP JUMP JUMPDEST PUSH2 0x2946 DUP2 PUSH2 0x28D7 JUMP JUMPDEST DUP2 EQ PUSH2 0x2951 JUMPI PUSH1 0x0 DUP1 REVERT JUMPDEST POP JUMP JUMPDEST PUSH1 0x0 DUP2 CALLDATALOAD SWAP1 POP PUSH2 0x2963 DUP2 PUSH2 0x293D JUMP JUMPDEST SWAP3 SWAP2 POP POP JUMP JUMPDEST PUSH1 0x0 DUP1 PUSH1 0x40 DUP4 DUP6 SUB SLT ISZERO PUSH2 0x2980 JUMPI PUSH2 0x297F PUSH2 0x26DD JUMP JUMPDEST JUMPDEST PUSH1 0x0 PUSH2 0x298E DUP6 DUP3 DUP7 ADD PUSH2 0x2954 JUMP JUMPDEST SWAP3 POP POP PUSH1 0x20 PUSH2 0x299F DUP6 DUP3 DUP7 ADD PUSH2 0x2708 JUMP JUMPDEST SWAP2 POP POP SWAP3 POP SWAP3 SWAP1 POP JUMP JUMPDEST PUSH2 0x29B2 DUP2 PUSH2 0x26E7 JUMP JUMPDEST DUP3 MSTORE POP POP JUMP JUMPDEST PUSH1 0x0 PUSH2 0x29C3 DUP3 PUSH2 0x28B7 JUMP JUMPDEST SWAP1 POP SWAP2 SWAP1 POP JUMP JUMPDEST PUSH2 0x29D3 DUP2 PUSH2 0x29B8 JUMP JUMPDEST DUP3 MSTORE POP POP JUMP JUMPDEST PUSH1 0x80 DUP3 ADD PUSH1 0x0 DUP3 ADD MLOAD PUSH2 0x29EF PUSH1 0x0 DUP6 ADD DUP3 PUSH2 0x29A9 JUMP JUMPDEST POP PUSH1 0x20 DUP3 ADD MLOAD PUSH2 0x2A02 PUSH1 0x20 DUP6 ADD DUP3 PUSH2 0x29CA JUMP JUMPDEST POP PUSH1 0x40 DUP3 ADD MLOAD PUSH2 0x2A15 PUSH1 0x40 DUP6 ADD DUP3 PUSH2 0x29CA JUMP JUMPDEST POP PUSH1 0x60 DUP3 ADD MLOAD PUSH2 0x2A28 PUSH1 0x60 DUP6 ADD DUP3 PUSH2 0x29A9 JUMP JUMPDEST POP POP POP POP JUMP JUMPDEST PUSH1 0x0 PUSH1 0x80 DUP3 ADD SWAP1 POP PUSH2 0x2A43 PUSH1 0x0 DUP4 ADD DUP5 PUSH2 0x29D9 JUMP JUMPDEST SWAP3 SWAP2 POP POP JUMP JUMPDEST PUSH1 0x0 DUP1 PUSH1 0x40 DUP4 DUP6 SUB SLT ISZERO PUSH2 0x2A60 JUMPI PUSH2 0x2A5F PUSH2 0x26DD JUMP JUMPDEST JUMPDEST PUSH1 0x0 PUSH2 0x2A6E DUP6 DUP3 DUP7 ADD PUSH2 0x2708 JUMP JUMPDEST SWAP3 POP POP PUSH1 0x20 PUSH2 0x2A7F DUP6 DUP3 DUP7 ADD PUSH2 0x2708 JUMP JUMPDEST SWAP2 POP POP SWAP3 POP SWAP3 SWAP1 POP JUMP JUMPDEST PUSH1 0x0 DUP1 PUSH1 0x0 PUSH1 0x60 DUP5 DUP7 SUB SLT ISZERO PUSH2 0x2AA2 JUMPI PUSH2 0x2AA1 PUSH2 0x26DD JUMP JUMPDEST JUMPDEST PUSH1 0x0 PUSH2 0x2AB0 DUP7 DUP3 DUP8 ADD PUSH2 0x2954 JUMP JUMPDEST SWAP4 POP POP PUSH1 0x20 PUSH2 0x2AC1 DUP7 DUP3 DUP8 ADD PUSH2 0x2954 JUMP JUMPDEST SWAP3 POP POP PUSH1 0x40 PUSH2 0x2AD2 DUP7 DUP3 DUP8 ADD PUSH2 0x2708 JUMP JUMPDEST SWAP2 POP POP SWAP3 POP SWAP3 POP SWAP3 JUMP JUMPDEST PUSH1 0x0 DUP2 MLOAD SWAP1 POP SWAP2 SWAP1 POP JUMP JUMPDEST PUSH1 0x0 DUP3 DUP3 MSTORE PUSH1 0x20 DUP3 ADD SWAP1 POP SWAP3 SWAP2 POP POP JUMP JUMPDEST PUSH1 0x0 DUP2 SWAP1 POP PUSH1 0x20 DUP3 ADD SWAP1 POP SWAP2 SWAP1 POP JUMP JUMPDEST PUSH1 0x80 DUP3 ADD PUSH1 0x0 DUP3 ADD MLOAD PUSH2 0x2B1E PUSH1 0x0 DUP6 ADD DUP3 PUSH2 0x29A9 JUMP JUMPDEST POP PUSH1 0x20 DUP3 ADD MLOAD PUSH2 0x2B31 PUSH1 0x20 DUP6 ADD DUP3 PUSH2 0x29CA JUMP JUMPDEST POP PUSH1 0x40 DUP3 ADD MLOAD PUSH2 0x2B44 PUSH1 0x40 DUP6 ADD DUP3 PUSH2 0x29CA JUMP JUMPDEST POP PUSH1 0x60 DUP3 ADD MLOAD PUSH2 0x2B57 PUSH1 0x60 DUP6 ADD DUP3 PUSH2 0x29A9 JUMP JUMPDEST POP POP POP POP JUMP JUMPDEST PUSH1 0x0 PUSH2 0x2B69 DUP4 DUP4 PUSH2 0x2B08 JUMP JUMPDEST PUSH1 0x80 DUP4 ADD SWAP1 POP SWAP3 SWAP2 POP POP JUMP JUMPDEST PUSH1 0x0 PUSH1 0x20 DUP3 ADD SWAP1 POP SWAP2 SWAP1 POP JUMP JUMPDEST PUSH1 0x0 PUSH2 0x2B8D DUP3 PUSH2 0x2ADC JUMP JUMPDEST PUSH2 0x2B97 DUP2 DUP6 PUSH2 0x2AE7 JUMP JUMPDEST SWAP4 POP PUSH2 0x2BA2 DUP4 PUSH2 0x2AF8 JUMP JUMPDEST DUP1 PUSH1 0x0 JUMPDEST DUP4 DUP2 LT ISZERO PUSH2 0x2BD3 JUMPI DUP2 MLOAD PUSH2 0x2BBA DUP9 DUP3 PUSH2 0x2B5D JUMP JUMPDEST SWAP8 POP PUSH2 0x2BC5 DUP4 PUSH2 0x2B75 JUMP JUMPDEST SWAP3 POP POP PUSH1 0x1 DUP2 ADD SWAP1 POP PUSH2 0x2BA6 JUMP JUMPDEST POP DUP6 SWAP4 POP POP POP POP SWAP3 SWAP2 POP POP JUMP JUMPDEST PUSH1 0x0 PUSH1 0x20 DUP3 ADD SWAP1 POP DUP2 DUP2 SUB PUSH1 0x0 DUP4 ADD MSTORE PUSH2 0x2BFA DUP2 DUP5 PUSH2 0x2B82 JUMP JUMPDEST SWAP1 POP SWAP3 SWAP2 POP POP JUMP JUMPDEST PUSH2 0x2C0B DUP2 PUSH2 0x29B8 JUMP JUMPDEST DUP3 MSTORE POP POP JUMP JUMPDEST PUSH1 0x0 PUSH1 0x20 DUP3 ADD SWAP1 POP PUSH2 0x2C26 PUSH1 0x0 DUP4 ADD DUP5 PUSH2 0x2C02 JUMP JUMPDEST SWAP3 SWAP2 POP POP JUMP JUMPDEST PUSH1 0x0 PUSH1 0x20 DUP3 DUP5 SUB SLT ISZERO PUSH2 0x2C42 JUMPI PUSH2 0x2C41 PUSH2 0x26DD JUMP JUMPDEST JUMPDEST PUSH1 0x0 PUSH2 0x2C50 DUP5 DUP3 DUP6 ADD PUSH2 0x2954 JUMP JUMPDEST SWAP2 POP POP SWAP3 SWAP2 POP POP JUMP JUMPDEST PUSH1 0x0 DUP1 REVERT JUMPDEST PUSH1 0x0 DUP1 REVERT JUMPDEST PUSH32 0x4E487B7100000000000000000000000000000000000000000000000000000000 PUSH1 0x0 MSTORE PUSH1 0x41 PUSH1 0x4 MSTORE PUSH1 0x24 PUSH1 0x0 REVERT JUMPDEST PUSH2 0x2C9B DUP3 PUSH2 0x284B JUMP JUMPDEST DUP2 ADD DUP2 DUP2 LT PUSH8 0xFFFFFFFFFFFFFFFF DUP3 GT OR ISZERO PUSH2 0x2CBA JUMPI PUSH2 0x2CB9 PUSH2 0x2C63 JUMP JUMPDEST JUMPDEST DUP1 PUSH1 0x40 MSTORE POP POP POP JUMP JUMPDEST PUSH1 0x0 PUSH2 0x2CCD PUSH2 0x26D3 JUMP JUMPDEST SWAP1 POP PUSH2 0x2CD9 DUP3 DUP3 PUSH2 0x2C92 JUMP JUMPDEST SWAP2 SWAP1 POP JUMP JUMPDEST PUSH1 0x0 PUSH8 0xFFFFFFFFFFFFFFFF DUP3 GT ISZERO PUSH2 0x2CF9 JUMPI PUSH2 0x2CF8 PUSH2 0x2C63 JUMP JUMPDEST JUMPDEST PUSH2 0x2D02 DUP3 PUSH2 0x284B JUMP JUMPDEST SWAP1 POP PUSH1 0x20 DUP2 ADD SWAP1 POP SWAP2 SWAP1 POP JUMP JUMPDEST DUP3 DUP2 DUP4 CALLDATACOPY PUSH1 0x0 DUP4 DUP4 ADD MSTORE POP POP POP JUMP JUMPDEST PUSH1 0x0 PUSH2 0x2D31 PUSH2 0x2D2C DUP5 PUSH2 0x2CDE JUMP JUMPDEST PUSH2 0x2CC3 JUMP JUMPDEST SWAP1 POP DUP3 DUP2 MSTORE PUSH1 0x20 DUP2 ADD DUP5 DUP5 DUP5 ADD GT ISZERO PUSH2 0x2D4D JUMPI PUSH2 0x2D4C PUSH2 0x2C5E JUMP JUMPDEST JUMPDEST PUSH2 0x2D58 DUP5 DUP3 DUP6 PUSH2 0x2D0F JUMP JUMPDEST POP SWAP4 SWAP3 POP POP POP JUMP JUMPDEST PUSH1 0x0 DUP3 PUSH1 0x1F DUP4 ADD SLT PUSH2 0x2D75 JUMPI PUSH2 0x2D74 PUSH2 0x2C59 JUMP JUMPDEST JUMPDEST DUP2 CALLDATALOAD PUSH2 0x2D85 DUP5 DUP3 PUSH1 0x20 DUP7 ADD PUSH2 0x2D1E JUMP JUMPDEST SWAP2 POP POP SWAP3 SWAP2 POP POP JUMP JUMPDEST PUSH1 0x0 DUP1 PUSH1 0x40 DUP4 DUP6 SUB SLT ISZERO PUSH2 0x2DA5 JUMPI PUSH2 0x2DA4 PUSH2 0x26DD JUMP JUMPDEST JUMPDEST PUSH1 0x0 DUP4 ADD CALLDATALOAD PUSH8 0xFFFFFFFFFFFFFFFF DUP2 GT ISZERO PUSH2 0x2DC3 JUMPI PUSH2 0x2DC2 PUSH2 0x26E2 JUMP JUMPDEST JUMPDEST PUSH2 0x2DCF DUP6 DUP3 DUP7 ADD PUSH2 0x2D60 JUMP JUMPDEST SWAP3 POP POP PUSH1 0x20 PUSH2 0x2DE0 DUP6 DUP3 DUP7 ADD PUSH2 0x2708 JUMP JUMPDEST SWAP2 POP POP SWAP3 POP SWAP3 SWAP1 POP JUMP JUMPDEST PUSH2 0x2DF3 DUP2 PUSH2 0x27CF JUMP JUMPDEST DUP2 EQ PUSH2 0x2DFE JUMPI PUSH1 0x0 DUP1 REVERT JUMPDEST POP JUMP JUMPDEST PUSH1 0x0 DUP2 CALLDATALOAD SWAP1 POP PUSH2 0x2E10 DUP2 PUSH2 0x2DEA JUMP JUMPDEST SWAP3 SWAP2 POP POP JUMP JUMPDEST PUSH1 0x0 DUP1 PUSH1 0x40 DUP4 DUP6 SUB SLT ISZERO PUSH2 0x2E2D JUMPI PUSH2 0x2E2C PUSH2 0x26DD JUMP JUMPDEST JUMPDEST PUSH1 0x0 PUSH2 0x2E3B DUP6 DUP3 DUP7 ADD PUSH2 0x2954 JUMP JUMPDEST SWAP3 POP POP PUSH1 0x20 PUSH2 0x2E4C DUP6 DUP3 DUP7 ADD PUSH2 0x2E01 JUMP JUMPDEST SWAP2 POP POP SWAP3 POP SWAP3 SWAP1 POP JUMP JUMPDEST PUSH1 0x0 PUSH8 0xFFFFFFFFFFFFFFFF DUP3 GT ISZERO PUSH2 0x2E71 JUMPI PUSH2 0x2E70 PUSH2 0x2C63 JUMP JUMPDEST JUMPDEST PUSH2 0x2E7A DUP3 PUSH2 0x284B JUMP JUMPDEST SWAP1 POP PUSH1 0x20 DUP2 ADD SWAP1 POP SWAP2 SWAP1 POP JUMP JUMPDEST PUSH1 0x0 PUSH2 0x2E9A PUSH2 0x2E95 DUP5 PUSH2 0x2E56 JUMP JUMPDEST PUSH2 0x2CC3 JUMP JUMPDEST SWAP1 POP DUP3 DUP2 MSTORE PUSH1 0x20 DUP2 ADD DUP5 DUP5 DUP5 ADD GT ISZERO PUSH2 0x2EB6 JUMPI PUSH2 0x2EB5 PUSH2 0x2C5E JUMP JUMPDEST JUMPDEST PUSH2 0x2EC1 DUP5 DUP3 DUP6 PUSH2 0x2D0F JUMP JUMPDEST POP SWAP4 SWAP3 POP POP POP JUMP JUMPDEST PUSH1 0x0 DUP3 PUSH1 0x1F DUP4 ADD SLT PUSH2 0x2EDE JUMPI PUSH2 0x2EDD PUSH2 0x2C59 JUMP JUMPDEST JUMPDEST DUP2 CALLDATALOAD PUSH2 0x2EEE DUP5 DUP3 PUSH1 0x20 DUP7 ADD PUSH2 0x2E87 JUMP JUMPDEST SWAP2 POP POP SWAP3 SWAP2 POP POP JUMP JUMPDEST PUSH1 0x0 DUP1 PUSH1 0x0 DUP1 PUSH1 0x80 DUP6 DUP8 SUB SLT ISZERO PUSH2 0x2F11 JUMPI PUSH2 0x2F10 PUSH2 0x26DD JUMP JUMPDEST JUMPDEST PUSH1 0x0 PUSH2 0x2F1F DUP8 DUP3 DUP9 ADD PUSH2 0x2954 JUMP JUMPDEST SWAP5 POP POP PUSH1 0x20 PUSH2 0x2F30 DUP8 DUP3 DUP9 ADD PUSH2 0x2954 JUMP JUMPDEST SWAP4 POP POP PUSH1 0x40 PUSH2 0x2F41 DUP8 DUP3 DUP9 ADD PUSH2 0x2708 JUMP JUMPDEST SWAP3 POP POP PUSH1 0x60 DUP6 ADD CALLDATALOAD PUSH8 0xFFFFFFFFFFFFFFFF DUP2 GT ISZERO PUSH2 0x2F62 JUMPI PUSH2 0x2F61 PUSH2 0x26E2 JUMP JUMPDEST JUMPDEST PUSH2 0x2F6E DUP8 DUP3 DUP9 ADD PUSH2 0x2EC9 JUMP JUMPDEST SWAP2 POP POP SWAP3 SWAP6 SWAP2 SWAP5 POP SWAP3 POP JUMP JUMPDEST PUSH1 0x0 DUP1 PUSH1 0x40 DUP4 DUP6 SUB SLT ISZERO PUSH2 0x2F91 JUMPI PUSH2 0x2F90 PUSH2 0x26DD JUMP JUMPDEST JUMPDEST PUSH1 0x0 PUSH2 0x2F9F DUP6 DUP3 DUP7 ADD PUSH2 0x2954 JUMP JUMPDEST SWAP3 POP POP PUSH1 0x20 PUSH2 0x2FB0 DUP6 DUP3 DUP7 ADD PUSH2 0x2954 JUMP JUMPDEST SWAP2 POP POP SWAP3 POP SWAP3 SWAP1 POP JUMP JUMPDEST PUSH32 0x4F6E6C79206F776E65722063616E2063616C6C20746869732066756E6374696F PUSH1 0x0 DUP3 ADD MSTORE PUSH32 0x6E00000000000000000000000000000000000000000000000000000000000000 PUSH1 0x20 DUP3 ADD MSTORE POP JUMP JUMPDEST PUSH1 0x0 PUSH2 0x3016 PUSH1 0x21 DUP4 PUSH2 0x2810 JUMP JUMPDEST SWAP2 POP PUSH2 0x3021 DUP3 PUSH2 0x2FBA JUMP JUMPDEST PUSH1 0x40 DUP3 ADD SWAP1 POP SWAP2 SWAP1 POP JUMP JUMPDEST PUSH1 0x0 PUSH1 0x20 DUP3 ADD SWAP1 POP DUP2 DUP2 SUB PUSH1 0x0 DUP4 ADD MSTORE PUSH2 0x3045 DUP2 PUSH2 0x3009 JUMP JUMPDEST SWAP1 POP SWAP2 SWAP1 POP JUMP JUMPDEST PUSH32 0x4E487B7100000000000000000000000000000000000000000000000000000000 PUSH1 0x0 MSTORE PUSH1 0x22 PUSH1 0x4 MSTORE PUSH1 0x24 PUSH1 0x0 REVERT JUMPDEST PUSH1 0x0 PUSH1 0x2 DUP3 DIV SWAP1 POP PUSH1 0x1 DUP3 AND DUP1 PUSH2 0x3093 JUMPI PUSH1 0x7F DUP3 AND SWAP2 POP JUMPDEST PUSH1 0x20 DUP3 LT DUP2 SUB PUSH2 0x30A6 JUMPI PUSH2 0x30A5 PUSH2 0x304C JUMP JUMPDEST JUMPDEST POP SWAP2 SWAP1 POP JUMP JUMPDEST PUSH1 0x0 PUSH1 0x60 DUP3 ADD SWAP1 POP PUSH2 0x30C1 PUSH1 0x0 DUP4 ADD DUP7 PUSH2 0x28E9 JUMP JUMPDEST PUSH2 0x30CE PUSH1 0x20 DUP4 ADD DUP6 PUSH2 0x2913 JUMP JUMPDEST PUSH2 0x30DB PUSH1 0x40 DUP4 ADD DUP5 PUSH2 0x28E9 JUMP JUMPDEST SWAP5 SWAP4 POP POP POP POP JUMP JUMPDEST PUSH32 0x4E487B7100000000000000000000000000000000000000000000000000000000 PUSH1 0x0 MSTORE PUSH1 0x11 PUSH1 0x4 MSTORE PUSH1 0x24 PUSH1 0x0 REVERT JUMPDEST PUSH1 0x0 PUSH2 0x311D DUP3 PUSH2 0x26E7 JUMP JUMPDEST SWAP2 POP PUSH2 0x3128 DUP4 PUSH2 0x26E7 JUMP JUMPDEST SWAP3 POP DUP3 DUP3 ADD SWAP1 POP DUP1 DUP3 GT ISZERO PUSH2 0x3140 JUMPI PUSH2 0x313F PUSH2 0x30E3 JUMP JUMPDEST JUMPDEST SWAP3 SWAP2 POP POP JUMP JUMPDEST PUSH32 0x4E487B7100000000000000000000000000000000000000000000000000000000 PUSH1 0x0 MSTORE PUSH1 0x32 PUSH1 0x4 MSTORE PUSH1 0x24 PUSH1 0x0 REVERT JUMPDEST PUSH1 0x0 PUSH2 0x3180 DUP3 PUSH2 0x26E7 JUMP JUMPDEST SWAP2 POP PUSH32 0xFFFFFFFFFFFFFFFFFFFFFFFFFFFFFFFFFFFFFFFFFFFFFFFFFFFFFFFFFFFFFFFF DUP3 SUB PUSH2 0x31B2 JUMPI PUSH2 0x31B1 PUSH2 0x30E3 JUMP JUMPDEST JUMPDEST PUSH1 0x1 DUP3 ADD SWAP1 POP SWAP2 SWAP1 POP JUMP JUMPDEST PUSH32 0x5072696365206D7573742062652067726561746572207468616E203000000000 PUSH1 0x0 DUP3 ADD MSTORE POP JUMP JUMPDEST PUSH1 0x0 PUSH2 0x31F3 PUSH1 0x1C DUP4 PUSH2 0x2810 JUMP JUMPDEST SWAP2 POP PUSH2 0x31FE DUP3 PUSH2 0x31BD JUMP JUMPDEST PUSH1 0x20 DUP3 ADD SWAP1 POP SWAP2 SWAP1 POP JUMP JUMPDEST PUSH1 0x0 PUSH1 0x20 DUP3 ADD SWAP1 POP DUP2 DUP2 SUB PUSH1 0x0 DUP4 ADD MSTORE PUSH2 0x3222 DUP2 PUSH2 0x31E6 JUMP JUMPDEST SWAP1 POP SWAP2 SWAP1 POP JUMP JUMPDEST PUSH32 0x5072696365206D75737420626520657175616C20746F20746865206C69737469 PUSH1 0x0 DUP3 ADD MSTORE PUSH32 0x6E67207072696365000000000000000000000000000000000000000000000000 PUSH1 0x20 DUP3 ADD MSTORE POP JUMP JUMPDEST PUSH1 0x0 PUSH2 0x3285 PUSH1 0x28 DUP4 PUSH2 0x2810 JUMP JUMPDEST SWAP2 POP PUSH2 0x3290 DUP3 PUSH2 0x3229 JUMP JUMPDEST PUSH1 0x40 DUP3 ADD SWAP1 POP SWAP2 SWAP1 POP JUMP JUMPDEST PUSH1 0x0 PUSH1 0x20 DUP3 ADD SWAP1 POP DUP2 DUP2 SUB PUSH1 0x0 DUP4 ADD MSTORE PUSH2 0x32B4 DUP2 PUSH2 0x3278 JUMP JUMPDEST SWAP1 POP SWAP2 SWAP1 POP JUMP JUMPDEST PUSH1 0x0 PUSH2 0x32C6 DUP3 PUSH2 0x26E7 JUMP JUMPDEST SWAP2 POP PUSH2 0x32D1 DUP4 PUSH2 0x26E7 JUMP JUMPDEST SWAP3 POP DUP3 DUP3 MUL PUSH2 0x32DF DUP2 PUSH2 0x26E7 JUMP JUMPDEST SWAP2 POP DUP3 DUP3 DIV DUP5 EQ DUP4 ISZERO OR PUSH2 0x32F6 JUMPI PUSH2 0x32F5 PUSH2 0x30E3 JUMP JUMPDEST JUMPDEST POP SWAP3 SWAP2 POP POP JUMP JUMPDEST PUSH32 0x4E487B7100000000000000000000000000000000000000000000000000000000 PUSH1 0x0 MSTORE PUSH1 0x12 PUSH1 0x4 MSTORE PUSH1 0x24 PUSH1 0x0 REVERT JUMPDEST PUSH1 0x0 PUSH2 0x3337 DUP3 PUSH2 0x26E7 JUMP JUMPDEST SWAP2 POP PUSH2 0x3342 DUP4 PUSH2 0x26E7 JUMP JUMPDEST SWAP3 POP DUP3 PUSH2 0x3352 JUMPI PUSH2 0x3351 PUSH2 0x32FD JUMP JUMPDEST JUMPDEST DUP3 DUP3 DIV SWAP1 POP SWAP3 SWAP2 POP POP JUMP JUMPDEST PUSH1 0x0 PUSH2 0x3368 DUP3 PUSH2 0x26E7 JUMP JUMPDEST SWAP2 POP PUSH2 0x3373 DUP4 PUSH2 0x26E7 JUMP JUMPDEST SWAP3 POP DUP3 DUP3 SUB SWAP1 POP DUP2 DUP2 GT ISZERO PUSH2 0x338B JUMPI PUSH2 0x338A PUSH2 0x30E3 JUMP JUMPDEST JUMPDEST SWAP3 SWAP2 POP POP JUMP JUMPDEST PUSH1 0x0 DUP2 SWAP1 POP SWAP3 SWAP2 POP POP JUMP JUMPDEST PUSH1 0x0 PUSH2 0x33A7 DUP3 PUSH2 0x2805 JUMP JUMPDEST PUSH2 0x33B1 DUP2 DUP6 PUSH2 0x3391 JUMP JUMPDEST SWAP4 POP PUSH2 0x33C1 DUP2 DUP6 PUSH1 0x20 DUP7 ADD PUSH2 0x2821 JUMP JUMPDEST DUP1 DUP5 ADD SWAP2 POP POP SWAP3 SWAP2 POP POP JUMP JUMPDEST PUSH1 0x0 PUSH2 0x33D9 DUP3 DUP6 PUSH2 0x339C JUMP JUMPDEST SWAP2 POP PUSH2 0x33E5 DUP3 DUP5 PUSH2 0x339C JUMP JUMPDEST SWAP2 POP DUP2 SWAP1 POP SWAP4 SWAP3 POP POP POP JUMP JUMPDEST PUSH1 0x0 DUP2 SWAP1 POP DUP2 PUSH1 0x0 MSTORE PUSH1 0x20 PUSH1 0x0 KECCAK256 SWAP1 POP SWAP2 SWAP1 POP JUMP JUMPDEST PUSH1 0x0 PUSH1 0x20 PUSH1 0x1F DUP4 ADD DIV SWAP1 POP SWAP2 SWAP1 POP JUMP JUMPDEST PUSH1 0x0 DUP3 DUP3 SHL SWAP1 POP SWAP3 SWAP2 POP POP JUMP JUMPDEST PUSH1 0x0 PUSH1 0x8 DUP4 MUL PUSH2 0x3453 PUSH32 0xFFFFFFFFFFFFFFFFFFFFFFFFFFFFFFFFFFFFFFFFFFFFFFFFFFFFFFFFFFFFFFFF DUP3 PUSH2 0x3416 JUMP JUMPDEST PUSH2 0x345D DUP7 DUP4 PUSH2 0x3416 JUMP JUMPDEST SWAP6 POP DUP1 NOT DUP5 AND SWAP4 POP DUP1 DUP7 AND DUP5 OR SWAP3 POP POP POP SWAP4 SWAP3 POP POP POP JUMP JUMPDEST PUSH1 0x0 DUP2 SWAP1 POP SWAP2 SWAP1 POP JUMP JUMPDEST PUSH1 0x0 PUSH2 0x349A PUSH2 0x3495 PUSH2 0x3490 DUP5 PUSH2 0x26E7 JUMP JUMPDEST PUSH2 0x3475 JUMP JUMPDEST PUSH2 0x26E7 JUMP JUMPDEST SWAP1 POP SWAP2 SWAP1 POP JUMP JUMPDEST PUSH1 0x0 DUP2 SWAP1 POP SWAP2 SWAP1 POP JUMP JUMPDEST PUSH2 0x34B4 DUP4 PUSH2 0x347F JUMP JUMPDEST PUSH2 0x34C8 PUSH2 0x34C0 DUP3 PUSH2 0x34A1 JUMP JUMPDEST DUP5 DUP5 SLOAD PUSH2 0x3423 JUMP JUMPDEST DUP3 SSTORE POP POP POP POP JUMP JUMPDEST PUSH1 0x0 SWAP1 JUMP JUMPDEST PUSH2 0x34DD PUSH2 0x34D0 JUMP JUMPDEST PUSH2 0x34E8 DUP2 DUP5 DUP5 PUSH2 0x34AB JUMP JUMPDEST POP POP POP JUMP JUMPDEST JUMPDEST DUP2 DUP2 LT ISZERO PUSH2 0x350C JUMPI PUSH2 0x3501 PUSH1 0x0 DUP3 PUSH2 0x34D5 JUMP JUMPDEST PUSH1 0x1 DUP2 ADD SWAP1 POP PUSH2 0x34EE JUMP JUMPDEST POP POP JUMP JUMPDEST PUSH1 0x1F DUP3 GT ISZERO PUSH2 0x3551 JUMPI PUSH2 0x3522 DUP2 PUSH2 0x33F1 JUMP JUMPDEST PUSH2 0x352B DUP5 PUSH2 0x3406 JUMP JUMPDEST DUP2 ADD PUSH1 0x20 DUP6 LT ISZERO PUSH2 0x353A JUMPI DUP2 SWAP1 POP JUMPDEST PUSH2 0x354E PUSH2 0x3546 DUP6 PUSH2 0x3406 JUMP JUMPDEST DUP4 ADD DUP3 PUSH2 0x34ED JUMP JUMPDEST POP POP JUMPDEST POP POP POP JUMP JUMPDEST PUSH1 0x0 DUP3 DUP3 SHR SWAP1 POP SWAP3 SWAP2 POP POP JUMP JUMPDEST PUSH1 0x0 PUSH2 0x3574 PUSH1 0x0 NOT DUP5 PUSH1 0x8 MUL PUSH2 0x3556 JUMP JUMPDEST NOT DUP1 DUP4 AND SWAP2 POP POP SWAP3 SWAP2 POP POP JUMP JUMPDEST PUSH1 0x0 PUSH2 0x358D DUP4 DUP4 PUSH2 0x3563 JUMP JUMPDEST SWAP2 POP DUP3 PUSH1 0x2 MUL DUP3 OR SWAP1 POP SWAP3 SWAP2 POP POP JUMP JUMPDEST PUSH2 0x35A6 DUP3 PUSH2 0x2805 JUMP JUMPDEST PUSH8 0xFFFFFFFFFFFFFFFF DUP2 GT ISZERO PUSH2 0x35BF JUMPI PUSH2 0x35BE PUSH2 0x2C63 JUMP JUMPDEST JUMPDEST PUSH2 0x35C9 DUP3 SLOAD PUSH2 0x307B JUMP JUMPDEST PUSH2 0x35D4 DUP3 DUP3 DUP6 PUSH2 0x3510 JUMP JUMPDEST PUSH1 0x0 PUSH1 0x20 SWAP1 POP PUSH1 0x1F DUP4 GT PUSH1 0x1 DUP2 EQ PUSH2 0x3607 JUMPI PUSH1 0x0 DUP5 ISZERO PUSH2 0x35F5 JUMPI DUP3 DUP8 ADD MLOAD SWAP1 POP JUMPDEST PUSH2 0x35FF DUP6 DUP3 PUSH2 0x3581 JUMP JUMPDEST DUP7 SSTORE POP PUSH2 0x3667 JUMP JUMPDEST PUSH1 0x1F NOT DUP5 AND PUSH2 0x3615 DUP7 PUSH2 0x33F1 JUMP JUMPDEST PUSH1 0x0 JUMPDEST DUP3 DUP2 LT ISZERO PUSH2 0x363D JUMPI DUP5 DUP10 ADD MLOAD DUP3 SSTORE PUSH1 0x1 DUP3 ADD SWAP2 POP PUSH1 0x20 DUP6 ADD SWAP5 POP PUSH1 0x20 DUP2 ADD SWAP1 POP PUSH2 0x3618 JUMP JUMPDEST DUP7 DUP4 LT ISZERO PUSH2 0x365A JUMPI DUP5 DUP10 ADD MLOAD PUSH2 0x3656 PUSH1 0x1F DUP10 AND DUP3 PUSH2 0x3563 JUMP JUMPDEST DUP4 SSTORE POP JUMPDEST PUSH1 0x1 PUSH1 0x2 DUP9 MUL ADD DUP9 SSTORE POP POP POP JUMPDEST POP POP POP POP POP POP JUMP JUMPDEST PUSH1 0x0 DUP2 MLOAD SWAP1 POP SWAP2 SWAP1 POP JUMP JUMPDEST PUSH1 0x0 DUP3 DUP3 MSTORE PUSH1 0x20 DUP3 ADD SWAP1 POP SWAP3 SWAP2 POP POP JUMP JUMPDEST PUSH1 0x0 PUSH2 0x3696 DUP3 PUSH2 0x366F JUMP JUMPDEST PUSH2 0x36A0 DUP2 DUP6 PUSH2 0x367A JUMP JUMPDEST SWAP4 POP PUSH2 0x36B0 DUP2 DUP6 PUSH1 0x20 DUP7 ADD PUSH2 0x2821 JUMP JUMPDEST PUSH2 0x36B9 DUP2 PUSH2 0x284B JUMP JUMPDEST DUP5 ADD SWAP2 POP POP SWAP3 SWAP2 POP POP JUMP JUMPDEST PUSH1 0x0 PUSH1 0x80 DUP3 ADD SWAP1 POP PUSH2 0x36D9 PUSH1 0x0 DUP4 ADD DUP8 PUSH2 0x28E9 JUMP JUMPDEST PUSH2 0x36E6 PUSH1 0x20 DUP4 ADD DUP7 PUSH2 0x28E9 JUMP JUMPDEST PUSH2 0x36F3 PUSH1 0x40 DUP4 ADD DUP6 PUSH2 0x2913 JUMP JUMPDEST DUP2 DUP2 SUB PUSH1 0x60 DUP4 ADD MSTORE PUSH2 0x3705 DUP2 DUP5 PUSH2 0x368B JUMP JUMPDEST SWAP1 POP SWAP6 SWAP5 POP POP POP POP POP JUMP JUMPDEST PUSH1 0x0 DUP2 MLOAD SWAP1 POP PUSH2 0x371F DUP2 PUSH2 0x2776 JUMP JUMPDEST SWAP3 SWAP2 POP POP JUMP JUMPDEST PUSH1 0x0 PUSH1 0x20 DUP3 DUP5 SUB SLT ISZERO PUSH2 0x373B JUMPI PUSH2 0x373A PUSH2 0x26DD JUMP JUMPDEST JUMPDEST PUSH1 0x0 PUSH2 0x3749 DUP5 DUP3 DUP6 ADD PUSH2 0x3710 JUMP JUMPDEST SWAP2 POP POP SWAP3 SWAP2 POP POP JUMP JUMPDEST PUSH1 0x0 PUSH1 0x40 DUP3 ADD SWAP1 POP PUSH2 0x3767 PUSH1 0x0 DUP4 ADD DUP6 PUSH2 0x28E9 JUMP JUMPDEST PUSH2 0x3774 PUSH1 0x20 DUP4 ADD DUP5 PUSH2 0x2913 JUMP JUMPDEST SWAP4 SWAP3 POP POP POP JUMP INVALID LOG2 PUSH5 0x6970667358 0x22 SLT KECCAK256 DUP12 PUSH32 0xF2694799AAFD48A3FA99B24285AB5FABBF4CBF5BD6681045B9B8390593566473 PUSH16 0x6C634300081B00330000000000000000 "
        },
        "methodIdentifiers": {
          "_createNFTListing(uint256,uint256)": "236ddff1",
          "approve(address,uint256)": "095ea7b3",
          "balanceOf(address)": "70a08231",
          "createToken(string,uint256)": "72b3b620",
          "executeSale(uint256)": "9b1225c4",
          "getAllListedNFTs()": "4b58ffaa",
          "getApproved(uint256)": "081812fc",
          "getCurrentTokenId()": "56189236",
          "getListingFeePercentage()": "b30927b5",
          "getMyNFTs()": "629cb2e4",
          "getNFTListing(uint256)": "0ea59c4b",
          "isApprovedForAll(address,address)": "e985e9c5",
          "listingFeePercentage()": "0888de39",
          "marketplaceOwner()": "650025a0",
          "name()": "06fdde03",
          "ownerOf(uint256)": "6352211e",
          "safeTransferFrom(address,address,uint256)": "42842e0e",
          "safeTransferFrom(address,address,uint256,bytes)": "b88d4fde",
          "setApprovalForAll(address,bool)": "a22cb465",
          "supportsInterface(bytes4)": "01ffc9a7",
          "symbol()": "95d89b41",
          "tokenURI(uint256)": "c87b56dd",
          "transferFrom(address,address,uint256)": "23b872dd",
          "updateListingFeePercentage(uint256)": "01bb8cc5"
        }
      }
    }
  }
}